{
  "address": "0x668f900fD0E994730465e571076325660c57d4F6",
  "abi": [
    {
      "inputs": [],
      "stateMutability": "nonpayable",
      "type": "constructor"
    },
    {
      "inputs": [
        {
          "internalType": "address",
          "name": "target",
          "type": "address"
        }
      ],
      "name": "AddressEmptyCode",
      "type": "error"
    },
    {
      "inputs": [
        {
          "internalType": "address",
          "name": "implementation",
          "type": "address"
        }
      ],
      "name": "ERC1967InvalidImplementation",
      "type": "error"
    },
    {
      "inputs": [],
      "name": "ERC1967NonPayable",
      "type": "error"
    },
    {
      "inputs": [],
      "name": "EnforcedPause",
      "type": "error"
    },
    {
      "inputs": [],
      "name": "ExpectedPause",
      "type": "error"
    },
    {
      "inputs": [],
      "name": "FailedCall",
      "type": "error"
    },
    {
      "inputs": [],
      "name": "InvalidInitialization",
      "type": "error"
    },
    {
      "inputs": [],
      "name": "InvalidProof",
      "type": "error"
    },
    {
      "inputs": [],
      "name": "NotInitializing",
      "type": "error"
    },
    {
      "inputs": [],
      "name": "NotPauser",
      "type": "error"
    },
    {
      "inputs": [
        {
          "internalType": "address",
          "name": "owner",
          "type": "address"
        }
      ],
      "name": "OwnableInvalidOwner",
      "type": "error"
    },
    {
      "inputs": [
        {
          "internalType": "address",
          "name": "account",
          "type": "address"
        }
      ],
      "name": "OwnableUnauthorizedAccount",
      "type": "error"
    },
    {
      "inputs": [
        {
          "internalType": "address",
          "name": "token",
          "type": "address"
        }
      ],
      "name": "SafeERC20FailedOperation",
      "type": "error"
    },
    {
      "inputs": [],
      "name": "UUPSUnauthorizedCallContext",
      "type": "error"
    },
    {
      "inputs": [
        {
          "internalType": "bytes32",
          "name": "slot",
          "type": "bytes32"
        }
      ],
      "name": "UUPSUnsupportedProxiableUUID",
      "type": "error"
    },
    {
      "inputs": [],
      "name": "Unauthorized",
      "type": "error"
    },
    {
      "inputs": [],
      "name": "VaultGaugeArrayMismatch",
      "type": "error"
    },
    {
      "inputs": [],
      "name": "ZeroAddressController",
      "type": "error"
    },
    {
      "inputs": [],
      "name": "ZeroAddressGauge",
      "type": "error"
    },
    {
      "inputs": [],
      "name": "ZeroAddressKeeper",
      "type": "error"
    },
    {
      "inputs": [],
      "name": "ZeroAddressPauser",
      "type": "error"
    },
    {
      "inputs": [],
      "name": "ZeroAddressSykDepositor",
      "type": "error"
    },
    {
      "inputs": [],
      "name": "ZeroAddressToken",
      "type": "error"
    },
    {
      "inputs": [],
      "name": "ZeroAddressVault",
      "type": "error"
    },
    {
      "anonymous": false,
      "inputs": [
        {
          "indexed": false,
          "internalType": "uint64",
          "name": "version",
          "type": "uint64"
        }
      ],
      "name": "Initialized",
      "type": "event"
    },
    {
      "anonymous": false,
      "inputs": [
        {
          "indexed": true,
          "internalType": "address",
          "name": "_vault",
          "type": "address"
        },
        {
          "indexed": true,
          "internalType": "address",
          "name": "_token",
          "type": "address"
        },
        {
          "indexed": false,
          "internalType": "bytes32",
          "name": "_newMerkleRoot",
          "type": "bytes32"
        }
      ],
      "name": "MerkleRootUpdated",
      "type": "event"
    },
    {
      "anonymous": false,
      "inputs": [
        {
          "indexed": true,
          "internalType": "address",
          "name": "previousOwner",
          "type": "address"
        },
        {
          "indexed": true,
          "internalType": "address",
          "name": "newOwner",
          "type": "address"
        }
      ],
      "name": "OwnershipTransferred",
      "type": "event"
    },
    {
      "anonymous": false,
      "inputs": [
        {
          "indexed": false,
          "internalType": "address",
          "name": "account",
          "type": "address"
        }
      ],
      "name": "Paused",
      "type": "event"
    },
    {
      "anonymous": false,
      "inputs": [
        {
          "indexed": true,
          "internalType": "address",
          "name": "_user",
          "type": "address"
        },
        {
          "indexed": true,
          "internalType": "address",
          "name": "_vault",
          "type": "address"
        },
        {
          "indexed": true,
          "internalType": "address",
          "name": "token",
          "type": "address"
        },
        {
          "indexed": false,
          "internalType": "uint256",
          "name": "_amount",
          "type": "uint256"
        }
      ],
      "name": "RewardClaimed",
      "type": "event"
    },
    {
      "anonymous": false,
      "inputs": [
        {
          "indexed": true,
          "internalType": "address",
          "name": "_vault",
          "type": "address"
        },
        {
          "indexed": false,
          "internalType": "uint256",
          "name": "_amount",
          "type": "uint256"
        }
      ],
      "name": "RewardPulled",
      "type": "event"
    },
    {
      "anonymous": false,
      "inputs": [
        {
          "indexed": false,
          "internalType": "address",
          "name": "_previousController",
          "type": "address"
        },
        {
          "indexed": false,
          "internalType": "address",
          "name": "_newController",
          "type": "address"
        }
      ],
      "name": "SetController",
      "type": "event"
    },
    {
      "anonymous": false,
      "inputs": [
        {
          "indexed": true,
          "internalType": "address",
          "name": "_vault",
          "type": "address"
        },
        {
          "indexed": true,
          "internalType": "address",
          "name": "_gauge",
          "type": "address"
        }
      ],
      "name": "SetGauge",
      "type": "event"
    },
    {
      "anonymous": false,
      "inputs": [
        {
          "indexed": true,
          "internalType": "address",
          "name": "_keeper",
          "type": "address"
        }
      ],
      "name": "SetKeeper",
      "type": "event"
    },
    {
      "anonymous": false,
      "inputs": [
        {
          "indexed": true,
          "internalType": "address",
          "name": "_pauser",
          "type": "address"
        }
      ],
      "name": "SetPauser",
      "type": "event"
    },
    {
      "anonymous": false,
      "inputs": [
        {
          "indexed": false,
          "internalType": "address",
          "name": "_previousDepositor",
          "type": "address"
        },
        {
          "indexed": false,
          "internalType": "address",
          "name": "_newDepositor",
          "type": "address"
        }
      ],
      "name": "SetSykDepositor",
      "type": "event"
    },
    {
      "anonymous": false,
      "inputs": [
        {
          "indexed": true,
          "internalType": "address",
          "name": "_vault",
          "type": "address"
        },
        {
          "indexed": false,
          "internalType": "uint256",
          "name": "_nextEpochToPull",
          "type": "uint256"
        }
      ],
      "name": "SkipPulls",
      "type": "event"
    },
    {
      "anonymous": false,
      "inputs": [
        {
          "indexed": false,
          "internalType": "address",
          "name": "account",
          "type": "address"
        }
      ],
      "name": "Unpaused",
      "type": "event"
    },
    {
      "anonymous": false,
      "inputs": [
        {
          "indexed": true,
          "internalType": "address",
          "name": "implementation",
          "type": "address"
        }
      ],
      "name": "Upgraded",
      "type": "event"
    },
    {
      "inputs": [],
      "name": "UPGRADE_INTERFACE_VERSION",
      "outputs": [
        {
          "internalType": "string",
          "name": "",
          "type": "string"
        }
      ],
      "stateMutability": "view",
      "type": "function"
    },
    {
      "inputs": [
        {
          "internalType": "address[]",
          "name": "_vaults",
          "type": "address[]"
        },
        {
          "internalType": "address[]",
          "name": "_tokens",
          "type": "address[]"
        },
        {
          "internalType": "uint256[]",
          "name": "_amounts",
          "type": "uint256[]"
        },
        {
          "internalType": "bytes32[][]",
          "name": "merkleProofs",
          "type": "bytes32[][]"
        }
      ],
      "name": "batchClaim",
      "outputs": [],
      "stateMutability": "nonpayable",
      "type": "function"
    },
    {
      "inputs": [
        {
          "internalType": "address",
          "name": "_vault",
          "type": "address"
        }
      ],
      "name": "canPullNext",
      "outputs": [
        {
          "internalType": "bool",
          "name": "",
          "type": "bool"
        }
      ],
      "stateMutability": "view",
      "type": "function"
    },
    {
      "inputs": [
        {
          "internalType": "address",
          "name": "_vault",
          "type": "address"
        },
        {
          "internalType": "address",
          "name": "_token",
          "type": "address"
        },
        {
          "internalType": "uint256",
          "name": "_amount",
          "type": "uint256"
        },
        {
          "internalType": "bytes32[]",
          "name": "merkleProof",
          "type": "bytes32[]"
        }
      ],
      "name": "claim",
      "outputs": [],
      "stateMutability": "nonpayable",
      "type": "function"
    },
    {
      "inputs": [
        {
          "internalType": "address",
          "name": "",
          "type": "address"
        },
        {
          "internalType": "address",
          "name": "",
          "type": "address"
        },
        {
          "internalType": "address",
          "name": "",
          "type": "address"
        }
      ],
      "name": "claimed",
      "outputs": [
        {
          "internalType": "uint256",
          "name": "",
          "type": "uint256"
        }
      ],
      "stateMutability": "view",
      "type": "function"
    },
    {
      "inputs": [],
      "name": "controller",
      "outputs": [
        {
          "internalType": "contract IGaugeController",
          "name": "",
          "type": "address"
        }
      ],
      "stateMutability": "view",
      "type": "function"
    },
    {
      "inputs": [
        {
          "internalType": "address",
          "name": "_token",
          "type": "address"
        },
        {
          "internalType": "uint256",
          "name": "_amount",
          "type": "uint256"
        }
      ],
      "name": "emergencyWithdrawal",
      "outputs": [],
      "stateMutability": "nonpayable",
      "type": "function"
    },
    {
      "inputs": [
        {
          "internalType": "address",
          "name": "",
          "type": "address"
        },
        {
          "internalType": "uint256",
          "name": "",
          "type": "uint256"
        }
      ],
      "name": "epochRewards",
      "outputs": [
        {
          "internalType": "uint256",
          "name": "",
          "type": "uint256"
        }
      ],
      "stateMutability": "view",
      "type": "function"
    },
    {
      "inputs": [
        {
          "internalType": "address",
          "name": "",
          "type": "address"
        }
      ],
      "name": "gauges",
      "outputs": [
        {
          "internalType": "address",
          "name": "",
          "type": "address"
        }
      ],
      "stateMutability": "view",
      "type": "function"
    },
    {
      "inputs": [
        {
          "internalType": "address",
          "name": "_keeper",
          "type": "address"
        },
        {
          "internalType": "address",
          "name": "_pauser",
          "type": "address"
        }
      ],
      "name": "initialize",
      "outputs": [],
      "stateMutability": "nonpayable",
      "type": "function"
    },
    {
      "inputs": [],
      "name": "keeper",
      "outputs": [
        {
          "internalType": "address",
          "name": "",
          "type": "address"
        }
      ],
      "stateMutability": "view",
      "type": "function"
    },
    {
      "inputs": [
        {
          "internalType": "address",
          "name": "",
          "type": "address"
        },
        {
          "internalType": "address",
          "name": "",
          "type": "address"
        }
      ],
      "name": "merkleRoot",
      "outputs": [
        {
          "internalType": "bytes32",
          "name": "",
          "type": "bytes32"
        }
      ],
      "stateMutability": "view",
      "type": "function"
    },
    {
      "inputs": [
        {
          "internalType": "address",
          "name": "",
          "type": "address"
        }
      ],
      "name": "nextStrykeEpochToPull",
      "outputs": [
        {
          "internalType": "uint256",
          "name": "",
          "type": "uint256"
        }
      ],
      "stateMutability": "view",
      "type": "function"
    },
    {
      "inputs": [],
      "name": "owner",
      "outputs": [
        {
          "internalType": "address",
          "name": "",
          "type": "address"
        }
      ],
      "stateMutability": "view",
      "type": "function"
    },
    {
      "inputs": [],
      "name": "pause",
      "outputs": [],
      "stateMutability": "nonpayable",
      "type": "function"
    },
    {
      "inputs": [],
      "name": "paused",
      "outputs": [
        {
          "internalType": "bool",
          "name": "",
          "type": "bool"
        }
      ],
      "stateMutability": "view",
      "type": "function"
    },
    {
      "inputs": [],
      "name": "pauser",
      "outputs": [
        {
          "internalType": "address",
          "name": "",
          "type": "address"
        }
      ],
      "stateMutability": "view",
      "type": "function"
    },
    {
      "inputs": [],
      "name": "proxiableUUID",
      "outputs": [
        {
          "internalType": "bytes32",
          "name": "",
          "type": "bytes32"
        }
      ],
      "stateMutability": "view",
      "type": "function"
    },
    {
      "inputs": [
        {
          "internalType": "address",
          "name": "_vault",
          "type": "address"
        }
      ],
      "name": "pullNext",
      "outputs": [],
      "stateMutability": "nonpayable",
      "type": "function"
    },
    {
      "inputs": [],
      "name": "renounceOwnership",
      "outputs": [],
      "stateMutability": "nonpayable",
      "type": "function"
    },
    {
      "inputs": [
        {
          "internalType": "contract IGaugeController",
          "name": "_controller",
          "type": "address"
        }
      ],
      "name": "setController",
      "outputs": [],
      "stateMutability": "nonpayable",
      "type": "function"
    },
    {
      "inputs": [
        {
          "internalType": "address",
          "name": "_vault",
          "type": "address"
        },
        {
          "internalType": "address",
          "name": "_gauge",
          "type": "address"
        }
      ],
      "name": "setGauge",
      "outputs": [],
      "stateMutability": "nonpayable",
      "type": "function"
    },
    {
      "inputs": [
        {
          "internalType": "address",
          "name": "_keeper",
          "type": "address"
        }
      ],
      "name": "setKeeper",
      "outputs": [],
      "stateMutability": "nonpayable",
      "type": "function"
    },
    {
      "inputs": [
        {
          "internalType": "address",
          "name": "_pauser",
          "type": "address"
        }
      ],
      "name": "setPauser",
      "outputs": [],
      "stateMutability": "nonpayable",
      "type": "function"
    },
    {
      "inputs": [
        {
          "internalType": "contract ISYKDepositor",
          "name": "_sykDepositor",
          "type": "address"
        }
      ],
      "name": "setSykDepositor",
      "outputs": [],
      "stateMutability": "nonpayable",
      "type": "function"
    },
    {
      "inputs": [
        {
          "internalType": "address",
          "name": "_vault",
          "type": "address"
        },
        {
          "internalType": "uint256",
          "name": "_nextEpochToPull",
          "type": "uint256"
        }
      ],
      "name": "skipPulls",
      "outputs": [],
      "stateMutability": "nonpayable",
      "type": "function"
    },
    {
      "inputs": [],
      "name": "syk",
      "outputs": [
        {
          "internalType": "address",
          "name": "",
          "type": "address"
        }
      ],
      "stateMutability": "view",
      "type": "function"
    },
    {
      "inputs": [],
      "name": "sykDepositor",
      "outputs": [
        {
          "internalType": "contract ISYKDepositor",
          "name": "",
          "type": "address"
        }
      ],
      "stateMutability": "view",
      "type": "function"
    },
    {
      "inputs": [
        {
          "internalType": "address",
          "name": "newOwner",
          "type": "address"
        }
      ],
      "name": "transferOwnership",
      "outputs": [],
      "stateMutability": "nonpayable",
      "type": "function"
    },
    {
      "inputs": [],
      "name": "unpause",
      "outputs": [],
      "stateMutability": "nonpayable",
      "type": "function"
    },
    {
      "inputs": [
        {
          "internalType": "address",
          "name": "_vault",
          "type": "address"
        },
        {
          "internalType": "address",
          "name": "_token",
          "type": "address"
        },
        {
          "internalType": "bytes32",
          "name": "_merkleRoot",
          "type": "bytes32"
        }
      ],
      "name": "updateMerkleRoot",
      "outputs": [],
      "stateMutability": "nonpayable",
      "type": "function"
    },
    {
      "inputs": [
        {
          "internalType": "address",
          "name": "newImplementation",
          "type": "address"
        },
        {
          "internalType": "bytes",
          "name": "data",
          "type": "bytes"
        }
      ],
      "name": "upgradeToAndCall",
      "outputs": [],
      "stateMutability": "payable",
      "type": "function"
    }
  ],
  "transactionHash": "0xde30dea0037cadf2ff0274e2982f404d595928e42ee7eba4a09959b56230a019",
  "args": [],
  "numDeployments": 1,
  "solcInputHash": "f9d529bc5907bac067eedb1108eee232",
  "bytecode": "0x60a06040523073ffffffffffffffffffffffffffffffffffffffff1660809073ffffffffffffffffffffffffffffffffffffffff1681525034801561004357600080fd5b5061005261005760201b60201c565b6101c1565b600061006761015b60201b60201c565b90508060000160089054906101000a900460ff16156100b2576040517ff92ee8a900000000000000000000000000000000000000000000000000000000815260040160405180910390fd5b67ffffffffffffffff80168160000160009054906101000a900467ffffffffffffffff1667ffffffffffffffff16146101585767ffffffffffffffff8160000160006101000a81548167ffffffffffffffff021916908367ffffffffffffffff1602179055507fc7f505b2f371ae2175ee4913f4499e1f2633a7b5936321eed1cdaeb6115181d267ffffffffffffffff60405161014f91906101a6565b60405180910390a15b50565b60007ff0c57e16840df040f15088dc2f81fe391c3923bec73e23a9662efc9c229c6a00905090565b600067ffffffffffffffff82169050919050565b6101a081610183565b82525050565b60006020820190506101bb6000830184610197565b92915050565b60805161417b6101ea6000396000818161262d01528181612682015261283d015261417b6000f3fe6080604052600436106101e35760003560e01c8063715018a611610102578063aced166111610095578063f2fde38b11610064578063f2fde38b14610695578063f5f49296146106be578063f77c4791146106fb578063fabed41214610726576101e3565b8063aced1661146105c5578063ad3cb1cc146105f0578063b9a09fd51461061b578063cf3ef1d714610658576101e3565b806392eefe9b116100d157806392eefe9b1461051f5780639fbe6ac7146105485780639fd0506d14610571578063a43ca3711461059c576101e3565b8063715018a61461049d578063748747e6146104b45780638456cb59146104dd5780638da5cb5b146104f4576101e3565b80633f4ba83a1161017a5780634f1ef286116101495780634f1ef2861461040257806352d1902d1461041e57806357d9989c146104495780635c975abb14610472576101e3565b80633f4ba83a1461036e578063485cc955146103855780634c38abdc146103ae5780634c55b7de146103d7576101e3565b80631fa8d0ba116101b65780631fa8d0ba146102b6578063237e6d64146102f35780632d88af4a1461031c578063383a0d5314610345576101e3565b806302800ebd146101e857806302bf2e5e1461022557806307995509146102505780631a5289a914610279575b600080fd5b3480156101f457600080fd5b5061020f600480360381019061020a9190613354565b61074f565b60405161021c91906133a3565b60405180910390f35b34801561023157600080fd5b5061023a610774565b604051610247919061341d565b60405180910390f35b34801561025c57600080fd5b5061027760048036038101906102729190613549565b61079a565b005b34801561028557600080fd5b506102a0600480360381019061029b9190613632565b61085f565b6040516102ad91906133a3565b60405180910390f35b3480156102c257600080fd5b506102dd60048036038101906102d89190613685565b610891565b6040516102ea91906136cd565b60405180910390f35b3480156102ff57600080fd5b5061031a600480360381019061031591906136e8565b610974565b005b34801561032857600080fd5b50610343600480360381019061033e9190613685565b610b24565b005b34801561035157600080fd5b5061036c60048036038101906103679190613685565b610c3b565b005b34801561037a57600080fd5b5061038361101e565b005b34801561039157600080fd5b506103ac60048036038101906103a791906136e8565b6110f0565b005b3480156103ba57600080fd5b506103d560048036038101906103d09190613766565b61138c565b005b3480156103e357600080fd5b506103ec611499565b6040516103f991906137a2565b60405180910390f35b61041c600480360381019061041791906138fe565b6114bf565b005b34801561042a57600080fd5b506104336114de565b6040516104409190613973565b60405180910390f35b34801561045557600080fd5b50610470600480360381019061046b9190613354565b611511565b005b34801561047e57600080fd5b5061048761154f565b60405161049491906136cd565b60405180910390f35b3480156104a957600080fd5b506104b2611574565b005b3480156104c057600080fd5b506104db60048036038101906104d69190613685565b611588565b005b3480156104e957600080fd5b506104f261167d565b005b34801561050057600080fd5b5061050961174f565b60405161051691906137a2565b60405180910390f35b34801561052b57600080fd5b50610546600480360381019061054191906139cc565b611787565b005b34801561055457600080fd5b5061056f600480360381019061056a9190613a25565b611965565b005b34801561057d57600080fd5b50610586611be0565b60405161059391906137a2565b60405180910390f35b3480156105a857600080fd5b506105c360048036038101906105be9190613354565b611c06565b005b3480156105d157600080fd5b506105da611ca3565b6040516105e791906137a2565b60405180910390f35b3480156105fc57600080fd5b50610605611cc9565b6040516106129190613af7565b60405180910390f35b34801561062757600080fd5b50610642600480360381019061063d9190613685565b611d02565b60405161064f91906137a2565b60405180910390f35b34801561066457600080fd5b5061067f600480360381019061067a91906136e8565b611d35565b60405161068c9190613973565b60405180910390f35b3480156106a157600080fd5b506106bc60048036038101906106b79190613685565b611d5a565b005b3480156106ca57600080fd5b506106e560048036038101906106e09190613685565b611de0565b6040516106f291906133a3565b60405180910390f35b34801561070757600080fd5b50610710611df8565b60405161071d9190613b3a565b60405180910390f35b34801561073257600080fd5b5061074d60048036038101906107489190613bab565b611e1e565b005b6001602052816000526040600020602052806000526040600020600091509150505481565b600660009054906101000a900473ffffffffffffffffffffffffffffffffffffffff1681565b6107a26123cb565b60005b88889050811015610854576108478989838181106107c6576107c5613c33565b5b90506020020160208101906107db9190613685565b8888848181106107ee576107ed613c33565b5b90506020020160208101906108039190613685565b87878581811061081657610815613c33565b5b905060200201358686868181106108305761082f613c33565b5b90506020028101906108429190613c71565b611e1e565b80806001019150506107a5565b505050505050505050565b600860205282600052604060002060205281600052604060002060205280600052604060002060009250925050505481565b6000600360009054906101000a900473ffffffffffffffffffffffffffffffffffffffff1673ffffffffffffffffffffffffffffffffffffffff1663cafef3b56000808573ffffffffffffffffffffffffffffffffffffffff1673ffffffffffffffffffffffffffffffffffffffff168152602001908152602001600020546040518263ffffffff1660e01b815260040161092c91906133a3565b602060405180830381865afa158015610949573d6000803e3d6000fd5b505050506040513d601f19601f8201168201806040525081019061096d9190613d00565b9050919050565b61097c61240c565b600073ffffffffffffffffffffffffffffffffffffffff168273ffffffffffffffffffffffffffffffffffffffff16036109e2576040517ff9b15ead00000000000000000000000000000000000000000000000000000000815260040160405180910390fd5b600073ffffffffffffffffffffffffffffffffffffffff168173ffffffffffffffffffffffffffffffffffffffff1603610a48576040517f8d3a04cf00000000000000000000000000000000000000000000000000000000815260040160405180910390fd5b80600260008473ffffffffffffffffffffffffffffffffffffffff1673ffffffffffffffffffffffffffffffffffffffff16815260200190815260200160002060006101000a81548173ffffffffffffffffffffffffffffffffffffffff021916908373ffffffffffffffffffffffffffffffffffffffff1602179055508073ffffffffffffffffffffffffffffffffffffffff168273ffffffffffffffffffffffffffffffffffffffff167fb980a40e5b6e992493967c8460db4d84575ad3246c3a17141fa7756ae4dd718060405160405180910390a35050565b610b2c61240c565b600073ffffffffffffffffffffffffffffffffffffffff168173ffffffffffffffffffffffffffffffffffffffff1603610b92576040517f9bf684d500000000000000000000000000000000000000000000000000000000815260040160405180910390fd5b80600960006101000a81548173ffffffffffffffffffffffffffffffffffffffff021916908373ffffffffffffffffffffffffffffffffffffffff160217905550600960009054906101000a900473ffffffffffffffffffffffffffffffffffffffff1673ffffffffffffffffffffffffffffffffffffffff167fe02efb9e8f0fc21546730ab32d594f62d586e1bbb15bb5045edd0b1878a77b3560405160405180910390a250565b600460009054906101000a900473ffffffffffffffffffffffffffffffffffffffff1673ffffffffffffffffffffffffffffffffffffffff163373ffffffffffffffffffffffffffffffffffffffff161480610cc95750610c9a61174f565b73ffffffffffffffffffffffffffffffffffffffff163373ffffffffffffffffffffffffffffffffffffffff16145b610cff576040517f82b4290000000000000000000000000000000000000000000000000000000000815260040160405180910390fd5b60008060008373ffffffffffffffffffffffffffffffffffffffff1673ffffffffffffffffffffffffffffffffffffffff1681526020019081526020016000206000815480929190610d5090613d5c565b9190505590506000600560009054906101000a900473ffffffffffffffffffffffffffffffffffffffff1673ffffffffffffffffffffffffffffffffffffffff166370a08231306040518263ffffffff1660e01b8152600401610db391906137a2565b602060405180830381865afa158015610dd0573d6000803e3d6000fd5b505050506040513d601f19601f82011682018060405250810190610df49190613db9565b9050600260008473ffffffffffffffffffffffffffffffffffffffff1673ffffffffffffffffffffffffffffffffffffffff16815260200190815260200160002060009054906101000a900473ffffffffffffffffffffffffffffffffffffffff1673ffffffffffffffffffffffffffffffffffffffff16634d0392a8836040518263ffffffff1660e01b8152600401610e8e91906133a3565b600060405180830381600087803b158015610ea857600080fd5b505af1158015610ebc573d6000803e3d6000fd5b505050506000600560009054906101000a900473ffffffffffffffffffffffffffffffffffffffff1673ffffffffffffffffffffffffffffffffffffffff166370a08231306040518263ffffffff1660e01b8152600401610f1d91906137a2565b602060405180830381865afa158015610f3a573d6000803e3d6000fd5b505050506040513d601f19601f82011682018060405250810190610f5e9190613db9565b90508181610f6c9190613de6565b600160008673ffffffffffffffffffffffffffffffffffffffff1673ffffffffffffffffffffffffffffffffffffffff1681526020019081526020016000206000858152602001908152602001600020819055508373ffffffffffffffffffffffffffffffffffffffff167e703dec1352f06629844a1575eb327cd01fd616d236d2394468fa6f410b331583836110039190613de6565b60405161101091906133a3565b60405180910390a250505050565b600960009054906101000a900473ffffffffffffffffffffffffffffffffffffffff1673ffffffffffffffffffffffffffffffffffffffff163373ffffffffffffffffffffffffffffffffffffffff16141580156110af575061107f61174f565b73ffffffffffffffffffffffffffffffffffffffff163373ffffffffffffffffffffffffffffffffffffffff1614155b156110e6576040517f492f678100000000000000000000000000000000000000000000000000000000815260040160405180910390fd5b6110ee612493565b565b60006110fa612505565b905060008160000160089054906101000a900460ff1615905060008260000160009054906101000a900467ffffffffffffffff1690506000808267ffffffffffffffff161480156111485750825b9050600060018367ffffffffffffffff1614801561117d575060003073ffffffffffffffffffffffffffffffffffffffff163b145b90508115801561118b575080155b156111c2576040517ff92ee8a900000000000000000000000000000000000000000000000000000000815260040160405180910390fd5b60018560000160006101000a81548167ffffffffffffffff021916908367ffffffffffffffff16021790555083156112125760018560000160086101000a81548160ff0219169083151502179055505b61121b8761252d565b600073ffffffffffffffffffffffffffffffffffffffff168673ffffffffffffffffffffffffffffffffffffffff1603611281576040517f9bf684d500000000000000000000000000000000000000000000000000000000815260040160405180910390fd5b85600960006101000a81548173ffffffffffffffffffffffffffffffffffffffff021916908373ffffffffffffffffffffffffffffffffffffffff160217905550600960009054906101000a900473ffffffffffffffffffffffffffffffffffffffff1673ffffffffffffffffffffffffffffffffffffffff167fe02efb9e8f0fc21546730ab32d594f62d586e1bbb15bb5045edd0b1878a77b3560405160405180910390a283156113835760008560000160086101000a81548160ff0219169083151502179055507fc7f505b2f371ae2175ee4913f4499e1f2633a7b5936321eed1cdaeb6115181d2600160405161137a9190613e69565b60405180910390a15b50505050505050565b61139461240c565b600073ffffffffffffffffffffffffffffffffffffffff168173ffffffffffffffffffffffffffffffffffffffff16036113fa576040517f8af876c800000000000000000000000000000000000000000000000000000000815260040160405180910390fd5b7f3e112a70d9e61627a86a4eeb48931a175d68c34ce3c3d6ab902b14699d9e1c2d600660009054906101000a900473ffffffffffffffffffffffffffffffffffffffff168260405161144d929190613e84565b60405180910390a180600660006101000a81548173ffffffffffffffffffffffffffffffffffffffff021916908373ffffffffffffffffffffffffffffffffffffffff16021790555050565b600560009054906101000a900473ffffffffffffffffffffffffffffffffffffffff1681565b6114c761262b565b6114d082612711565b6114da828261271c565b5050565b60006114e861283b565b7f360894a13ba1a3210667c828492db98dca3e2076cc3735a920a3ca505d382bbc60001b905090565b61151961240c565b61154b61152461174f565b828473ffffffffffffffffffffffffffffffffffffffff166128c29092919063ffffffff16565b5050565b60008061155a612941565b90508060000160009054906101000a900460ff1691505090565b61157c61240c565b6115866000612969565b565b61159061240c565b600073ffffffffffffffffffffffffffffffffffffffff168173ffffffffffffffffffffffffffffffffffffffff16036115f6576040517fd641917000000000000000000000000000000000000000000000000000000000815260040160405180910390fd5b80600460006101000a81548173ffffffffffffffffffffffffffffffffffffffff021916908373ffffffffffffffffffffffffffffffffffffffff1602179055508073ffffffffffffffffffffffffffffffffffffffff167fefb5cfa1a8690c124332ab93324539c5c9c4be03f28aeb8be86f2d8a0c9fb99b60405160405180910390a250565b600960009054906101000a900473ffffffffffffffffffffffffffffffffffffffff1673ffffffffffffffffffffffffffffffffffffffff163373ffffffffffffffffffffffffffffffffffffffff161415801561170e57506116de61174f565b73ffffffffffffffffffffffffffffffffffffffff163373ffffffffffffffffffffffffffffffffffffffff1614155b15611745576040517f492f678100000000000000000000000000000000000000000000000000000000815260040160405180910390fd5b61174d612a40565b565b60008061175a612ab2565b90508060000160009054906101000a900473ffffffffffffffffffffffffffffffffffffffff1691505090565b61178f61240c565b600073ffffffffffffffffffffffffffffffffffffffff168173ffffffffffffffffffffffffffffffffffffffff16036117f5576040517f48b5fe0600000000000000000000000000000000000000000000000000000000815260040160405180910390fd5b7f9fdb07212c6f92fd298affc4000712177664bc3c4cae5f61098d42da6d05be1e600360009054906101000a900473ffffffffffffffffffffffffffffffffffffffff1682604051611848929190613e84565b60405180910390a180600360006101000a81548173ffffffffffffffffffffffffffffffffffffffff021916908373ffffffffffffffffffffffffffffffffffffffff160217905550600360009054906101000a900473ffffffffffffffffffffffffffffffffffffffff1673ffffffffffffffffffffffffffffffffffffffff16634c55b7de6040518163ffffffff1660e01b8152600401602060405180830381865afa1580156118fe573d6000803e3d6000fd5b505050506040513d601f19601f820116820180604052508101906119229190613ec2565b600560006101000a81548173ffffffffffffffffffffffffffffffffffffffff021916908373ffffffffffffffffffffffffffffffffffffffff16021790555050565b600460009054906101000a900473ffffffffffffffffffffffffffffffffffffffff1673ffffffffffffffffffffffffffffffffffffffff163373ffffffffffffffffffffffffffffffffffffffff1614806119f357506119c461174f565b73ffffffffffffffffffffffffffffffffffffffff163373ffffffffffffffffffffffffffffffffffffffff16145b611a29576040517f82b4290000000000000000000000000000000000000000000000000000000000815260040160405180910390fd5b600073ffffffffffffffffffffffffffffffffffffffff168373ffffffffffffffffffffffffffffffffffffffff1603611a8f576040517ff9b15ead00000000000000000000000000000000000000000000000000000000815260040160405180910390fd5b600073ffffffffffffffffffffffffffffffffffffffff168273ffffffffffffffffffffffffffffffffffffffff1603611af5576040517f14f28f2b00000000000000000000000000000000000000000000000000000000815260040160405180910390fd5b80600760008573ffffffffffffffffffffffffffffffffffffffff1673ffffffffffffffffffffffffffffffffffffffff16815260200190815260200160002060008473ffffffffffffffffffffffffffffffffffffffff1673ffffffffffffffffffffffffffffffffffffffff168152602001908152602001600020819055508173ffffffffffffffffffffffffffffffffffffffff168373ffffffffffffffffffffffffffffffffffffffff167f7856aa6c22215500fc74b4dcc7eee10e3d95a70e252521468d7218a0425f5dab83604051611bd39190613973565b60405180910390a3505050565b600960009054906101000a900473ffffffffffffffffffffffffffffffffffffffff1681565b611c0e61240c565b806000808473ffffffffffffffffffffffffffffffffffffffff1673ffffffffffffffffffffffffffffffffffffffff168152602001908152602001600020819055508173ffffffffffffffffffffffffffffffffffffffff167fe86ed049b5d71416d6cb2ba84637b8c149c2c5c731523d36388511500c7152b182604051611c9791906133a3565b60405180910390a25050565b600460009054906101000a900473ffffffffffffffffffffffffffffffffffffffff1681565b6040518060400160405280600581526020017f352e302e3000000000000000000000000000000000000000000000000000000081525081565b60026020528060005260406000206000915054906101000a900473ffffffffffffffffffffffffffffffffffffffff1681565b6007602052816000526040600020602052806000526040600020600091509150505481565b611d6261240c565b600073ffffffffffffffffffffffffffffffffffffffff168173ffffffffffffffffffffffffffffffffffffffff1603611dd45760006040517f1e4fbdf7000000000000000000000000000000000000000000000000000000008152600401611dcb91906137a2565b60405180910390fd5b611ddd81612969565b50565b60006020528060005260406000206000915090505481565b600360009054906101000a900473ffffffffffffffffffffffffffffffffffffffff1681565b611e266123cb565b82600860008773ffffffffffffffffffffffffffffffffffffffff1673ffffffffffffffffffffffffffffffffffffffff16815260200190815260200160002060008673ffffffffffffffffffffffffffffffffffffffff1673ffffffffffffffffffffffffffffffffffffffff16815260200190815260200160002060003373ffffffffffffffffffffffffffffffffffffffff1673ffffffffffffffffffffffffffffffffffffffff1681526020019081526020016000206000828254611eef9190613eef565b92505081905550600033600860008873ffffffffffffffffffffffffffffffffffffffff1673ffffffffffffffffffffffffffffffffffffffff16815260200190815260200160002060008773ffffffffffffffffffffffffffffffffffffffff1673ffffffffffffffffffffffffffffffffffffffff16815260200190815260200160002060003373ffffffffffffffffffffffffffffffffffffffff1673ffffffffffffffffffffffffffffffffffffffff16815260200190815260200160002054604051602001611fc4929190613f8c565b6040516020818303038152906040528051906020012090506120648383600760008a73ffffffffffffffffffffffffffffffffffffffff1673ffffffffffffffffffffffffffffffffffffffff16815260200190815260200160002060008973ffffffffffffffffffffffffffffffffffffffff1673ffffffffffffffffffffffffffffffffffffffff1681526020019081526020016000205484612ada565b61209a576040517f09bde33900000000000000000000000000000000000000000000000000000000815260040160405180910390fd5b600560009054906101000a900473ffffffffffffffffffffffffffffffffffffffff1673ffffffffffffffffffffffffffffffffffffffff168573ffffffffffffffffffffffffffffffffffffffff160361231b57600066470de4df8200008511612106576000612114565b6002856121139190613fe7565b5b9050600081866121249190613de6565b905060008211156122e95761219e600660009054906101000a900473ffffffffffffffffffffffffffffffffffffffff1683600560009054906101000a900473ffffffffffffffffffffffffffffffffffffffff1673ffffffffffffffffffffffffffffffffffffffff16612af39092919063ffffffff16565b600660009054906101000a900473ffffffffffffffffffffffffffffffffffffffff1673ffffffffffffffffffffffffffffffffffffffff1663b6b55f25836040518263ffffffff1660e01b81526004016121f991906133a3565b600060405180830381600087803b15801561221357600080fd5b505af1158015612227573d6000803e3d6000fd5b505050506122e83383600660009054906101000a900473ffffffffffffffffffffffffffffffffffffffff1673ffffffffffffffffffffffffffffffffffffffff1663075461726040518163ffffffff1660e01b81526004016020604051808303816000875af115801561229f573d6000803e3d6000fd5b505050506040513d601f19601f820116820180604052508101906122c39190613ec2565b73ffffffffffffffffffffffffffffffffffffffff166128c29092919063ffffffff16565b5b61231433828973ffffffffffffffffffffffffffffffffffffffff166128c29092919063ffffffff16565b5050612347565b61234633858773ffffffffffffffffffffffffffffffffffffffff166128c29092919063ffffffff16565b5b8473ffffffffffffffffffffffffffffffffffffffff168673ffffffffffffffffffffffffffffffffffffffff163373ffffffffffffffffffffffffffffffffffffffff167f2422cac5e23c46c890fdcf42d0c64757409df6832174df639337558f09d99c68876040516123bb91906133a3565b60405180910390a4505050505050565b6123d361154f565b1561240a576040517fd93c066500000000000000000000000000000000000000000000000000000000815260040160405180910390fd5b565b612414612b8f565b73ffffffffffffffffffffffffffffffffffffffff1661243261174f565b73ffffffffffffffffffffffffffffffffffffffff161461249157612455612b8f565b6040517f118cdaa700000000000000000000000000000000000000000000000000000000815260040161248891906137a2565b60405180910390fd5b565b61249b612b97565b60006124a5612941565b905060008160000160006101000a81548160ff0219169083151502179055507f5db9ee0a495bf2e6ff9c91a7834c1ba4fdd244a5e8aa4e537bd38aeae4b073aa6124ed612b8f565b6040516124fa91906137a2565b60405180910390a150565b60007ff0c57e16840df040f15088dc2f81fe391c3923bec73e23a9662efc9c229c6a00905090565b612535612bd7565b61253e33612c17565b600073ffffffffffffffffffffffffffffffffffffffff168173ffffffffffffffffffffffffffffffffffffffff16036125a4576040517fd641917000000000000000000000000000000000000000000000000000000000815260040160405180910390fd5b80600460006101000a81548173ffffffffffffffffffffffffffffffffffffffff021916908373ffffffffffffffffffffffffffffffffffffffff1602179055508073ffffffffffffffffffffffffffffffffffffffff167fefb5cfa1a8690c124332ab93324539c5c9c4be03f28aeb8be86f2d8a0c9fb99b60405160405180910390a250565b7f000000000000000000000000000000000000000000000000000000000000000073ffffffffffffffffffffffffffffffffffffffff163073ffffffffffffffffffffffffffffffffffffffff1614806126d857507f000000000000000000000000000000000000000000000000000000000000000073ffffffffffffffffffffffffffffffffffffffff166126bf612c2b565b73ffffffffffffffffffffffffffffffffffffffff1614155b1561270f576040517fe07c8dba00000000000000000000000000000000000000000000000000000000815260040160405180910390fd5b565b61271961240c565b50565b8173ffffffffffffffffffffffffffffffffffffffff166352d1902d6040518163ffffffff1660e01b8152600401602060405180830381865afa92505050801561278457506040513d601f19601f82011682018060405250810190612781919061402d565b60015b6127c557816040517f4c9c8ce30000000000000000000000000000000000000000000000000000000081526004016127bc91906137a2565b60405180910390fd5b7f360894a13ba1a3210667c828492db98dca3e2076cc3735a920a3ca505d382bbc60001b811461282c57806040517faa1d49a40000000000000000000000000000000000000000000000000000000081526004016128239190613973565b60405180910390fd5b6128368383612c82565b505050565b7f000000000000000000000000000000000000000000000000000000000000000073ffffffffffffffffffffffffffffffffffffffff163073ffffffffffffffffffffffffffffffffffffffff16146128c0576040517fe07c8dba00000000000000000000000000000000000000000000000000000000815260040160405180910390fd5b565b61293c838473ffffffffffffffffffffffffffffffffffffffff1663a9059cbb85856040516024016128f592919061405a565b604051602081830303815290604052915060e01b6020820180517bffffffffffffffffffffffffffffffffffffffffffffffffffffffff8381831617835250505050612cf5565b505050565b60007fcd5ed15c6e187e77e9aee88184c21f4f2182ab5827cb3b7e07fbedcd63f03300905090565b6000612973612ab2565b905060008160000160009054906101000a900473ffffffffffffffffffffffffffffffffffffffff169050828260000160006101000a81548173ffffffffffffffffffffffffffffffffffffffff021916908373ffffffffffffffffffffffffffffffffffffffff1602179055508273ffffffffffffffffffffffffffffffffffffffff168173ffffffffffffffffffffffffffffffffffffffff167f8be0079c531659141344cd1fd0a4f28419497f9722a3daafe3b4186f6b6457e060405160405180910390a3505050565b612a486123cb565b6000612a52612941565b905060018160000160006101000a81548160ff0219169083151502179055507f62e78cea01bee320cd4e420270b5ea74000d11b0c9f74754ebdbfc544b05a258612a9a612b8f565b604051612aa791906137a2565b60405180910390a150565b60007f9016d09d72d40fdae2fd8ceac6b6234c7706214fd39c1cd1e609a0528c199300905090565b600082612ae8868685612d97565b149050949350505050565b60008373ffffffffffffffffffffffffffffffffffffffff1663dd62ed3e30856040518363ffffffff1660e01b8152600401612b30929190613e84565b602060405180830381865afa158015612b4d573d6000803e3d6000fd5b505050506040513d601f19601f82011682018060405250810190612b719190613db9565b9050612b8984848484612b849190613eef565b612de9565b50505050565b600033905090565b612b9f61154f565b612bd5576040517f8dfc202b00000000000000000000000000000000000000000000000000000000815260040160405180910390fd5b565b612bdf612ef8565b612c15576040517fd7e6bcf800000000000000000000000000000000000000000000000000000000815260040160405180910390fd5b565b612c1f612bd7565b612c2881612f18565b50565b6000612c597f360894a13ba1a3210667c828492db98dca3e2076cc3735a920a3ca505d382bbc60001b612f9e565b60000160009054906101000a900473ffffffffffffffffffffffffffffffffffffffff16905090565b612c8b82612fa8565b8173ffffffffffffffffffffffffffffffffffffffff167fbc7cd75a20ee27fd9adebab32041f755214dbc6bffa90cc0225b39da2e5c2d3b60405160405180910390a2600081511115612ce857612ce28282613075565b50612cf1565b612cf06130f9565b5b5050565b600080602060008451602086016000885af180612d18576040513d6000823e3d81fd5b3d925060005191505060008214612d33576001811415612d4f565b60008473ffffffffffffffffffffffffffffffffffffffff163b145b15612d9157836040517f5274afe7000000000000000000000000000000000000000000000000000000008152600401612d8891906137a2565b60405180910390fd5b50505050565b60008082905060005b85859050811015612ddd57612dce82878784818110612dc257612dc1613c33565b5b90506020020135613136565b91508080600101915050612da0565b50809150509392505050565b60008373ffffffffffffffffffffffffffffffffffffffff1663095ea7b38484604051602401612e1a92919061405a565b604051602081830303815290604052915060e01b6020820180517bffffffffffffffffffffffffffffffffffffffffffffffffffffffff83818316178352505050509050612e688482613161565b612ef257612ee7848573ffffffffffffffffffffffffffffffffffffffff1663095ea7b3866000604051602401612ea09291906140be565b604051602081830303815290604052915060e01b6020820180517bffffffffffffffffffffffffffffffffffffffffffffffffffffffff8381831617835250505050612cf5565b612ef18482612cf5565b5b50505050565b6000612f02612505565b60000160089054906101000a900460ff16905090565b612f20612bd7565b600073ffffffffffffffffffffffffffffffffffffffff168173ffffffffffffffffffffffffffffffffffffffff1603612f925760006040517f1e4fbdf7000000000000000000000000000000000000000000000000000000008152600401612f8991906137a2565b60405180910390fd5b612f9b81612969565b50565b6000819050919050565b60008173ffffffffffffffffffffffffffffffffffffffff163b0361300457806040517f4c9c8ce3000000000000000000000000000000000000000000000000000000008152600401612ffb91906137a2565b60405180910390fd5b806130317f360894a13ba1a3210667c828492db98dca3e2076cc3735a920a3ca505d382bbc60001b612f9e565b60000160006101000a81548173ffffffffffffffffffffffffffffffffffffffff021916908373ffffffffffffffffffffffffffffffffffffffff16021790555050565b60606000808473ffffffffffffffffffffffffffffffffffffffff168460405161309f919061412e565b600060405180830381855af49150503d80600081146130da576040519150601f19603f3d011682016040523d82523d6000602084013e6130df565b606091505b50915091506130ef8583836131c1565b9250505092915050565b6000341115613134576040517fb398979f00000000000000000000000000000000000000000000000000000000815260040160405180910390fd5b565b600081831061314e576131498284613250565b613159565b6131588383613250565b5b905092915050565b6000806000806020600086516020880160008a5af192503d915060005190508280156131b657506000821461319957600181146131b5565b60008673ffffffffffffffffffffffffffffffffffffffff163b115b5b935050505092915050565b6060826131d6576131d182613267565b613248565b600082511480156131fe575060008473ffffffffffffffffffffffffffffffffffffffff163b145b1561324057836040517f9996b31500000000000000000000000000000000000000000000000000000000815260040161323791906137a2565b60405180910390fd5b819050613249565b5b9392505050565b600082600052816020526040600020905092915050565b60008151111561327a5780518082602001fd5b6040517fd6bda27500000000000000000000000000000000000000000000000000000000815260040160405180910390fd5b6000604051905090565b600080fd5b600080fd5b600073ffffffffffffffffffffffffffffffffffffffff82169050919050565b60006132eb826132c0565b9050919050565b6132fb816132e0565b811461330657600080fd5b50565b600081359050613318816132f2565b92915050565b6000819050919050565b6133318161331e565b811461333c57600080fd5b50565b60008135905061334e81613328565b92915050565b6000806040838503121561336b5761336a6132b6565b5b600061337985828601613309565b925050602061338a8582860161333f565b9150509250929050565b61339d8161331e565b82525050565b60006020820190506133b86000830184613394565b92915050565b6000819050919050565b60006133e36133de6133d9846132c0565b6133be565b6132c0565b9050919050565b60006133f5826133c8565b9050919050565b6000613407826133ea565b9050919050565b613417816133fc565b82525050565b6000602082019050613432600083018461340e565b92915050565b600080fd5b600080fd5b600080fd5b60008083601f84011261345d5761345c613438565b5b8235905067ffffffffffffffff81111561347a5761347961343d565b5b60208301915083602082028301111561349657613495613442565b5b9250929050565b60008083601f8401126134b3576134b2613438565b5b8235905067ffffffffffffffff8111156134d0576134cf61343d565b5b6020830191508360208202830111156134ec576134eb613442565b5b9250929050565b60008083601f84011261350957613508613438565b5b8235905067ffffffffffffffff8111156135265761352561343d565b5b60208301915083602082028301111561354257613541613442565b5b9250929050565b6000806000806000806000806080898b031215613569576135686132b6565b5b600089013567ffffffffffffffff811115613587576135866132bb565b5b6135938b828c01613447565b9850985050602089013567ffffffffffffffff8111156135b6576135b56132bb565b5b6135c28b828c01613447565b9650965050604089013567ffffffffffffffff8111156135e5576135e46132bb565b5b6135f18b828c0161349d565b9450945050606089013567ffffffffffffffff811115613614576136136132bb565b5b6136208b828c016134f3565b92509250509295985092959890939650565b60008060006060848603121561364b5761364a6132b6565b5b600061365986828701613309565b935050602061366a86828701613309565b925050604061367b86828701613309565b9150509250925092565b60006020828403121561369b5761369a6132b6565b5b60006136a984828501613309565b91505092915050565b60008115159050919050565b6136c7816136b2565b82525050565b60006020820190506136e260008301846136be565b92915050565b600080604083850312156136ff576136fe6132b6565b5b600061370d85828601613309565b925050602061371e85828601613309565b9150509250929050565b6000613733826132e0565b9050919050565b61374381613728565b811461374e57600080fd5b50565b6000813590506137608161373a565b92915050565b60006020828403121561377c5761377b6132b6565b5b600061378a84828501613751565b91505092915050565b61379c816132e0565b82525050565b60006020820190506137b76000830184613793565b92915050565b600080fd5b6000601f19601f8301169050919050565b7f4e487b7100000000000000000000000000000000000000000000000000000000600052604160045260246000fd5b61380b826137c2565b810181811067ffffffffffffffff8211171561382a576138296137d3565b5b80604052505050565b600061383d6132ac565b90506138498282613802565b919050565b600067ffffffffffffffff821115613869576138686137d3565b5b613872826137c2565b9050602081019050919050565b82818337600083830152505050565b60006138a161389c8461384e565b613833565b9050828152602081018484840111156138bd576138bc6137bd565b5b6138c884828561387f565b509392505050565b600082601f8301126138e5576138e4613438565b5b81356138f584826020860161388e565b91505092915050565b60008060408385031215613915576139146132b6565b5b600061392385828601613309565b925050602083013567ffffffffffffffff811115613944576139436132bb565b5b613950858286016138d0565b9150509250929050565b6000819050919050565b61396d8161395a565b82525050565b60006020820190506139886000830184613964565b92915050565b6000613999826132e0565b9050919050565b6139a98161398e565b81146139b457600080fd5b50565b6000813590506139c6816139a0565b92915050565b6000602082840312156139e2576139e16132b6565b5b60006139f0848285016139b7565b91505092915050565b613a028161395a565b8114613a0d57600080fd5b50565b600081359050613a1f816139f9565b92915050565b600080600060608486031215613a3e57613a3d6132b6565b5b6000613a4c86828701613309565b9350506020613a5d86828701613309565b9250506040613a6e86828701613a10565b9150509250925092565b600081519050919050565b600082825260208201905092915050565b60005b83811015613ab2578082015181840152602081019050613a97565b60008484015250505050565b6000613ac982613a78565b613ad38185613a83565b9350613ae3818560208601613a94565b613aec816137c2565b840191505092915050565b60006020820190508181036000830152613b118184613abe565b905092915050565b6000613b24826133ea565b9050919050565b613b3481613b19565b82525050565b6000602082019050613b4f6000830184613b2b565b92915050565b60008083601f840112613b6b57613b6a613438565b5b8235905067ffffffffffffffff811115613b8857613b8761343d565b5b602083019150836020820283011115613ba457613ba3613442565b5b9250929050565b600080600080600060808688031215613bc757613bc66132b6565b5b6000613bd588828901613309565b9550506020613be688828901613309565b9450506040613bf78882890161333f565b935050606086013567ffffffffffffffff811115613c1857613c176132bb565b5b613c2488828901613b55565b92509250509295509295909350565b7f4e487b7100000000000000000000000000000000000000000000000000000000600052603260045260246000fd5b600080fd5b600080fd5b600080fd5b60008083356001602003843603038112613c8e57613c8d613c62565b5b80840192508235915067ffffffffffffffff821115613cb057613caf613c67565b5b602083019250602082023603831315613ccc57613ccb613c6c565b5b509250929050565b613cdd816136b2565b8114613ce857600080fd5b50565b600081519050613cfa81613cd4565b92915050565b600060208284031215613d1657613d156132b6565b5b6000613d2484828501613ceb565b91505092915050565b7f4e487b7100000000000000000000000000000000000000000000000000000000600052601160045260246000fd5b6000613d678261331e565b91507fffffffffffffffffffffffffffffffffffffffffffffffffffffffffffffffff8203613d9957613d98613d2d565b5b600182019050919050565b600081519050613db381613328565b92915050565b600060208284031215613dcf57613dce6132b6565b5b6000613ddd84828501613da4565b91505092915050565b6000613df18261331e565b9150613dfc8361331e565b9250828203905081811115613e1457613e13613d2d565b5b92915050565b6000819050919050565b600067ffffffffffffffff82169050919050565b6000613e53613e4e613e4984613e1a565b6133be565b613e24565b9050919050565b613e6381613e38565b82525050565b6000602082019050613e7e6000830184613e5a565b92915050565b6000604082019050613e996000830185613793565b613ea66020830184613793565b9392505050565b600081519050613ebc816132f2565b92915050565b600060208284031215613ed857613ed76132b6565b5b6000613ee684828501613ead565b91505092915050565b6000613efa8261331e565b9150613f058361331e565b9250828201905080821115613f1d57613f1c613d2d565b5b92915050565b60008160601b9050919050565b6000613f3b82613f23565b9050919050565b6000613f4d82613f30565b9050919050565b613f65613f60826132e0565b613f42565b82525050565b6000819050919050565b613f86613f818261331e565b613f6b565b82525050565b6000613f988285613f54565b601482019150613fa88284613f75565b6020820191508190509392505050565b7f4e487b7100000000000000000000000000000000000000000000000000000000600052601260045260246000fd5b6000613ff28261331e565b9150613ffd8361331e565b92508261400d5761400c613fb8565b5b828204905092915050565b600081519050614027816139f9565b92915050565b600060208284031215614043576140426132b6565b5b600061405184828501614018565b91505092915050565b600060408201905061406f6000830185613793565b61407c6020830184613394565b9392505050565b6000819050919050565b60006140a86140a361409e84614083565b6133be565b61331e565b9050919050565b6140b88161408d565b82525050565b60006040820190506140d36000830185613793565b6140e060208301846140af565b9392505050565b600081519050919050565b600081905092915050565b6000614108826140e7565b61411281856140f2565b9350614122818560208601613a94565b80840191505092915050565b600061413a82846140fd565b91508190509291505056fea2646970667358221220ed4e32f09539710f2638b30068ff18977e07b5ce5531590bf463b2e3fec46c1e64736f6c634300081b0033",
  "devdoc": {
    "details": "In order to distribute token rewards for an orange vault, the reward amounts need to be calculated for the vault depositors off- chain. The total reward amount should be sent to the distributor contract, either by calling pullNext for syk rewards or transferring the tokens directly to the distributor. A merkle root then needs to be  calculated based on the amount of tokens that are to be distributed to each vault depositor (this is performed off chain) and sent to the  distributor contract via updateMerkleRoot",
    "errors": {
      "AddressEmptyCode(address)": [
        {
          "details": "There's no code at `target` (it is not a contract)."
        }
      ],
      "ERC1967InvalidImplementation(address)": [
        {
          "details": "The `implementation` of the proxy is invalid."
        }
      ],
      "ERC1967NonPayable()": [
        {
          "details": "An upgrade function sees `msg.value > 0` that may be lost."
        }
      ],
      "EnforcedPause()": [
        {
          "details": "The operation failed because the contract is paused."
        }
      ],
      "ExpectedPause()": [
        {
          "details": "The operation failed because the contract is not paused."
        }
      ],
      "FailedCall()": [
        {
          "details": "A call to an address target failed. The target may have reverted."
        }
      ],
      "InvalidInitialization()": [
        {
          "details": "The contract is already initialized."
        }
      ],
      "NotInitializing()": [
        {
          "details": "The contract is not initializing."
        }
      ],
      "OwnableInvalidOwner(address)": [
        {
          "details": "The owner is not a valid owner account. (eg. `address(0)`)"
        }
      ],
      "OwnableUnauthorizedAccount(address)": [
        {
          "details": "The caller account is not authorized to perform an operation."
        }
      ],
      "SafeERC20FailedOperation(address)": [
        {
          "details": "An operation with an ERC-20 token failed."
        }
      ],
      "UUPSUnauthorizedCallContext()": [
        {
          "details": "The call is from an unauthorized context."
        }
      ],
      "UUPSUnsupportedProxiableUUID(bytes32)": [
        {
          "details": "The storage `slot` is unsupported as a UUID."
        }
      ]
    },
    "events": {
      "Initialized(uint64)": {
        "details": "Triggered when the contract has been initialized or reinitialized."
      },
      "Paused(address)": {
        "details": "Emitted when the pause is triggered by `account`."
      },
      "Unpaused(address)": {
        "details": "Emitted when the pause is lifted by `account`."
      },
      "Upgraded(address)": {
        "details": "Emitted when the implementation is upgraded."
      }
    },
    "kind": "dev",
    "methods": {
      "claim(address,address,uint256,bytes32[])": {
        "params": {
          "_amount": "Amount of token to claim as reward",
          "_token": "The token to claim",
          "_vault": "The vault for which to claim rewards",
          "merkleProof": "Merkle proof"
        }
      },
      "constructor": {
        "custom:oz-upgrades-unsafe-allow": "constructor"
      },
      "owner()": {
        "details": "Returns the address of the current owner."
      },
      "paused()": {
        "details": "Returns true if the contract is paused, and false otherwise."
      },
      "proxiableUUID()": {
        "details": "Implementation of the ERC-1822 {proxiableUUID} function. This returns the storage slot used by the implementation. It is used to validate the implementation's compatibility when performing an upgrade. IMPORTANT: A proxy pointing at a proxiable contract should not be considered proxiable itself, because this risks bricking a proxy that upgrades to it, by delegating to itself until out of gas. Thus it is critical that this function revert if invoked through a proxy. This is guaranteed by the `notDelegated` modifier."
      },
      "renounceOwnership()": {
        "details": "Leaves the contract without owner. It will not be possible to call `onlyOwner` functions. Can only be called by the current owner. NOTE: Renouncing ownership will leave the contract without an owner, thereby disabling any functionality that is only available to the owner."
      },
      "setGauge(address,address)": {
        "details": "SYKPuller needs to be made the owner of the gauge, to allow pulling reward"
      },
      "transferOwnership(address)": {
        "details": "Transfers ownership of the contract to a new account (`newOwner`). Can only be called by the current owner."
      },
      "updateMerkleRoot(address,address,bytes32)": {
        "params": {
          "_merkleRoot": "New root for reward distribution",
          "_token": "The reward token for the vault",
          "_vault": "The vault whose token is to be distributed using the merkle root"
        }
      },
      "upgradeToAndCall(address,bytes)": {
        "custom:oz-upgrades-unsafe-allow-reachable": "delegatecall",
        "details": "Upgrade the implementation of the proxy to `newImplementation`, and subsequently execute the function call encoded in `data`. Calls {_authorizeUpgrade}. Emits an {Upgraded} event."
      }
    },
    "version": 1
  },
  "userdoc": {
    "kind": "user",
    "methods": {
      "batchClaim(address[],address[],uint256[],bytes32[][])": {
        "notice": "Claim multiple token rewards in a single call"
      },
      "canPullNext(address)": {
        "notice": "Check if the rewards for the next epoch can be pulled"
      },
      "claim(address,address,uint256,bytes32[])": {
        "notice": "Claim all the token rewards for a vault"
      },
      "emergencyWithdrawal(address,uint256)": {
        "notice": "Withdraw funds in case of emergency"
      },
      "pause()": {
        "notice": "Pause reward claims"
      },
      "pullNext(address)": {
        "notice": "Pull the rewards for the next epoch from the gauge"
      },
      "setGauge(address,address)": {
        "notice": "Set the gauge for an orange vault"
      },
      "setKeeper(address)": {
        "notice": "Update keeper address"
      },
      "setPauser(address)": {
        "notice": "Set pauser address"
      },
      "skipPulls(address,uint256)": {
        "notice": "Admin function to manually set the next epoch whose rewards will be pulled."
      },
      "unpause()": {
        "notice": "Unpause reward claims"
      },
      "updateMerkleRoot(address,address,bytes32)": {
        "notice": "Update the merkle root for the reward token distribution of a vault"
      }
    },
    "notice": "Contract for distributing token rewards to Orange vault depositors. The contract is able to distribute token rewards distributed by stryke via their gauges as well as any ERC20 token transferred to the OrangeDistributor contract",
    "version": 1
  },
  "storageLayout": {
    "storage": [
      {
        "astId": 4554,
        "contract": "contracts/OrangeDistributor.sol:OrangeDistributor",
        "label": "nextStrykeEpochToPull",
        "offset": 0,
        "slot": "0",
        "type": "t_mapping(t_address,t_uint256)"
      },
      {
        "astId": 4560,
        "contract": "contracts/OrangeDistributor.sol:OrangeDistributor",
        "label": "epochRewards",
        "offset": 0,
        "slot": "1",
        "type": "t_mapping(t_address,t_mapping(t_uint256,t_uint256))"
      },
      {
        "astId": 4564,
        "contract": "contracts/OrangeDistributor.sol:OrangeDistributor",
        "label": "gauges",
        "offset": 0,
        "slot": "2",
        "type": "t_mapping(t_address,t_address)"
      },
      {
        "astId": 4567,
        "contract": "contracts/OrangeDistributor.sol:OrangeDistributor",
        "label": "controller",
        "offset": 0,
        "slot": "3",
        "type": "t_contract(IGaugeController)5217"
      },
      {
        "astId": 4569,
        "contract": "contracts/OrangeDistributor.sol:OrangeDistributor",
        "label": "keeper",
        "offset": 0,
        "slot": "4",
        "type": "t_address"
      },
      {
        "astId": 4571,
        "contract": "contracts/OrangeDistributor.sol:OrangeDistributor",
        "label": "syk",
        "offset": 0,
        "slot": "5",
        "type": "t_address"
      },
      {
        "astId": 4071,
        "contract": "contracts/OrangeDistributor.sol:OrangeDistributor",
        "label": "sykDepositor",
        "offset": 0,
        "slot": "6",
        "type": "t_contract(ISYKDepositor)5237"
      },
      {
        "astId": 4077,
        "contract": "contracts/OrangeDistributor.sol:OrangeDistributor",
        "label": "merkleRoot",
        "offset": 0,
        "slot": "7",
        "type": "t_mapping(t_address,t_mapping(t_address,t_bytes32))"
      },
      {
        "astId": 4085,
        "contract": "contracts/OrangeDistributor.sol:OrangeDistributor",
        "label": "claimed",
        "offset": 0,
        "slot": "8",
        "type": "t_mapping(t_address,t_mapping(t_address,t_mapping(t_address,t_uint256)))"
      },
      {
        "astId": 4087,
        "contract": "contracts/OrangeDistributor.sol:OrangeDistributor",
        "label": "pauser",
        "offset": 0,
        "slot": "9",
        "type": "t_address"
      }
    ],
    "types": {
      "t_address": {
        "encoding": "inplace",
        "label": "address",
        "numberOfBytes": "20"
      },
      "t_bytes32": {
        "encoding": "inplace",
        "label": "bytes32",
        "numberOfBytes": "32"
      },
      "t_contract(IGaugeController)5217": {
        "encoding": "inplace",
        "label": "contract IGaugeController",
        "numberOfBytes": "20"
      },
      "t_contract(ISYKDepositor)5237": {
        "encoding": "inplace",
        "label": "contract ISYKDepositor",
        "numberOfBytes": "20"
      },
      "t_mapping(t_address,t_address)": {
        "encoding": "mapping",
        "key": "t_address",
        "label": "mapping(address => address)",
        "numberOfBytes": "32",
        "value": "t_address"
      },
      "t_mapping(t_address,t_bytes32)": {
        "encoding": "mapping",
        "key": "t_address",
        "label": "mapping(address => bytes32)",
        "numberOfBytes": "32",
        "value": "t_bytes32"
      },
      "t_mapping(t_address,t_mapping(t_address,t_bytes32))": {
        "encoding": "mapping",
        "key": "t_address",
        "label": "mapping(address => mapping(address => bytes32))",
        "numberOfBytes": "32",
        "value": "t_mapping(t_address,t_bytes32)"
      },
      "t_mapping(t_address,t_mapping(t_address,t_mapping(t_address,t_uint256)))": {
        "encoding": "mapping",
        "key": "t_address",
        "label": "mapping(address => mapping(address => mapping(address => uint256)))",
        "numberOfBytes": "32",
        "value": "t_mapping(t_address,t_mapping(t_address,t_uint256))"
      },
      "t_mapping(t_address,t_mapping(t_address,t_uint256))": {
        "encoding": "mapping",
        "key": "t_address",
        "label": "mapping(address => mapping(address => uint256))",
        "numberOfBytes": "32",
        "value": "t_mapping(t_address,t_uint256)"
      },
      "t_mapping(t_address,t_mapping(t_uint256,t_uint256))": {
        "encoding": "mapping",
        "key": "t_address",
        "label": "mapping(address => mapping(uint256 => uint256))",
        "numberOfBytes": "32",
        "value": "t_mapping(t_uint256,t_uint256)"
      },
      "t_mapping(t_address,t_uint256)": {
        "encoding": "mapping",
        "key": "t_address",
        "label": "mapping(address => uint256)",
        "numberOfBytes": "32",
        "value": "t_uint256"
      },
      "t_mapping(t_uint256,t_uint256)": {
        "encoding": "mapping",
        "key": "t_uint256",
        "label": "mapping(uint256 => uint256)",
        "numberOfBytes": "32",
        "value": "t_uint256"
      },
      "t_uint256": {
        "encoding": "inplace",
        "label": "uint256",
        "numberOfBytes": "32"
      }
    }
  }
}