{
  "address": "0x83A119d819A047e1355f245c194152725F0123f5",
  "abi": [
    {
      "inputs": [
        {
          "internalType": "address",
          "name": "target",
          "type": "address"
        }
      ],
      "name": "AddressEmptyCode",
      "type": "error"
    },
    {
      "inputs": [
        {
          "internalType": "address",
          "name": "account",
          "type": "address"
        }
      ],
      "name": "AddressInsufficientBalance",
      "type": "error"
    },
    {
      "inputs": [],
      "name": "FailedInnerCall",
      "type": "error"
    },
    {
      "inputs": [],
      "name": "InvalidEpoch",
      "type": "error"
    },
    {
      "inputs": [],
      "name": "InvalidProof",
      "type": "error"
    },
    {
      "inputs": [
        {
          "internalType": "address",
          "name": "token",
          "type": "address"
        }
      ],
      "name": "SafeERC20FailedOperation",
      "type": "error"
    },
    {
      "anonymous": false,
      "inputs": [
        {
          "indexed": true,
          "internalType": "address",
          "name": "_vault",
          "type": "address"
        },
        {
          "indexed": true,
          "internalType": "address",
          "name": "_token",
          "type": "address"
        },
        {
          "indexed": false,
          "internalType": "bytes32",
          "name": "_newMerkleRoot",
          "type": "bytes32"
        }
      ],
      "name": "MerkleRootUpdated",
      "type": "event"
    },
    {
      "anonymous": false,
      "inputs": [
        {
          "indexed": true,
          "internalType": "address",
          "name": "previousOwner",
          "type": "address"
        },
        {
          "indexed": true,
          "internalType": "address",
          "name": "newOwner",
          "type": "address"
        }
      ],
      "name": "OwnershipTransferred",
      "type": "event"
    },
    {
      "anonymous": false,
      "inputs": [
        {
          "indexed": true,
          "internalType": "address",
          "name": "_user",
          "type": "address"
        },
        {
          "indexed": true,
          "internalType": "address",
          "name": "_vault",
          "type": "address"
        },
        {
          "indexed": true,
          "internalType": "address",
          "name": "token",
          "type": "address"
        },
        {
          "indexed": false,
          "internalType": "uint256",
          "name": "_amount",
          "type": "uint256"
        }
      ],
      "name": "RewardClaimed",
      "type": "event"
    },
    {
      "anonymous": false,
      "inputs": [
        {
          "indexed": true,
          "internalType": "address",
          "name": "_vault",
          "type": "address"
        },
        {
          "indexed": false,
          "internalType": "uint256",
          "name": "_amount",
          "type": "uint256"
        }
      ],
      "name": "RewardPulled",
      "type": "event"
    },
    {
      "anonymous": false,
      "inputs": [
        {
          "indexed": true,
          "internalType": "address",
          "name": "_vault",
          "type": "address"
        },
        {
          "indexed": true,
          "internalType": "address",
          "name": "_gauge",
          "type": "address"
        }
      ],
      "name": "SetGauge",
      "type": "event"
    },
    {
      "anonymous": false,
      "inputs": [
        {
          "indexed": true,
          "internalType": "address",
          "name": "_vault",
          "type": "address"
        },
        {
          "indexed": false,
          "internalType": "uint256",
          "name": "_nextEpochToPull",
          "type": "uint256"
        }
      ],
      "name": "SkipPulls",
      "type": "event"
    },
    {
      "inputs": [
        {
          "internalType": "address[]",
          "name": "_vaults",
          "type": "address[]"
        },
        {
          "internalType": "address[]",
          "name": "_tokens",
          "type": "address[]"
        },
        {
          "internalType": "uint256[]",
          "name": "_amounts",
          "type": "uint256[]"
        },
        {
          "internalType": "bytes32[][]",
          "name": "merkleProofs",
          "type": "bytes32[][]"
        }
      ],
      "name": "batchClaim",
      "outputs": [],
      "stateMutability": "nonpayable",
      "type": "function"
    },
    {
      "inputs": [
        {
          "internalType": "address",
          "name": "_vault",
          "type": "address"
        }
      ],
      "name": "canPullNext",
      "outputs": [
        {
          "internalType": "bool",
          "name": "",
          "type": "bool"
        }
      ],
      "stateMutability": "view",
      "type": "function"
    },
    {
      "inputs": [
        {
          "internalType": "address",
          "name": "_vault",
          "type": "address"
        },
        {
          "internalType": "address",
          "name": "_token",
          "type": "address"
        },
        {
          "internalType": "uint256",
          "name": "_amount",
          "type": "uint256"
        },
        {
          "internalType": "bytes32[]",
          "name": "merkleProof",
          "type": "bytes32[]"
        }
      ],
      "name": "claim",
      "outputs": [],
      "stateMutability": "nonpayable",
      "type": "function"
    },
    {
      "inputs": [
        {
          "internalType": "address",
          "name": "",
          "type": "address"
        },
        {
          "internalType": "address",
          "name": "",
          "type": "address"
        },
        {
          "internalType": "address",
          "name": "",
          "type": "address"
        }
      ],
      "name": "claimed",
      "outputs": [
        {
          "internalType": "uint256",
          "name": "",
          "type": "uint256"
        }
      ],
      "stateMutability": "view",
      "type": "function"
    },
    {
      "inputs": [],
      "name": "controller",
      "outputs": [
        {
          "internalType": "contract IGaugeController",
          "name": "",
          "type": "address"
        }
      ],
      "stateMutability": "view",
      "type": "function"
    },
    {
      "inputs": [
        {
          "internalType": "address",
          "name": "_token",
          "type": "address"
        },
        {
          "internalType": "uint256",
          "name": "_amount",
          "type": "uint256"
        }
      ],
      "name": "emergencyWithdrawal",
      "outputs": [],
      "stateMutability": "nonpayable",
      "type": "function"
    },
    {
      "inputs": [
        {
          "internalType": "address",
          "name": "",
          "type": "address"
        },
        {
          "internalType": "uint256",
          "name": "",
          "type": "uint256"
        }
      ],
      "name": "epochRewards",
      "outputs": [
        {
          "internalType": "uint256",
          "name": "",
          "type": "uint256"
        }
      ],
      "stateMutability": "view",
      "type": "function"
    },
    {
      "inputs": [
        {
          "internalType": "address",
          "name": "",
          "type": "address"
        }
      ],
      "name": "gauges",
      "outputs": [
        {
          "internalType": "address",
          "name": "",
          "type": "address"
        }
      ],
      "stateMutability": "view",
      "type": "function"
    },
    {
      "inputs": [
        {
          "internalType": "contract IGaugeController",
          "name": "_controller",
          "type": "address"
        }
      ],
      "name": "initialize",
      "outputs": [],
      "stateMutability": "nonpayable",
      "type": "function"
    },
    {
      "inputs": [
        {
          "internalType": "address",
          "name": "",
          "type": "address"
        },
        {
          "internalType": "address",
          "name": "",
          "type": "address"
        }
      ],
      "name": "merkleRoot",
      "outputs": [
        {
          "internalType": "bytes32",
          "name": "",
          "type": "bytes32"
        }
      ],
      "stateMutability": "view",
      "type": "function"
    },
    {
      "inputs": [
        {
          "internalType": "address",
          "name": "",
          "type": "address"
        }
      ],
      "name": "nextStrykeEpochToPull",
      "outputs": [
        {
          "internalType": "uint256",
          "name": "",
          "type": "uint256"
        }
      ],
      "stateMutability": "view",
      "type": "function"
    },
    {
      "inputs": [],
      "name": "owner",
      "outputs": [
        {
          "internalType": "address",
          "name": "",
          "type": "address"
        }
      ],
      "stateMutability": "view",
      "type": "function"
    },
    {
      "inputs": [
        {
          "internalType": "address",
          "name": "_vault",
          "type": "address"
        }
      ],
      "name": "pullNext",
      "outputs": [],
      "stateMutability": "nonpayable",
      "type": "function"
    },
    {
      "inputs": [],
      "name": "renounceOwnership",
      "outputs": [],
      "stateMutability": "nonpayable",
      "type": "function"
    },
    {
      "inputs": [
        {
          "internalType": "address",
          "name": "_vault",
          "type": "address"
        },
        {
          "internalType": "address",
          "name": "_gauge",
          "type": "address"
        }
      ],
      "name": "setGauge",
      "outputs": [],
      "stateMutability": "nonpayable",
      "type": "function"
    },
    {
      "inputs": [
        {
          "internalType": "address",
          "name": "_vault",
          "type": "address"
        },
        {
          "internalType": "uint256",
          "name": "_nextEpochToPull",
          "type": "uint256"
        }
      ],
      "name": "skipPulls",
      "outputs": [],
      "stateMutability": "nonpayable",
      "type": "function"
    },
    {
      "inputs": [],
      "name": "syk",
      "outputs": [
        {
          "internalType": "address",
          "name": "",
          "type": "address"
        }
      ],
      "stateMutability": "view",
      "type": "function"
    },
    {
      "inputs": [
        {
          "internalType": "address",
          "name": "newOwner",
          "type": "address"
        }
      ],
      "name": "transferOwnership",
      "outputs": [],
      "stateMutability": "nonpayable",
      "type": "function"
    },
    {
      "inputs": [
        {
          "internalType": "address",
          "name": "_vault",
          "type": "address"
        },
        {
          "internalType": "address",
          "name": "_token",
          "type": "address"
        },
        {
          "internalType": "bytes32",
          "name": "_merkleRoot",
          "type": "bytes32"
        }
      ],
      "name": "updateMerkleRoot",
      "outputs": [],
      "stateMutability": "nonpayable",
      "type": "function"
    },
    {
      "inputs": [],
      "name": "xSyk",
      "outputs": [
        {
          "internalType": "address",
          "name": "",
          "type": "address"
        }
      ],
      "stateMutability": "view",
      "type": "function"
    }
  ],
  "transactionHash": "0x67f8998f162d005d4921709506f5c2f234559ab67909559bb0ac52112e0c9805",
  "args": [],
  "numDeployments": 1,
  "solcInputHash": "c7f7a5a26771b2accb5b51eb48166a6f",
  "bytecode": "0x6080604052348015600f57600080fd5b506130e18061001f6000396000f3fe608060405234801561001057600080fd5b506004361061012c5760003560e01c80639fbe6ac7116100ad578063cf3ef1d711610071578063cf3ef1d714610319578063f2fde38b14610349578063f5f4929614610365578063f77c479114610395578063fabed412146103b35761012c565b80639fbe6ac714610277578063a43ca37114610293578063b9a09fd5146102af578063c4d66de8146102df578063cf24eb24146102fb5761012c565b8063383a0d53116100f4578063383a0d53146101f95780634c55b7de1461021557806357d9989c14610233578063715018a61461024f5780638da5cb5b146102595761012c565b806302800ebd1461013157806307995509146101615780631a5289a91461017d5780631fa8d0ba146101ad578063237e6d64146101dd575b600080fd5b61014b6004803603810190610146919061249f565b6103cf565b60405161015891906124ee565b60405180910390f35b61017b6004803603810190610176919061261a565b6103f4565b005b61019760048036038101906101929190612703565b6104b1565b6040516101a491906124ee565b60405180910390f35b6101c760048036038101906101c29190612756565b6104e3565b6040516101d4919061279e565b60405180910390f35b6101f760048036038101906101f291906127b9565b6105c7565b005b610213600480360381019061020e9190612756565b61071f565b005b61021d610b37565b60405161022a9190612808565b60405180910390f35b61024d6004803603810190610248919061249f565b610b5d565b005b610257610c0f565b005b610261610d4c565b60405161026e9190612808565b60405180910390f35b610291600480360381019061028c9190612859565b610d76565b005b6102ad60048036038101906102a8919061249f565b610edd565b005b6102c960048036038101906102c49190612756565b610fef565b6040516102d69190612808565b60405180910390f35b6102f960048036038101906102f491906128ea565b611022565b005b610303611105565b6040516103109190612808565b60405180910390f35b610333600480360381019061032e91906127b9565b61112b565b6040516103409190612926565b60405180910390f35b610363600480360381019061035e9190612756565b611150565b005b61037f600480360381019061037a9190612756565b6112fb565b60405161038c91906124ee565b60405180910390f35b61039d611313565b6040516103aa91906129a0565b60405180910390f35b6103cd60048036038101906103c89190612a11565b611339565b005b6066602052816000526040600020602052806000526040600020600091509150505481565b60005b888890508110156104a65761049989898381811061041857610417612a99565b5b905060200201602081019061042d9190612756565b8888848181106104405761043f612a99565b5b90506020020160208101906104559190612756565b87878581811061046857610467612a99565b5b9050602002013586868681811061048257610481612a99565b5b90506020028101906104949190612ad7565b611339565b80806001019150506103f7565b505050505050505050565b606c60205282600052604060002060205281600052604060002060205280600052604060002060009250925050505481565b6000606860009054906101000a900473ffffffffffffffffffffffffffffffffffffffff1673ffffffffffffffffffffffffffffffffffffffff1663cafef3b5606560008573ffffffffffffffffffffffffffffffffffffffff1673ffffffffffffffffffffffffffffffffffffffff168152602001908152602001600020546040518263ffffffff1660e01b815260040161057f91906124ee565b602060405180830381865afa15801561059c573d6000803e3d6000fd5b505050506040513d601f19601f820116820180604052508101906105c09190612b66565b9050919050565b6105cf611804565b73ffffffffffffffffffffffffffffffffffffffff166105ed610d4c565b73ffffffffffffffffffffffffffffffffffffffff1614610643576040517f08c379a000000000000000000000000000000000000000000000000000000000815260040161063a90612bf0565b60405180910390fd5b80606760008473ffffffffffffffffffffffffffffffffffffffff1673ffffffffffffffffffffffffffffffffffffffff16815260200190815260200160002060006101000a81548173ffffffffffffffffffffffffffffffffffffffff021916908373ffffffffffffffffffffffffffffffffffffffff1602179055508073ffffffffffffffffffffffffffffffffffffffff168273ffffffffffffffffffffffffffffffffffffffff167fb980a40e5b6e992493967c8460db4d84575ad3246c3a17141fa7756ae4dd718060405160405180910390a35050565b610727611804565b73ffffffffffffffffffffffffffffffffffffffff16610745610d4c565b73ffffffffffffffffffffffffffffffffffffffff161461079b576040517f08c379a000000000000000000000000000000000000000000000000000000000815260040161079290612bf0565b60405180910390fd5b6000606960009054906101000a900473ffffffffffffffffffffffffffffffffffffffff1673ffffffffffffffffffffffffffffffffffffffff166370a08231306040518263ffffffff1660e01b81526004016107f89190612808565b602060405180830381865afa158015610815573d6000803e3d6000fd5b505050506040513d601f19601f820116820180604052508101906108399190612c25565b9050606760008373ffffffffffffffffffffffffffffffffffffffff1673ffffffffffffffffffffffffffffffffffffffff16815260200190815260200160002060009054906101000a900473ffffffffffffffffffffffffffffffffffffffff1673ffffffffffffffffffffffffffffffffffffffff16634d0392a8606560008573ffffffffffffffffffffffffffffffffffffffff1673ffffffffffffffffffffffffffffffffffffffff168152602001908152602001600020546040518263ffffffff1660e01b815260040161091291906124ee565b600060405180830381600087803b15801561092c57600080fd5b505af1158015610940573d6000803e3d6000fd5b505050506000606960009054906101000a900473ffffffffffffffffffffffffffffffffffffffff1673ffffffffffffffffffffffffffffffffffffffff166370a08231306040518263ffffffff1660e01b81526004016109a19190612808565b602060405180830381865afa1580156109be573d6000803e3d6000fd5b505050506040513d601f19601f820116820180604052508101906109e29190612c25565b905081816109f09190612c81565b606660008573ffffffffffffffffffffffffffffffffffffffff1673ffffffffffffffffffffffffffffffffffffffff1681526020019081526020016000206000606560008773ffffffffffffffffffffffffffffffffffffffff1673ffffffffffffffffffffffffffffffffffffffff168152602001908152602001600020548152602001908152602001600020819055506001606560008573ffffffffffffffffffffffffffffffffffffffff1673ffffffffffffffffffffffffffffffffffffffff1681526020019081526020016000206000828254610ad39190612cb5565b925050819055508273ffffffffffffffffffffffffffffffffffffffff167e703dec1352f06629844a1575eb327cd01fd616d236d2394468fa6f410b33158383610b1d9190612c81565b604051610b2a91906124ee565b60405180910390a2505050565b606960009054906101000a900473ffffffffffffffffffffffffffffffffffffffff1681565b610b65611804565b73ffffffffffffffffffffffffffffffffffffffff16610b83610d4c565b73ffffffffffffffffffffffffffffffffffffffff1614610bd9576040517f08c379a0000000000000000000000000000000000000000000000000000000008152600401610bd090612bf0565b60405180910390fd5b610c0b610be4610d4c565b828473ffffffffffffffffffffffffffffffffffffffff1661180c9092919063ffffffff16565b5050565b610c17611804565b73ffffffffffffffffffffffffffffffffffffffff16610c35610d4c565b73ffffffffffffffffffffffffffffffffffffffff1614610c8b576040517f08c379a0000000000000000000000000000000000000000000000000000000008152600401610c8290612bf0565b60405180910390fd5b600073ffffffffffffffffffffffffffffffffffffffff16603360009054906101000a900473ffffffffffffffffffffffffffffffffffffffff1673ffffffffffffffffffffffffffffffffffffffff167f8be0079c531659141344cd1fd0a4f28419497f9722a3daafe3b4186f6b6457e060405160405180910390a36000603360006101000a81548173ffffffffffffffffffffffffffffffffffffffff021916908373ffffffffffffffffffffffffffffffffffffffff160217905550565b6000603360009054906101000a900473ffffffffffffffffffffffffffffffffffffffff16905090565b610d7e611804565b73ffffffffffffffffffffffffffffffffffffffff16610d9c610d4c565b73ffffffffffffffffffffffffffffffffffffffff1614610df2576040517f08c379a0000000000000000000000000000000000000000000000000000000008152600401610de990612bf0565b60405180910390fd5b80606b60008573ffffffffffffffffffffffffffffffffffffffff1673ffffffffffffffffffffffffffffffffffffffff16815260200190815260200160002060008473ffffffffffffffffffffffffffffffffffffffff1673ffffffffffffffffffffffffffffffffffffffff168152602001908152602001600020819055508173ffffffffffffffffffffffffffffffffffffffff168373ffffffffffffffffffffffffffffffffffffffff167f7856aa6c22215500fc74b4dcc7eee10e3d95a70e252521468d7218a0425f5dab83604051610ed09190612926565b60405180910390a3505050565b610ee5611804565b73ffffffffffffffffffffffffffffffffffffffff16610f03610d4c565b73ffffffffffffffffffffffffffffffffffffffff1614610f59576040517f08c379a0000000000000000000000000000000000000000000000000000000008152600401610f5090612bf0565b60405180910390fd5b80606560008473ffffffffffffffffffffffffffffffffffffffff1673ffffffffffffffffffffffffffffffffffffffff168152602001908152602001600020819055508173ffffffffffffffffffffffffffffffffffffffff167fe86ed049b5d71416d6cb2ba84637b8c149c2c5c731523d36388511500c7152b182604051610fe391906124ee565b60405180910390a25050565b60676020528060005260406000206000915054906101000a900473ffffffffffffffffffffffffffffffffffffffff1681565b600060019054906101000a900460ff1680611048575060008054906101000a900460ff16155b611087576040517f08c379a000000000000000000000000000000000000000000000000000000000815260040161107e90612d5b565b60405180910390fd5b60008060019054906101000a900460ff1615905080156110d7576001600060016101000a81548160ff02191690831515021790555060016000806101000a81548160ff0219169083151502179055505b6110e08261188b565b80156111015760008060016101000a81548160ff0219169083151502179055505b5050565b606a60009054906101000a900473ffffffffffffffffffffffffffffffffffffffff1681565b606b602052816000526040600020602052806000526040600020600091509150505481565b611158611804565b73ffffffffffffffffffffffffffffffffffffffff16611176610d4c565b73ffffffffffffffffffffffffffffffffffffffff16146111cc576040517f08c379a00000000000000000000000000000000000000000000000000000000081526004016111c390612bf0565b60405180910390fd5b600073ffffffffffffffffffffffffffffffffffffffff168173ffffffffffffffffffffffffffffffffffffffff160361123b576040517f08c379a000000000000000000000000000000000000000000000000000000000815260040161123290612ded565b60405180910390fd5b8073ffffffffffffffffffffffffffffffffffffffff16603360009054906101000a900473ffffffffffffffffffffffffffffffffffffffff1673ffffffffffffffffffffffffffffffffffffffff167f8be0079c531659141344cd1fd0a4f28419497f9722a3daafe3b4186f6b6457e060405160405180910390a380603360006101000a81548173ffffffffffffffffffffffffffffffffffffffff021916908373ffffffffffffffffffffffffffffffffffffffff16021790555050565b60656020528060005260406000206000915090505481565b606860009054906101000a900473ffffffffffffffffffffffffffffffffffffffff1681565b82606c60008773ffffffffffffffffffffffffffffffffffffffff1673ffffffffffffffffffffffffffffffffffffffff16815260200190815260200160002060008673ffffffffffffffffffffffffffffffffffffffff1673ffffffffffffffffffffffffffffffffffffffff16815260200190815260200160002060003373ffffffffffffffffffffffffffffffffffffffff1673ffffffffffffffffffffffffffffffffffffffff16815260200190815260200160002060008282546114029190612cb5565b92505081905550600033606c60008873ffffffffffffffffffffffffffffffffffffffff1673ffffffffffffffffffffffffffffffffffffffff16815260200190815260200160002060008773ffffffffffffffffffffffffffffffffffffffff1673ffffffffffffffffffffffffffffffffffffffff16815260200190815260200160002060003373ffffffffffffffffffffffffffffffffffffffff1673ffffffffffffffffffffffffffffffffffffffff168152602001908152602001600020546040516020016114d7929190612e76565b6040516020818303038152906040528051906020012090506115778383606b60008a73ffffffffffffffffffffffffffffffffffffffff1673ffffffffffffffffffffffffffffffffffffffff16815260200190815260200160002060008973ffffffffffffffffffffffffffffffffffffffff1673ffffffffffffffffffffffffffffffffffffffff1681526020019081526020016000205484611b50565b6115ad576040517f09bde33900000000000000000000000000000000000000000000000000000000815260040160405180910390fd5b606960009054906101000a900473ffffffffffffffffffffffffffffffffffffffff1673ffffffffffffffffffffffffffffffffffffffff168573ffffffffffffffffffffffffffffffffffffffff16036117545761167d606a60009054906101000a900473ffffffffffffffffffffffffffffffffffffffff166002866116359190612ed1565b606960009054906101000a900473ffffffffffffffffffffffffffffffffffffffff1673ffffffffffffffffffffffffffffffffffffffff16611b699092919063ffffffff16565b606a60009054906101000a900473ffffffffffffffffffffffffffffffffffffffff1673ffffffffffffffffffffffffffffffffffffffff16633a2ee2526002866116c89190612ed1565b336040518363ffffffff1660e01b81526004016116e6929190612f02565b600060405180830381600087803b15801561170057600080fd5b505af1158015611714573d6000803e3d6000fd5b5050505061174f336002866117299190612ed1565b8773ffffffffffffffffffffffffffffffffffffffff1661180c9092919063ffffffff16565b611780565b61177f33858773ffffffffffffffffffffffffffffffffffffffff1661180c9092919063ffffffff16565b5b8473ffffffffffffffffffffffffffffffffffffffff168673ffffffffffffffffffffffffffffffffffffffff163373ffffffffffffffffffffffffffffffffffffffff167f2422cac5e23c46c890fdcf42d0c64757409df6832174df639337558f09d99c68876040516117f491906124ee565b60405180910390a4505050505050565b600033905090565b611886838473ffffffffffffffffffffffffffffffffffffffff1663a9059cbb858560405160240161183f929190612f2b565b604051602081830303815290604052915060e01b6020820180517bffffffffffffffffffffffffffffffffffffffffffffffffffffffff8381831617835250505050611c05565b505050565b600060019054906101000a900460ff16806118b1575060008054906101000a900460ff16155b6118f0576040517f08c379a00000000000000000000000000000000000000000000000000000000081526004016118e790612d5b565b60405180910390fd5b60008060019054906101000a900460ff161590508015611940576001600060016101000a81548160ff02191690831515021790555060016000806101000a81548160ff0219169083151502179055505b611948611c9c565b81606860006101000a81548173ffffffffffffffffffffffffffffffffffffffff021916908373ffffffffffffffffffffffffffffffffffffffff160217905550606860009054906101000a900473ffffffffffffffffffffffffffffffffffffffff1673ffffffffffffffffffffffffffffffffffffffff16634c55b7de6040518163ffffffff1660e01b8152600401602060405180830381865afa1580156119f6573d6000803e3d6000fd5b505050506040513d601f19601f82011682018060405250810190611a1a9190612f69565b606960006101000a81548173ffffffffffffffffffffffffffffffffffffffff021916908373ffffffffffffffffffffffffffffffffffffffff160217905550606860009054906101000a900473ffffffffffffffffffffffffffffffffffffffff1673ffffffffffffffffffffffffffffffffffffffff1663cf24eb246040518163ffffffff1660e01b8152600401602060405180830381865afa158015611ac7573d6000803e3d6000fd5b505050506040513d601f19601f82011682018060405250810190611aeb9190612f69565b606a60006101000a81548173ffffffffffffffffffffffffffffffffffffffff021916908373ffffffffffffffffffffffffffffffffffffffff1602179055508015611b4c5760008060016101000a81548160ff0219169083151502179055505b5050565b600082611b5e868685611d85565b149050949350505050565b60008373ffffffffffffffffffffffffffffffffffffffff1663dd62ed3e30856040518363ffffffff1660e01b8152600401611ba6929190612f96565b602060405180830381865afa158015611bc3573d6000803e3d6000fd5b505050506040513d601f19601f82011682018060405250810190611be79190612c25565b9050611bff84848484611bfa9190612cb5565b611dd7565b50505050565b6000611c30828473ffffffffffffffffffffffffffffffffffffffff16611ee690919063ffffffff16565b90506000815114158015611c55575080806020019051810190611c539190612b66565b155b15611c9757826040517f5274afe7000000000000000000000000000000000000000000000000000000008152600401611c8e9190612808565b60405180910390fd5b505050565b600060019054906101000a900460ff1680611cc2575060008054906101000a900460ff16155b611d01576040517f08c379a0000000000000000000000000000000000000000000000000000000008152600401611cf890612d5b565b60405180910390fd5b60008060019054906101000a900460ff161590508015611d51576001600060016101000a81548160ff02191690831515021790555060016000806101000a81548160ff0219169083151502179055505b611d59611efc565b611d61611fd5565b8015611d825760008060016101000a81548160ff0219169083151502179055505b50565b60008082905060005b85859050811015611dcb57611dbc82878784818110611db057611daf612a99565b5b90506020020135612157565b91508080600101915050611d8e565b50809150509392505050565b60008373ffffffffffffffffffffffffffffffffffffffff1663095ea7b38484604051602401611e08929190612f2b565b604051602081830303815290604052915060e01b6020820180517bffffffffffffffffffffffffffffffffffffffffffffffffffffffff83818316178352505050509050611e568482612182565b611ee057611ed5848573ffffffffffffffffffffffffffffffffffffffff1663095ea7b3866000604051602401611e8e929190612ffa565b604051602081830303815290604052915060e01b6020820180517bffffffffffffffffffffffffffffffffffffffffffffffffffffffff8381831617835250505050611c05565b611edf8482611c05565b5b50505050565b6060611ef483836000612249565b905092915050565b600060019054906101000a900460ff1680611f22575060008054906101000a900460ff16155b611f61576040517f08c379a0000000000000000000000000000000000000000000000000000000008152600401611f5890612d5b565b60405180910390fd5b60008060019054906101000a900460ff161590508015611fb1576001600060016101000a81548160ff02191690831515021790555060016000806101000a81548160ff0219169083151502179055505b8015611fd25760008060016101000a81548160ff0219169083151502179055505b50565b600060019054906101000a900460ff1680611ffb575060008054906101000a900460ff16155b61203a576040517f08c379a000000000000000000000000000000000000000000000000000000000815260040161203190612d5b565b60405180910390fd5b60008060019054906101000a900460ff16159050801561208a576001600060016101000a81548160ff02191690831515021790555060016000806101000a81548160ff0219169083151502179055505b6000612094611804565b905080603360006101000a81548173ffffffffffffffffffffffffffffffffffffffff021916908373ffffffffffffffffffffffffffffffffffffffff1602179055508073ffffffffffffffffffffffffffffffffffffffff16600073ffffffffffffffffffffffffffffffffffffffff167f8be0079c531659141344cd1fd0a4f28419497f9722a3daafe3b4186f6b6457e060405160405180910390a35080156121545760008060016101000a81548160ff0219169083151502179055505b50565b600081831061216f5761216a8284612316565b61217a565b6121798383612316565b5b905092915050565b60008060008473ffffffffffffffffffffffffffffffffffffffff16846040516121ac9190613094565b6000604051808303816000865af19150503d80600081146121e9576040519150601f19603f3d011682016040523d82523d6000602084013e6121ee565b606091505b509150915081801561221c575060008151148061221b57508080602001905181019061221a9190612b66565b5b5b801561223f575060008573ffffffffffffffffffffffffffffffffffffffff163b115b9250505092915050565b60608147101561229057306040517fcd7860590000000000000000000000000000000000000000000000000000000081526004016122879190612808565b60405180910390fd5b6000808573ffffffffffffffffffffffffffffffffffffffff1684866040516122b99190613094565b60006040518083038185875af1925050503d80600081146122f6576040519150601f19603f3d011682016040523d82523d6000602084013e6122fb565b606091505b509150915061230b86838361232d565b925050509392505050565b600082600052816020526040600020905092915050565b6060826123425761233d826123bc565b6123b4565b6000825114801561236a575060008473ffffffffffffffffffffffffffffffffffffffff163b145b156123ac57836040517f9996b3150000000000000000000000000000000000000000000000000000000081526004016123a39190612808565b60405180910390fd5b8190506123b5565b5b9392505050565b6000815111156123cf5780518082602001fd5b6040517f1425ea4200000000000000000000000000000000000000000000000000000000815260040160405180910390fd5b600080fd5b600080fd5b600073ffffffffffffffffffffffffffffffffffffffff82169050919050565b60006124368261240b565b9050919050565b6124468161242b565b811461245157600080fd5b50565b6000813590506124638161243d565b92915050565b6000819050919050565b61247c81612469565b811461248757600080fd5b50565b60008135905061249981612473565b92915050565b600080604083850312156124b6576124b5612401565b5b60006124c485828601612454565b92505060206124d58582860161248a565b9150509250929050565b6124e881612469565b82525050565b600060208201905061250360008301846124df565b92915050565b600080fd5b600080fd5b600080fd5b60008083601f84011261252e5761252d612509565b5b8235905067ffffffffffffffff81111561254b5761254a61250e565b5b60208301915083602082028301111561256757612566612513565b5b9250929050565b60008083601f84011261258457612583612509565b5b8235905067ffffffffffffffff8111156125a1576125a061250e565b5b6020830191508360208202830111156125bd576125bc612513565b5b9250929050565b60008083601f8401126125da576125d9612509565b5b8235905067ffffffffffffffff8111156125f7576125f661250e565b5b60208301915083602082028301111561261357612612612513565b5b9250929050565b6000806000806000806000806080898b03121561263a57612639612401565b5b600089013567ffffffffffffffff81111561265857612657612406565b5b6126648b828c01612518565b9850985050602089013567ffffffffffffffff81111561268757612686612406565b5b6126938b828c01612518565b9650965050604089013567ffffffffffffffff8111156126b6576126b5612406565b5b6126c28b828c0161256e565b9450945050606089013567ffffffffffffffff8111156126e5576126e4612406565b5b6126f18b828c016125c4565b92509250509295985092959890939650565b60008060006060848603121561271c5761271b612401565b5b600061272a86828701612454565b935050602061273b86828701612454565b925050604061274c86828701612454565b9150509250925092565b60006020828403121561276c5761276b612401565b5b600061277a84828501612454565b91505092915050565b60008115159050919050565b61279881612783565b82525050565b60006020820190506127b3600083018461278f565b92915050565b600080604083850312156127d0576127cf612401565b5b60006127de85828601612454565b92505060206127ef85828601612454565b9150509250929050565b6128028161242b565b82525050565b600060208201905061281d60008301846127f9565b92915050565b6000819050919050565b61283681612823565b811461284157600080fd5b50565b6000813590506128538161282d565b92915050565b60008060006060848603121561287257612871612401565b5b600061288086828701612454565b935050602061289186828701612454565b92505060406128a286828701612844565b9150509250925092565b60006128b78261242b565b9050919050565b6128c7816128ac565b81146128d257600080fd5b50565b6000813590506128e4816128be565b92915050565b600060208284031215612900576128ff612401565b5b600061290e848285016128d5565b91505092915050565b61292081612823565b82525050565b600060208201905061293b6000830184612917565b92915050565b6000819050919050565b600061296661296161295c8461240b565b612941565b61240b565b9050919050565b60006129788261294b565b9050919050565b600061298a8261296d565b9050919050565b61299a8161297f565b82525050565b60006020820190506129b56000830184612991565b92915050565b60008083601f8401126129d1576129d0612509565b5b8235905067ffffffffffffffff8111156129ee576129ed61250e565b5b602083019150836020820283011115612a0a57612a09612513565b5b9250929050565b600080600080600060808688031215612a2d57612a2c612401565b5b6000612a3b88828901612454565b9550506020612a4c88828901612454565b9450506040612a5d8882890161248a565b935050606086013567ffffffffffffffff811115612a7e57612a7d612406565b5b612a8a888289016129bb565b92509250509295509295909350565b7f4e487b7100000000000000000000000000000000000000000000000000000000600052603260045260246000fd5b600080fd5b600080fd5b600080fd5b60008083356001602003843603038112612af457612af3612ac8565b5b80840192508235915067ffffffffffffffff821115612b1657612b15612acd565b5b602083019250602082023603831315612b3257612b31612ad2565b5b509250929050565b612b4381612783565b8114612b4e57600080fd5b50565b600081519050612b6081612b3a565b92915050565b600060208284031215612b7c57612b7b612401565b5b6000612b8a84828501612b51565b91505092915050565b600082825260208201905092915050565b7f4f776e61626c653a2063616c6c6572206973206e6f7420746865206f776e6572600082015250565b6000612bda602083612b93565b9150612be582612ba4565b602082019050919050565b60006020820190508181036000830152612c0981612bcd565b9050919050565b600081519050612c1f81612473565b92915050565b600060208284031215612c3b57612c3a612401565b5b6000612c4984828501612c10565b91505092915050565b7f4e487b7100000000000000000000000000000000000000000000000000000000600052601160045260246000fd5b6000612c8c82612469565b9150612c9783612469565b9250828203905081811115612caf57612cae612c52565b5b92915050565b6000612cc082612469565b9150612ccb83612469565b9250828201905080821115612ce357612ce2612c52565b5b92915050565b7f496e697469616c697a61626c653a20636f6e747261637420697320616c72656160008201527f647920696e697469616c697a6564000000000000000000000000000000000000602082015250565b6000612d45602e83612b93565b9150612d5082612ce9565b604082019050919050565b60006020820190508181036000830152612d7481612d38565b9050919050565b7f4f776e61626c653a206e6577206f776e657220697320746865207a65726f206160008201527f6464726573730000000000000000000000000000000000000000000000000000602082015250565b6000612dd7602683612b93565b9150612de282612d7b565b604082019050919050565b60006020820190508181036000830152612e0681612dca565b9050919050565b60008160601b9050919050565b6000612e2582612e0d565b9050919050565b6000612e3782612e1a565b9050919050565b612e4f612e4a8261242b565b612e2c565b82525050565b6000819050919050565b612e70612e6b82612469565b612e55565b82525050565b6000612e828285612e3e565b601482019150612e928284612e5f565b6020820191508190509392505050565b7f4e487b7100000000000000000000000000000000000000000000000000000000600052601260045260246000fd5b6000612edc82612469565b9150612ee783612469565b925082612ef757612ef6612ea2565b5b828204905092915050565b6000604082019050612f1760008301856124df565b612f2460208301846127f9565b9392505050565b6000604082019050612f4060008301856127f9565b612f4d60208301846124df565b9392505050565b600081519050612f638161243d565b92915050565b600060208284031215612f7f57612f7e612401565b5b6000612f8d84828501612f54565b91505092915050565b6000604082019050612fab60008301856127f9565b612fb860208301846127f9565b9392505050565b6000819050919050565b6000612fe4612fdf612fda84612fbf565b612941565b612469565b9050919050565b612ff481612fc9565b82525050565b600060408201905061300f60008301856127f9565b61301c6020830184612feb565b9392505050565b600081519050919050565b600081905092915050565b60005b8381101561305757808201518184015260208101905061303c565b60008484015250505050565b600061306e82613023565b613078818561302e565b9350613088818560208601613039565b80840191505092915050565b60006130a08284613063565b91508190509291505056fea2646970667358221220ffdbb11a91c78bd35eb2d3d0c0eccc922eb89dba80e81528dd38efd21cc8a37964736f6c634300081b0033",
  "devdoc": {
    "details": "In order to distribute token rewards for an orange vault, the reward amounts need to be calculated for the vault depositors off- chain. The total reward amount should be sent to the distributor contract, either by calling pullNext for syk rewards or transferring the tokens directly to the distributor. A merkle root then needs to be  calculated based on the amount of tokens that are to be distributed to each vault depositor (this is performed off chain) and sent to the  distributor contract via updateMerkleRoot",
    "errors": {
      "AddressEmptyCode(address)": [
        {
          "details": "There's no code at `target` (it is not a contract)."
        }
      ],
      "AddressInsufficientBalance(address)": [
        {
          "details": "The ETH balance of the account is not enough to perform the operation."
        }
      ],
      "FailedInnerCall()": [
        {
          "details": "A call to an address target failed. The target may have reverted."
        }
      ],
      "SafeERC20FailedOperation(address)": [
        {
          "details": "An operation with an ERC20 token failed."
        }
      ]
    },
    "kind": "dev",
    "methods": {
      "claim(address,address,uint256,bytes32[])": {
        "params": {
          "_amount": "Amount of token to claim as reward",
          "_token": "The token to claim",
          "_vault": "The vault for which to claim rewards",
          "merkleProof": "Merkle proof"
        }
      },
      "owner()": {
        "details": "Returns the address of the current owner."
      },
      "renounceOwnership()": {
        "details": "Leaves the contract without owner. It will not be possible to call `onlyOwner` functions anymore. Can only be called by the current owner. NOTE: Renouncing ownership will leave the contract without an owner, thereby removing any functionality that is only available to the owner."
      },
      "setGauge(address,address)": {
        "details": "SYKPuller needs to be made the owner of the gauge, to allow pulling reward"
      },
      "transferOwnership(address)": {
        "details": "Transfers ownership of the contract to a new account (`newOwner`). Can only be called by the current owner."
      },
      "updateMerkleRoot(address,address,bytes32)": {
        "params": {
          "_merkleRoot": "New root for reward distribution",
          "_token": "The reward token for the vault",
          "_vault": "The vault whose token is to be distributed using the merkle root"
        }
      }
    },
    "version": 1
  },
  "userdoc": {
    "kind": "user",
    "methods": {
      "batchClaim(address[],address[],uint256[],bytes32[][])": {
        "notice": "Claim multiple token rewards in a single call"
      },
      "canPullNext(address)": {
        "notice": "Check if the rewards for the next epoch can be pulled"
      },
      "claim(address,address,uint256,bytes32[])": {
        "notice": "Claim all the token rewards for a vault"
      },
      "emergencyWithdrawal(address,uint256)": {
        "notice": "Withdraw funds in case of emergency"
      },
      "pullNext(address)": {
        "notice": "Pull the rewards for the next epoch from the gauge"
      },
      "setGauge(address,address)": {
        "notice": "Set the gauge for an orange vault"
      },
      "skipPulls(address,uint256)": {
        "notice": "Admin function to manually set the next epoch whose rewards will be pulled."
      },
      "updateMerkleRoot(address,address,bytes32)": {
        "notice": "Update the merkle root for the reward token distribution of a vault"
      }
    },
    "notice": "Contract for distributing token rewards to Orange vault depositors. The contract is able to distribute token rewards distributed by stryke via their gauges as well as any ERC20 token transferred to the OrangeDistributor contract",
    "version": 1
  },
  "storageLayout": {
    "storage": [
      {
        "astId": 136,
        "contract": "contracts/OrangeDistributor.sol:OrangeDistributor",
        "label": "_initialized",
        "offset": 0,
        "slot": "0",
        "type": "t_bool"
      },
      {
        "astId": 139,
        "contract": "contracts/OrangeDistributor.sol:OrangeDistributor",
        "label": "_initializing",
        "offset": 1,
        "slot": "0",
        "type": "t_bool"
      },
      {
        "astId": 220,
        "contract": "contracts/OrangeDistributor.sol:OrangeDistributor",
        "label": "__gap",
        "offset": 0,
        "slot": "1",
        "type": "t_array(t_uint256)50_storage"
      },
      {
        "astId": 10,
        "contract": "contracts/OrangeDistributor.sol:OrangeDistributor",
        "label": "_owner",
        "offset": 0,
        "slot": "51",
        "type": "t_address"
      },
      {
        "astId": 129,
        "contract": "contracts/OrangeDistributor.sol:OrangeDistributor",
        "label": "__gap",
        "offset": 0,
        "slot": "52",
        "type": "t_array(t_uint256)49_storage"
      },
      {
        "astId": 2440,
        "contract": "contracts/OrangeDistributor.sol:OrangeDistributor",
        "label": "nextStrykeEpochToPull",
        "offset": 0,
        "slot": "101",
        "type": "t_mapping(t_address,t_uint256)"
      },
      {
        "astId": 2446,
        "contract": "contracts/OrangeDistributor.sol:OrangeDistributor",
        "label": "epochRewards",
        "offset": 0,
        "slot": "102",
        "type": "t_mapping(t_address,t_mapping(t_uint256,t_uint256))"
      },
      {
        "astId": 2450,
        "contract": "contracts/OrangeDistributor.sol:OrangeDistributor",
        "label": "gauges",
        "offset": 0,
        "slot": "103",
        "type": "t_mapping(t_address,t_address)"
      },
      {
        "astId": 2453,
        "contract": "contracts/OrangeDistributor.sol:OrangeDistributor",
        "label": "controller",
        "offset": 0,
        "slot": "104",
        "type": "t_contract(IGaugeController)2773"
      },
      {
        "astId": 2455,
        "contract": "contracts/OrangeDistributor.sol:OrangeDistributor",
        "label": "syk",
        "offset": 0,
        "slot": "105",
        "type": "t_address"
      },
      {
        "astId": 2457,
        "contract": "contracts/OrangeDistributor.sol:OrangeDistributor",
        "label": "xSyk",
        "offset": 0,
        "slot": "106",
        "type": "t_address"
      },
      {
        "astId": 2173,
        "contract": "contracts/OrangeDistributor.sol:OrangeDistributor",
        "label": "merkleRoot",
        "offset": 0,
        "slot": "107",
        "type": "t_mapping(t_address,t_mapping(t_address,t_bytes32))"
      },
      {
        "astId": 2181,
        "contract": "contracts/OrangeDistributor.sol:OrangeDistributor",
        "label": "claimed",
        "offset": 0,
        "slot": "108",
        "type": "t_mapping(t_address,t_mapping(t_address,t_mapping(t_address,t_uint256)))"
      }
    ],
    "types": {
      "t_address": {
        "encoding": "inplace",
        "label": "address",
        "numberOfBytes": "20"
      },
      "t_array(t_uint256)49_storage": {
        "base": "t_uint256",
        "encoding": "inplace",
        "label": "uint256[49]",
        "numberOfBytes": "1568"
      },
      "t_array(t_uint256)50_storage": {
        "base": "t_uint256",
        "encoding": "inplace",
        "label": "uint256[50]",
        "numberOfBytes": "1600"
      },
      "t_bool": {
        "encoding": "inplace",
        "label": "bool",
        "numberOfBytes": "1"
      },
      "t_bytes32": {
        "encoding": "inplace",
        "label": "bytes32",
        "numberOfBytes": "32"
      },
      "t_contract(IGaugeController)2773": {
        "encoding": "inplace",
        "label": "contract IGaugeController",
        "numberOfBytes": "20"
      },
      "t_mapping(t_address,t_address)": {
        "encoding": "mapping",
        "key": "t_address",
        "label": "mapping(address => address)",
        "numberOfBytes": "32",
        "value": "t_address"
      },
      "t_mapping(t_address,t_bytes32)": {
        "encoding": "mapping",
        "key": "t_address",
        "label": "mapping(address => bytes32)",
        "numberOfBytes": "32",
        "value": "t_bytes32"
      },
      "t_mapping(t_address,t_mapping(t_address,t_bytes32))": {
        "encoding": "mapping",
        "key": "t_address",
        "label": "mapping(address => mapping(address => bytes32))",
        "numberOfBytes": "32",
        "value": "t_mapping(t_address,t_bytes32)"
      },
      "t_mapping(t_address,t_mapping(t_address,t_mapping(t_address,t_uint256)))": {
        "encoding": "mapping",
        "key": "t_address",
        "label": "mapping(address => mapping(address => mapping(address => uint256)))",
        "numberOfBytes": "32",
        "value": "t_mapping(t_address,t_mapping(t_address,t_uint256))"
      },
      "t_mapping(t_address,t_mapping(t_address,t_uint256))": {
        "encoding": "mapping",
        "key": "t_address",
        "label": "mapping(address => mapping(address => uint256))",
        "numberOfBytes": "32",
        "value": "t_mapping(t_address,t_uint256)"
      },
      "t_mapping(t_address,t_mapping(t_uint256,t_uint256))": {
        "encoding": "mapping",
        "key": "t_address",
        "label": "mapping(address => mapping(uint256 => uint256))",
        "numberOfBytes": "32",
        "value": "t_mapping(t_uint256,t_uint256)"
      },
      "t_mapping(t_address,t_uint256)": {
        "encoding": "mapping",
        "key": "t_address",
        "label": "mapping(address => uint256)",
        "numberOfBytes": "32",
        "value": "t_uint256"
      },
      "t_mapping(t_uint256,t_uint256)": {
        "encoding": "mapping",
        "key": "t_uint256",
        "label": "mapping(uint256 => uint256)",
        "numberOfBytes": "32",
        "value": "t_uint256"
      },
      "t_uint256": {
        "encoding": "inplace",
        "label": "uint256",
        "numberOfBytes": "32"
      }
    }
  }
}