{
  "address": "0xE0dF749dDbBA78d78BD0EB799Ce6C70833D6cb0F",
  "abi": [
    {
      "inputs": [],
      "stateMutability": "nonpayable",
      "type": "constructor"
    },
    {
      "inputs": [
        {
          "internalType": "address",
          "name": "target",
          "type": "address"
        }
      ],
      "name": "AddressEmptyCode",
      "type": "error"
    },
    {
      "inputs": [
        {
          "internalType": "address",
          "name": "account",
          "type": "address"
        }
      ],
      "name": "AddressInsufficientBalance",
      "type": "error"
    },
    {
      "inputs": [],
      "name": "FailedInnerCall",
      "type": "error"
    },
    {
      "inputs": [],
      "name": "InvalidEpoch",
      "type": "error"
    },
    {
      "inputs": [],
      "name": "InvalidProof",
      "type": "error"
    },
    {
      "inputs": [],
      "name": "InvalidRewardAmount",
      "type": "error"
    },
    {
      "inputs": [
        {
          "internalType": "address",
          "name": "token",
          "type": "address"
        }
      ],
      "name": "SafeERC20FailedOperation",
      "type": "error"
    },
    {
      "anonymous": false,
      "inputs": [
        {
          "indexed": true,
          "internalType": "address",
          "name": "_vault",
          "type": "address"
        },
        {
          "indexed": true,
          "internalType": "address",
          "name": "_token",
          "type": "address"
        },
        {
          "components": [
            {
              "internalType": "bytes32",
              "name": "root",
              "type": "bytes32"
            },
            {
              "internalType": "uint256",
              "name": "rewardAmount",
              "type": "uint256"
            }
          ],
          "indexed": false,
          "internalType": "struct OrangeDistributor.MerkleRootData",
          "name": "_newMerkleRoot",
          "type": "tuple"
        }
      ],
      "name": "MerkleRootUpdated",
      "type": "event"
    },
    {
      "anonymous": false,
      "inputs": [
        {
          "indexed": true,
          "internalType": "address",
          "name": "previousOwner",
          "type": "address"
        },
        {
          "indexed": true,
          "internalType": "address",
          "name": "newOwner",
          "type": "address"
        }
      ],
      "name": "OwnershipTransferred",
      "type": "event"
    },
    {
      "anonymous": false,
      "inputs": [
        {
          "indexed": true,
          "internalType": "address",
          "name": "_user",
          "type": "address"
        },
        {
          "indexed": true,
          "internalType": "address",
          "name": "_vault",
          "type": "address"
        },
        {
          "indexed": true,
          "internalType": "address",
          "name": "token",
          "type": "address"
        },
        {
          "indexed": false,
          "internalType": "uint256",
          "name": "_amount",
          "type": "uint256"
        }
      ],
      "name": "RewardClaimed",
      "type": "event"
    },
    {
      "anonymous": false,
      "inputs": [
        {
          "indexed": true,
          "internalType": "address",
          "name": "_vault",
          "type": "address"
        },
        {
          "indexed": false,
          "internalType": "uint256",
          "name": "_amount",
          "type": "uint256"
        }
      ],
      "name": "RewardPulled",
      "type": "event"
    },
    {
      "anonymous": false,
      "inputs": [
        {
          "indexed": true,
          "internalType": "address",
          "name": "_vault",
          "type": "address"
        },
        {
          "indexed": true,
          "internalType": "address",
          "name": "_gauge",
          "type": "address"
        }
      ],
      "name": "SetGauge",
      "type": "event"
    },
    {
      "anonymous": false,
      "inputs": [
        {
          "indexed": true,
          "internalType": "address",
          "name": "_vault",
          "type": "address"
        },
        {
          "indexed": false,
          "internalType": "uint256",
          "name": "_nextEpochToPull",
          "type": "uint256"
        }
      ],
      "name": "SkipPulls",
      "type": "event"
    },
    {
      "inputs": [
        {
          "internalType": "address[]",
          "name": "_vaults",
          "type": "address[]"
        },
        {
          "internalType": "address[]",
          "name": "_tokens",
          "type": "address[]"
        },
        {
          "internalType": "uint256[]",
          "name": "_amounts",
          "type": "uint256[]"
        },
        {
          "internalType": "bytes32[][]",
          "name": "merkleProofs",
          "type": "bytes32[][]"
        }
      ],
      "name": "batchClaim",
      "outputs": [],
      "stateMutability": "nonpayable",
      "type": "function"
    },
    {
      "inputs": [
        {
          "internalType": "address",
          "name": "_vault",
          "type": "address"
        }
      ],
      "name": "canPullNext",
      "outputs": [
        {
          "internalType": "bool",
          "name": "",
          "type": "bool"
        }
      ],
      "stateMutability": "view",
      "type": "function"
    },
    {
      "inputs": [
        {
          "internalType": "address",
          "name": "_vault",
          "type": "address"
        },
        {
          "internalType": "address",
          "name": "_token",
          "type": "address"
        },
        {
          "internalType": "uint256",
          "name": "_amount",
          "type": "uint256"
        },
        {
          "internalType": "bytes32[]",
          "name": "merkleProof",
          "type": "bytes32[]"
        }
      ],
      "name": "claim",
      "outputs": [],
      "stateMutability": "nonpayable",
      "type": "function"
    },
    {
      "inputs": [
        {
          "internalType": "address",
          "name": "",
          "type": "address"
        },
        {
          "internalType": "address",
          "name": "",
          "type": "address"
        },
        {
          "internalType": "address",
          "name": "",
          "type": "address"
        }
      ],
      "name": "claimed",
      "outputs": [
        {
          "internalType": "uint256",
          "name": "",
          "type": "uint256"
        }
      ],
      "stateMutability": "view",
      "type": "function"
    },
    {
      "inputs": [],
      "name": "controller",
      "outputs": [
        {
          "internalType": "contract IGaugeController",
          "name": "",
          "type": "address"
        }
      ],
      "stateMutability": "view",
      "type": "function"
    },
    {
      "inputs": [
        {
          "internalType": "address",
          "name": "",
          "type": "address"
        },
        {
          "internalType": "uint256",
          "name": "",
          "type": "uint256"
        }
      ],
      "name": "epochRewards",
      "outputs": [
        {
          "internalType": "uint256",
          "name": "",
          "type": "uint256"
        }
      ],
      "stateMutability": "view",
      "type": "function"
    },
    {
      "inputs": [
        {
          "internalType": "address",
          "name": "",
          "type": "address"
        }
      ],
      "name": "gauges",
      "outputs": [
        {
          "internalType": "address",
          "name": "",
          "type": "address"
        }
      ],
      "stateMutability": "view",
      "type": "function"
    },
    {
      "inputs": [
        {
          "internalType": "contract IGaugeController",
          "name": "_controller",
          "type": "address"
        }
      ],
      "name": "initialize",
      "outputs": [],
      "stateMutability": "nonpayable",
      "type": "function"
    },
    {
      "inputs": [
        {
          "internalType": "address",
          "name": "",
          "type": "address"
        },
        {
          "internalType": "address",
          "name": "",
          "type": "address"
        }
      ],
      "name": "merkleRootData",
      "outputs": [
        {
          "internalType": "bytes32",
          "name": "root",
          "type": "bytes32"
        },
        {
          "internalType": "uint256",
          "name": "rewardAmount",
          "type": "uint256"
        }
      ],
      "stateMutability": "view",
      "type": "function"
    },
    {
      "inputs": [
        {
          "internalType": "address",
          "name": "",
          "type": "address"
        }
      ],
      "name": "nextStrykeEpochToPull",
      "outputs": [
        {
          "internalType": "uint256",
          "name": "",
          "type": "uint256"
        }
      ],
      "stateMutability": "view",
      "type": "function"
    },
    {
      "inputs": [],
      "name": "owner",
      "outputs": [
        {
          "internalType": "address",
          "name": "",
          "type": "address"
        }
      ],
      "stateMutability": "view",
      "type": "function"
    },
    {
      "inputs": [
        {
          "internalType": "address",
          "name": "_vault",
          "type": "address"
        }
      ],
      "name": "pullNext",
      "outputs": [],
      "stateMutability": "nonpayable",
      "type": "function"
    },
    {
      "inputs": [],
      "name": "renounceOwnership",
      "outputs": [],
      "stateMutability": "nonpayable",
      "type": "function"
    },
    {
      "inputs": [
        {
          "internalType": "address",
          "name": "_vault",
          "type": "address"
        },
        {
          "internalType": "address",
          "name": "_gauge",
          "type": "address"
        }
      ],
      "name": "setGauge",
      "outputs": [],
      "stateMutability": "nonpayable",
      "type": "function"
    },
    {
      "inputs": [
        {
          "internalType": "address",
          "name": "_vault",
          "type": "address"
        },
        {
          "internalType": "uint256",
          "name": "_nextEpochToPull",
          "type": "uint256"
        }
      ],
      "name": "skipPulls",
      "outputs": [],
      "stateMutability": "nonpayable",
      "type": "function"
    },
    {
      "inputs": [],
      "name": "syk",
      "outputs": [
        {
          "internalType": "address",
          "name": "",
          "type": "address"
        }
      ],
      "stateMutability": "view",
      "type": "function"
    },
    {
      "inputs": [
        {
          "internalType": "address",
          "name": "newOwner",
          "type": "address"
        }
      ],
      "name": "transferOwnership",
      "outputs": [],
      "stateMutability": "nonpayable",
      "type": "function"
    },
    {
      "inputs": [
        {
          "internalType": "address",
          "name": "_vault",
          "type": "address"
        },
        {
          "internalType": "address",
          "name": "_token",
          "type": "address"
        },
        {
          "components": [
            {
              "internalType": "bytes32",
              "name": "root",
              "type": "bytes32"
            },
            {
              "internalType": "uint256",
              "name": "rewardAmount",
              "type": "uint256"
            }
          ],
          "internalType": "struct OrangeDistributor.MerkleRootData",
          "name": "_merkleData",
          "type": "tuple"
        }
      ],
      "name": "updateMerkleRoot",
      "outputs": [],
      "stateMutability": "nonpayable",
      "type": "function"
    },
    {
      "inputs": [],
      "name": "xSyk",
      "outputs": [
        {
          "internalType": "address",
          "name": "",
          "type": "address"
        }
      ],
      "stateMutability": "view",
      "type": "function"
    }
  ],
  "transactionHash": "0xf1c87a68bc3500d6259835f459ae522cf96912bc2b410b93bd235d1edc8682b9",
  "args": [],
  "numDeployments": 3,
  "solcInputHash": "f7c106315b8ed88e04d37ef5d3fca89a",
  "bytecode": "0x6080604052348015600f57600080fd5b506132498061001f6000396000f3fe608060405234801561001057600080fd5b50600436106101215760003560e01c80638da5cb5b116100ad578063cf24eb2411610071578063cf24eb2414610305578063f2fde38b14610323578063f5f492961461033f578063f77c47911461036f578063fabed4121461038d57610121565b80638da5cb5b1461024e578063a43ca3711461026c578063b9a09fd514610288578063c4d66de8146102b8578063cbd6309f146102d457610121565b8063237e6d64116100f4578063237e6d64146101d2578063383a0d53146101ee5780634c55b7de1461020a5780635e80b74514610228578063715018a61461024457610121565b806302800ebd1461012657806307995509146101565780631a5289a9146101725780631fa8d0ba146101a2575b600080fd5b610140600480360381019061013b91906124b0565b6103a9565b60405161014d91906124ff565b60405180910390f35b610170600480360381019061016b919061262b565b6103ce565b005b61018c60048036038101906101879190612714565b61048b565b60405161019991906124ff565b60405180910390f35b6101bc60048036038101906101b79190612767565b6104bd565b6040516101c991906127af565b60405180910390f35b6101ec60048036038101906101e791906127ca565b6105a1565b005b61020860048036038101906102039190612767565b6106f9565b005b610212610b11565b60405161021f9190612819565b60405180910390f35b610242600480360381019061023d919061294b565b610b37565b005b61024c610d6e565b005b610256610eab565b6040516102639190612819565b60405180910390f35b610286600480360381019061028191906124b0565b610ed5565b005b6102a2600480360381019061029d9190612767565b610fe7565b6040516102af9190612819565b60405180910390f35b6102d260048036038101906102cd91906129dc565b61101a565b005b6102ee60048036038101906102e991906127ca565b6110fd565b6040516102fc929190612a18565b60405180910390f35b61030d61112e565b60405161031a9190612819565b60405180910390f35b61033d60048036038101906103389190612767565b611154565b005b61035960048036038101906103549190612767565b6112ff565b60405161036691906124ff565b60405180910390f35b610377611317565b6040516103849190612aa0565b60405180910390f35b6103a760048036038101906103a29190612b11565b61133d565b005b6066602052816000526040600020602052806000526040600020600091509150505481565b60005b88889050811015610480576104738989838181106103f2576103f1612b99565b5b90506020020160208101906104079190612767565b88888481811061041a57610419612b99565b5b905060200201602081019061042f9190612767565b87878581811061044257610441612b99565b5b9050602002013586868681811061045c5761045b612b99565b5b905060200281019061046e9190612bd7565b61133d565b80806001019150506103d1565b505050505050505050565b606c60205282600052604060002060205281600052604060002060205280600052604060002060009250925050505481565b6000606860009054906101000a900473ffffffffffffffffffffffffffffffffffffffff1673ffffffffffffffffffffffffffffffffffffffff1663cafef3b5606560008573ffffffffffffffffffffffffffffffffffffffff1673ffffffffffffffffffffffffffffffffffffffff168152602001908152602001600020546040518263ffffffff1660e01b815260040161055991906124ff565b602060405180830381865afa158015610576573d6000803e3d6000fd5b505050506040513d601f19601f8201168201806040525081019061059a9190612c66565b9050919050565b6105a961180b565b73ffffffffffffffffffffffffffffffffffffffff166105c7610eab565b73ffffffffffffffffffffffffffffffffffffffff161461061d576040517f08c379a000000000000000000000000000000000000000000000000000000000815260040161061490612cf0565b60405180910390fd5b80606760008473ffffffffffffffffffffffffffffffffffffffff1673ffffffffffffffffffffffffffffffffffffffff16815260200190815260200160002060006101000a81548173ffffffffffffffffffffffffffffffffffffffff021916908373ffffffffffffffffffffffffffffffffffffffff1602179055508073ffffffffffffffffffffffffffffffffffffffff168273ffffffffffffffffffffffffffffffffffffffff167fb980a40e5b6e992493967c8460db4d84575ad3246c3a17141fa7756ae4dd718060405160405180910390a35050565b61070161180b565b73ffffffffffffffffffffffffffffffffffffffff1661071f610eab565b73ffffffffffffffffffffffffffffffffffffffff1614610775576040517f08c379a000000000000000000000000000000000000000000000000000000000815260040161076c90612cf0565b60405180910390fd5b6000606960009054906101000a900473ffffffffffffffffffffffffffffffffffffffff1673ffffffffffffffffffffffffffffffffffffffff166370a08231306040518263ffffffff1660e01b81526004016107d29190612819565b602060405180830381865afa1580156107ef573d6000803e3d6000fd5b505050506040513d601f19601f820116820180604052508101906108139190612d25565b9050606760008373ffffffffffffffffffffffffffffffffffffffff1673ffffffffffffffffffffffffffffffffffffffff16815260200190815260200160002060009054906101000a900473ffffffffffffffffffffffffffffffffffffffff1673ffffffffffffffffffffffffffffffffffffffff16634d0392a8606560008573ffffffffffffffffffffffffffffffffffffffff1673ffffffffffffffffffffffffffffffffffffffff168152602001908152602001600020546040518263ffffffff1660e01b81526004016108ec91906124ff565b600060405180830381600087803b15801561090657600080fd5b505af115801561091a573d6000803e3d6000fd5b505050506000606960009054906101000a900473ffffffffffffffffffffffffffffffffffffffff1673ffffffffffffffffffffffffffffffffffffffff166370a08231306040518263ffffffff1660e01b815260040161097b9190612819565b602060405180830381865afa158015610998573d6000803e3d6000fd5b505050506040513d601f19601f820116820180604052508101906109bc9190612d25565b905081816109ca9190612d81565b606660008573ffffffffffffffffffffffffffffffffffffffff1673ffffffffffffffffffffffffffffffffffffffff1681526020019081526020016000206000606560008773ffffffffffffffffffffffffffffffffffffffff1673ffffffffffffffffffffffffffffffffffffffff168152602001908152602001600020548152602001908152602001600020819055506001606560008573ffffffffffffffffffffffffffffffffffffffff1673ffffffffffffffffffffffffffffffffffffffff1681526020019081526020016000206000828254610aad9190612db5565b925050819055508273ffffffffffffffffffffffffffffffffffffffff167e703dec1352f06629844a1575eb327cd01fd616d236d2394468fa6f410b33158383610af79190612d81565b604051610b0491906124ff565b60405180910390a2505050565b606960009054906101000a900473ffffffffffffffffffffffffffffffffffffffff1681565b610b3f61180b565b73ffffffffffffffffffffffffffffffffffffffff16610b5d610eab565b73ffffffffffffffffffffffffffffffffffffffff1614610bb3576040517f08c379a0000000000000000000000000000000000000000000000000000000008152600401610baa90612cf0565b60405180910390fd5b606b60008473ffffffffffffffffffffffffffffffffffffffff1673ffffffffffffffffffffffffffffffffffffffff16815260200190815260200160002060008373ffffffffffffffffffffffffffffffffffffffff1673ffffffffffffffffffffffffffffffffffffffff1681526020019081526020016000206001015481602001511015610c70576040517f3853986500000000000000000000000000000000000000000000000000000000815260040160405180910390fd5b80606b60008573ffffffffffffffffffffffffffffffffffffffff1673ffffffffffffffffffffffffffffffffffffffff16815260200190815260200160002060008473ffffffffffffffffffffffffffffffffffffffff1673ffffffffffffffffffffffffffffffffffffffff16815260200190815260200160002060008201518160000155602082015181600101559050508173ffffffffffffffffffffffffffffffffffffffff168373ffffffffffffffffffffffffffffffffffffffff167fc9df8cf0748f360de9e7d58d20c32432c6c0636180f2393c72898e35c1ebf9a183604051610d619190612e36565b60405180910390a3505050565b610d7661180b565b73ffffffffffffffffffffffffffffffffffffffff16610d94610eab565b73ffffffffffffffffffffffffffffffffffffffff1614610dea576040517f08c379a0000000000000000000000000000000000000000000000000000000008152600401610de190612cf0565b60405180910390fd5b600073ffffffffffffffffffffffffffffffffffffffff16603360009054906101000a900473ffffffffffffffffffffffffffffffffffffffff1673ffffffffffffffffffffffffffffffffffffffff167f8be0079c531659141344cd1fd0a4f28419497f9722a3daafe3b4186f6b6457e060405160405180910390a36000603360006101000a81548173ffffffffffffffffffffffffffffffffffffffff021916908373ffffffffffffffffffffffffffffffffffffffff160217905550565b6000603360009054906101000a900473ffffffffffffffffffffffffffffffffffffffff16905090565b610edd61180b565b73ffffffffffffffffffffffffffffffffffffffff16610efb610eab565b73ffffffffffffffffffffffffffffffffffffffff1614610f51576040517f08c379a0000000000000000000000000000000000000000000000000000000008152600401610f4890612cf0565b60405180910390fd5b80606560008473ffffffffffffffffffffffffffffffffffffffff1673ffffffffffffffffffffffffffffffffffffffff168152602001908152602001600020819055508173ffffffffffffffffffffffffffffffffffffffff167fe86ed049b5d71416d6cb2ba84637b8c149c2c5c731523d36388511500c7152b182604051610fdb91906124ff565b60405180910390a25050565b60676020528060005260406000206000915054906101000a900473ffffffffffffffffffffffffffffffffffffffff1681565b600060019054906101000a900460ff1680611040575060008054906101000a900460ff16155b61107f576040517f08c379a000000000000000000000000000000000000000000000000000000000815260040161107690612ec3565b60405180910390fd5b60008060019054906101000a900460ff1615905080156110cf576001600060016101000a81548160ff02191690831515021790555060016000806101000a81548160ff0219169083151502179055505b6110d882611813565b80156110f95760008060016101000a81548160ff0219169083151502179055505b5050565b606b602052816000526040600020602052806000526040600020600091509150508060000154908060010154905082565b606a60009054906101000a900473ffffffffffffffffffffffffffffffffffffffff1681565b61115c61180b565b73ffffffffffffffffffffffffffffffffffffffff1661117a610eab565b73ffffffffffffffffffffffffffffffffffffffff16146111d0576040517f08c379a00000000000000000000000000000000000000000000000000000000081526004016111c790612cf0565b60405180910390fd5b600073ffffffffffffffffffffffffffffffffffffffff168173ffffffffffffffffffffffffffffffffffffffff160361123f576040517f08c379a000000000000000000000000000000000000000000000000000000000815260040161123690612f55565b60405180910390fd5b8073ffffffffffffffffffffffffffffffffffffffff16603360009054906101000a900473ffffffffffffffffffffffffffffffffffffffff1673ffffffffffffffffffffffffffffffffffffffff167f8be0079c531659141344cd1fd0a4f28419497f9722a3daafe3b4186f6b6457e060405160405180910390a380603360006101000a81548173ffffffffffffffffffffffffffffffffffffffff021916908373ffffffffffffffffffffffffffffffffffffffff16021790555050565b60656020528060005260406000206000915090505481565b606860009054906101000a900473ffffffffffffffffffffffffffffffffffffffff1681565b82606c60008773ffffffffffffffffffffffffffffffffffffffff1673ffffffffffffffffffffffffffffffffffffffff16815260200190815260200160002060008673ffffffffffffffffffffffffffffffffffffffff1673ffffffffffffffffffffffffffffffffffffffff16815260200190815260200160002060003373ffffffffffffffffffffffffffffffffffffffff1673ffffffffffffffffffffffffffffffffffffffff16815260200190815260200160002060008282546114069190612db5565b92505081905550600033606c60008873ffffffffffffffffffffffffffffffffffffffff1673ffffffffffffffffffffffffffffffffffffffff16815260200190815260200160002060008773ffffffffffffffffffffffffffffffffffffffff1673ffffffffffffffffffffffffffffffffffffffff16815260200190815260200160002060003373ffffffffffffffffffffffffffffffffffffffff1673ffffffffffffffffffffffffffffffffffffffff168152602001908152602001600020546040516020016114db929190612fde565b60405160208183030381529060405280519060200120905061157e8383606b60008a73ffffffffffffffffffffffffffffffffffffffff1673ffffffffffffffffffffffffffffffffffffffff16815260200190815260200160002060008973ffffffffffffffffffffffffffffffffffffffff1673ffffffffffffffffffffffffffffffffffffffff1681526020019081526020016000206000015484611ad8565b6115b4576040517f09bde33900000000000000000000000000000000000000000000000000000000815260040160405180910390fd5b606960009054906101000a900473ffffffffffffffffffffffffffffffffffffffff1673ffffffffffffffffffffffffffffffffffffffff168573ffffffffffffffffffffffffffffffffffffffff160361175b57611684606a60009054906101000a900473ffffffffffffffffffffffffffffffffffffffff1660028661163c9190613039565b606960009054906101000a900473ffffffffffffffffffffffffffffffffffffffff1673ffffffffffffffffffffffffffffffffffffffff16611af19092919063ffffffff16565b606a60009054906101000a900473ffffffffffffffffffffffffffffffffffffffff1673ffffffffffffffffffffffffffffffffffffffff16633a2ee2526002866116cf9190613039565b336040518363ffffffff1660e01b81526004016116ed92919061306a565b600060405180830381600087803b15801561170757600080fd5b505af115801561171b573d6000803e3d6000fd5b50505050611756336002866117309190613039565b8773ffffffffffffffffffffffffffffffffffffffff16611b8d9092919063ffffffff16565b611787565b61178633858773ffffffffffffffffffffffffffffffffffffffff16611b8d9092919063ffffffff16565b5b8473ffffffffffffffffffffffffffffffffffffffff168673ffffffffffffffffffffffffffffffffffffffff163373ffffffffffffffffffffffffffffffffffffffff167f2422cac5e23c46c890fdcf42d0c64757409df6832174df639337558f09d99c68876040516117fb91906124ff565b60405180910390a4505050505050565b600033905090565b600060019054906101000a900460ff1680611839575060008054906101000a900460ff16155b611878576040517f08c379a000000000000000000000000000000000000000000000000000000000815260040161186f90612ec3565b60405180910390fd5b60008060019054906101000a900460ff1615905080156118c8576001600060016101000a81548160ff02191690831515021790555060016000806101000a81548160ff0219169083151502179055505b6118d0611c0c565b81606860006101000a81548173ffffffffffffffffffffffffffffffffffffffff021916908373ffffffffffffffffffffffffffffffffffffffff160217905550606860009054906101000a900473ffffffffffffffffffffffffffffffffffffffff1673ffffffffffffffffffffffffffffffffffffffff16634c55b7de6040518163ffffffff1660e01b8152600401602060405180830381865afa15801561197e573d6000803e3d6000fd5b505050506040513d601f19601f820116820180604052508101906119a291906130a8565b606960006101000a81548173ffffffffffffffffffffffffffffffffffffffff021916908373ffffffffffffffffffffffffffffffffffffffff160217905550606860009054906101000a900473ffffffffffffffffffffffffffffffffffffffff1673ffffffffffffffffffffffffffffffffffffffff1663cf24eb246040518163ffffffff1660e01b8152600401602060405180830381865afa158015611a4f573d6000803e3d6000fd5b505050506040513d601f19601f82011682018060405250810190611a7391906130a8565b606a60006101000a81548173ffffffffffffffffffffffffffffffffffffffff021916908373ffffffffffffffffffffffffffffffffffffffff1602179055508015611ad45760008060016101000a81548160ff0219169083151502179055505b5050565b600082611ae6868685611cf5565b149050949350505050565b60008373ffffffffffffffffffffffffffffffffffffffff1663dd62ed3e30856040518363ffffffff1660e01b8152600401611b2e9291906130d5565b602060405180830381865afa158015611b4b573d6000803e3d6000fd5b505050506040513d601f19601f82011682018060405250810190611b6f9190612d25565b9050611b8784848484611b829190612db5565b611d47565b50505050565b611c07838473ffffffffffffffffffffffffffffffffffffffff1663a9059cbb8585604051602401611bc09291906130fe565b604051602081830303815290604052915060e01b6020820180517bffffffffffffffffffffffffffffffffffffffffffffffffffffffff8381831617835250505050611e56565b505050565b600060019054906101000a900460ff1680611c32575060008054906101000a900460ff16155b611c71576040517f08c379a0000000000000000000000000000000000000000000000000000000008152600401611c6890612ec3565b60405180910390fd5b60008060019054906101000a900460ff161590508015611cc1576001600060016101000a81548160ff02191690831515021790555060016000806101000a81548160ff0219169083151502179055505b611cc9611eed565b611cd1611fc6565b8015611cf25760008060016101000a81548160ff0219169083151502179055505b50565b60008082905060005b85859050811015611d3b57611d2c82878784818110611d2057611d1f612b99565b5b90506020020135612148565b91508080600101915050611cfe565b50809150509392505050565b60008373ffffffffffffffffffffffffffffffffffffffff1663095ea7b38484604051602401611d789291906130fe565b604051602081830303815290604052915060e01b6020820180517bffffffffffffffffffffffffffffffffffffffffffffffffffffffff83818316178352505050509050611dc68482612173565b611e5057611e45848573ffffffffffffffffffffffffffffffffffffffff1663095ea7b3866000604051602401611dfe929190613162565b604051602081830303815290604052915060e01b6020820180517bffffffffffffffffffffffffffffffffffffffffffffffffffffffff8381831617835250505050611e56565b611e4f8482611e56565b5b50505050565b6000611e81828473ffffffffffffffffffffffffffffffffffffffff1661223a90919063ffffffff16565b90506000815114158015611ea6575080806020019051810190611ea49190612c66565b155b15611ee857826040517f5274afe7000000000000000000000000000000000000000000000000000000008152600401611edf9190612819565b60405180910390fd5b505050565b600060019054906101000a900460ff1680611f13575060008054906101000a900460ff16155b611f52576040517f08c379a0000000000000000000000000000000000000000000000000000000008152600401611f4990612ec3565b60405180910390fd5b60008060019054906101000a900460ff161590508015611fa2576001600060016101000a81548160ff02191690831515021790555060016000806101000a81548160ff0219169083151502179055505b8015611fc35760008060016101000a81548160ff0219169083151502179055505b50565b600060019054906101000a900460ff1680611fec575060008054906101000a900460ff16155b61202b576040517f08c379a000000000000000000000000000000000000000000000000000000000815260040161202290612ec3565b60405180910390fd5b60008060019054906101000a900460ff16159050801561207b576001600060016101000a81548160ff02191690831515021790555060016000806101000a81548160ff0219169083151502179055505b600061208561180b565b905080603360006101000a81548173ffffffffffffffffffffffffffffffffffffffff021916908373ffffffffffffffffffffffffffffffffffffffff1602179055508073ffffffffffffffffffffffffffffffffffffffff16600073ffffffffffffffffffffffffffffffffffffffff167f8be0079c531659141344cd1fd0a4f28419497f9722a3daafe3b4186f6b6457e060405160405180910390a35080156121455760008060016101000a81548160ff0219169083151502179055505b50565b60008183106121605761215b8284612250565b61216b565b61216a8383612250565b5b905092915050565b60008060008473ffffffffffffffffffffffffffffffffffffffff168460405161219d91906131fc565b6000604051808303816000865af19150503d80600081146121da576040519150601f19603f3d011682016040523d82523d6000602084013e6121df565b606091505b509150915081801561220d575060008151148061220c57508080602001905181019061220b9190612c66565b5b5b8015612230575060008573ffffffffffffffffffffffffffffffffffffffff163b115b9250505092915050565b606061224883836000612267565b905092915050565b600082600052816020526040600020905092915050565b6060814710156122ae57306040517fcd7860590000000000000000000000000000000000000000000000000000000081526004016122a59190612819565b60405180910390fd5b6000808573ffffffffffffffffffffffffffffffffffffffff1684866040516122d791906131fc565b60006040518083038185875af1925050503d8060008114612314576040519150601f19603f3d011682016040523d82523d6000602084013e612319565b606091505b5091509150612329868383612334565b925050509392505050565b60608261234957612344826123c3565b6123bb565b60008251148015612371575060008473ffffffffffffffffffffffffffffffffffffffff163b145b156123b357836040517f9996b3150000000000000000000000000000000000000000000000000000000081526004016123aa9190612819565b60405180910390fd5b8190506123bc565b5b9392505050565b6000815111156123d65780518082602001fd5b6040517f1425ea4200000000000000000000000000000000000000000000000000000000815260040160405180910390fd5b6000604051905090565b600080fd5b600080fd5b600073ffffffffffffffffffffffffffffffffffffffff82169050919050565b60006124478261241c565b9050919050565b6124578161243c565b811461246257600080fd5b50565b6000813590506124748161244e565b92915050565b6000819050919050565b61248d8161247a565b811461249857600080fd5b50565b6000813590506124aa81612484565b92915050565b600080604083850312156124c7576124c6612412565b5b60006124d585828601612465565b92505060206124e68582860161249b565b9150509250929050565b6124f98161247a565b82525050565b600060208201905061251460008301846124f0565b92915050565b600080fd5b600080fd5b600080fd5b60008083601f84011261253f5761253e61251a565b5b8235905067ffffffffffffffff81111561255c5761255b61251f565b5b60208301915083602082028301111561257857612577612524565b5b9250929050565b60008083601f8401126125955761259461251a565b5b8235905067ffffffffffffffff8111156125b2576125b161251f565b5b6020830191508360208202830111156125ce576125cd612524565b5b9250929050565b60008083601f8401126125eb576125ea61251a565b5b8235905067ffffffffffffffff8111156126085761260761251f565b5b60208301915083602082028301111561262457612623612524565b5b9250929050565b6000806000806000806000806080898b03121561264b5761264a612412565b5b600089013567ffffffffffffffff81111561266957612668612417565b5b6126758b828c01612529565b9850985050602089013567ffffffffffffffff81111561269857612697612417565b5b6126a48b828c01612529565b9650965050604089013567ffffffffffffffff8111156126c7576126c6612417565b5b6126d38b828c0161257f565b9450945050606089013567ffffffffffffffff8111156126f6576126f5612417565b5b6127028b828c016125d5565b92509250509295985092959890939650565b60008060006060848603121561272d5761272c612412565b5b600061273b86828701612465565b935050602061274c86828701612465565b925050604061275d86828701612465565b9150509250925092565b60006020828403121561277d5761277c612412565b5b600061278b84828501612465565b91505092915050565b60008115159050919050565b6127a981612794565b82525050565b60006020820190506127c460008301846127a0565b92915050565b600080604083850312156127e1576127e0612412565b5b60006127ef85828601612465565b925050602061280085828601612465565b9150509250929050565b6128138161243c565b82525050565b600060208201905061282e600083018461280a565b92915050565b600080fd5b6000601f19601f8301169050919050565b7f4e487b7100000000000000000000000000000000000000000000000000000000600052604160045260246000fd5b61288282612839565b810181811067ffffffffffffffff821117156128a1576128a061284a565b5b80604052505050565b60006128b4612408565b90506128c08282612879565b919050565b6000819050919050565b6128d8816128c5565b81146128e357600080fd5b50565b6000813590506128f5816128cf565b92915050565b60006040828403121561291157612910612834565b5b61291b60406128aa565b9050600061292b848285016128e6565b600083015250602061293f8482850161249b565b60208301525092915050565b60008060006080848603121561296457612963612412565b5b600061297286828701612465565b935050602061298386828701612465565b9250506040612994868287016128fb565b9150509250925092565b60006129a98261243c565b9050919050565b6129b98161299e565b81146129c457600080fd5b50565b6000813590506129d6816129b0565b92915050565b6000602082840312156129f2576129f1612412565b5b6000612a00848285016129c7565b91505092915050565b612a12816128c5565b82525050565b6000604082019050612a2d6000830185612a09565b612a3a60208301846124f0565b9392505050565b6000819050919050565b6000612a66612a61612a5c8461241c565b612a41565b61241c565b9050919050565b6000612a7882612a4b565b9050919050565b6000612a8a82612a6d565b9050919050565b612a9a81612a7f565b82525050565b6000602082019050612ab56000830184612a91565b92915050565b60008083601f840112612ad157612ad061251a565b5b8235905067ffffffffffffffff811115612aee57612aed61251f565b5b602083019150836020820283011115612b0a57612b09612524565b5b9250929050565b600080600080600060808688031215612b2d57612b2c612412565b5b6000612b3b88828901612465565b9550506020612b4c88828901612465565b9450506040612b5d8882890161249b565b935050606086013567ffffffffffffffff811115612b7e57612b7d612417565b5b612b8a88828901612abb565b92509250509295509295909350565b7f4e487b7100000000000000000000000000000000000000000000000000000000600052603260045260246000fd5b600080fd5b600080fd5b600080fd5b60008083356001602003843603038112612bf457612bf3612bc8565b5b80840192508235915067ffffffffffffffff821115612c1657612c15612bcd565b5b602083019250602082023603831315612c3257612c31612bd2565b5b509250929050565b612c4381612794565b8114612c4e57600080fd5b50565b600081519050612c6081612c3a565b92915050565b600060208284031215612c7c57612c7b612412565b5b6000612c8a84828501612c51565b91505092915050565b600082825260208201905092915050565b7f4f776e61626c653a2063616c6c6572206973206e6f7420746865206f776e6572600082015250565b6000612cda602083612c93565b9150612ce582612ca4565b602082019050919050565b60006020820190508181036000830152612d0981612ccd565b9050919050565b600081519050612d1f81612484565b92915050565b600060208284031215612d3b57612d3a612412565b5b6000612d4984828501612d10565b91505092915050565b7f4e487b7100000000000000000000000000000000000000000000000000000000600052601160045260246000fd5b6000612d8c8261247a565b9150612d978361247a565b9250828203905081811115612daf57612dae612d52565b5b92915050565b6000612dc08261247a565b9150612dcb8361247a565b9250828201905080821115612de357612de2612d52565b5b92915050565b612df2816128c5565b82525050565b612e018161247a565b82525050565b604082016000820151612e1d6000850182612de9565b506020820151612e306020850182612df8565b50505050565b6000604082019050612e4b6000830184612e07565b92915050565b7f496e697469616c697a61626c653a20636f6e747261637420697320616c72656160008201527f647920696e697469616c697a6564000000000000000000000000000000000000602082015250565b6000612ead602e83612c93565b9150612eb882612e51565b604082019050919050565b60006020820190508181036000830152612edc81612ea0565b9050919050565b7f4f776e61626c653a206e6577206f776e657220697320746865207a65726f206160008201527f6464726573730000000000000000000000000000000000000000000000000000602082015250565b6000612f3f602683612c93565b9150612f4a82612ee3565b604082019050919050565b60006020820190508181036000830152612f6e81612f32565b9050919050565b60008160601b9050919050565b6000612f8d82612f75565b9050919050565b6000612f9f82612f82565b9050919050565b612fb7612fb28261243c565b612f94565b82525050565b6000819050919050565b612fd8612fd38261247a565b612fbd565b82525050565b6000612fea8285612fa6565b601482019150612ffa8284612fc7565b6020820191508190509392505050565b7f4e487b7100000000000000000000000000000000000000000000000000000000600052601260045260246000fd5b60006130448261247a565b915061304f8361247a565b92508261305f5761305e61300a565b5b828204905092915050565b600060408201905061307f60008301856124f0565b61308c602083018461280a565b9392505050565b6000815190506130a28161244e565b92915050565b6000602082840312156130be576130bd612412565b5b60006130cc84828501613093565b91505092915050565b60006040820190506130ea600083018561280a565b6130f7602083018461280a565b9392505050565b6000604082019050613113600083018561280a565b61312060208301846124f0565b9392505050565b6000819050919050565b600061314c61314761314284613127565b612a41565b61247a565b9050919050565b61315c81613131565b82525050565b6000604082019050613177600083018561280a565b6131846020830184613153565b9392505050565b600081519050919050565b600081905092915050565b60005b838110156131bf5780820151818401526020810190506131a4565b60008484015250505050565b60006131d68261318b565b6131e08185613196565b93506131f08185602086016131a1565b80840191505092915050565b600061320882846131cb565b91508190509291505056fea2646970667358221220bad35b4bc843a615b0a1180d8443eb8cfcfaec01f059e8d8e46febe60ab8221464736f6c634300081b0033",
  "devdoc": {
    "details": "In order to distribute token rewards for an orange vault, the reward amounts need to be calculated for the vault depositors off- chain. The total reward amount should be sent to the distributor contract, either by calling pullNext for syk rewards or transferring the tokens directly to the distributor. A merkle root then needs to be  calculated based on the amount of tokens that are to be distributed to each vault depositor (this is performed off chain) and sent to the  distributor contract via updateMerkleRoot",
    "errors": {
      "AddressEmptyCode(address)": [
        {
          "details": "There's no code at `target` (it is not a contract)."
        }
      ],
      "AddressInsufficientBalance(address)": [
        {
          "details": "The ETH balance of the account is not enough to perform the operation."
        }
      ],
      "FailedInnerCall()": [
        {
          "details": "A call to an address target failed. The target may have reverted."
        }
      ],
      "SafeERC20FailedOperation(address)": [
        {
          "details": "An operation with an ERC20 token failed."
        }
      ]
    },
    "kind": "dev",
    "methods": {
      "claim(address,address,uint256,bytes32[])": {
        "params": {
          "_amount": "Amount of token to claim as reward",
          "_token": "The token to claim",
          "_vault": "The vault for which to claim rewards",
          "merkleProof": "Merkle proof"
        }
      },
      "owner()": {
        "details": "Returns the address of the current owner."
      },
      "renounceOwnership()": {
        "details": "Leaves the contract without owner. It will not be possible to call `onlyOwner` functions anymore. Can only be called by the current owner. NOTE: Renouncing ownership will leave the contract without an owner, thereby removing any functionality that is only available to the owner."
      },
      "setGauge(address,address)": {
        "details": "SYKPuller needs to be made the owner of the gauge, to allow pulling reward"
      },
      "transferOwnership(address)": {
        "details": "Transfers ownership of the contract to a new account (`newOwner`). Can only be called by the current owner."
      },
      "updateMerkleRoot(address,address,(bytes32,uint256))": {
        "details": "_merkleData.rewardAmount should be the total amount of reward distributed for the vault since inception rather than the amount of reward distributed for a particular epoch",
        "params": {
          "_merkleData": "Struct containing merkle root and total reward amount to be distributed",
          "_token": "The reward token for the vault",
          "_vault": "The vault whose token is to be distributed using the merkle root"
        }
      }
    },
    "version": 1
  },
  "userdoc": {
    "kind": "user",
    "methods": {
      "batchClaim(address[],address[],uint256[],bytes32[][])": {
        "notice": "Claim multiple token rewards in a single call"
      },
      "canPullNext(address)": {
        "notice": "Check if the rewards for the next epoch can be pulled"
      },
      "claim(address,address,uint256,bytes32[])": {
        "notice": "Claim all the token rewards for a vault"
      },
      "pullNext(address)": {
        "notice": "Pull the rewards for the next epoch from the gauge"
      },
      "setGauge(address,address)": {
        "notice": "Set the gauge for an orange vault"
      },
      "skipPulls(address,uint256)": {
        "notice": "Admin function to manually set the next epoch whose rewards will be pulled."
      },
      "updateMerkleRoot(address,address,(bytes32,uint256))": {
        "notice": "Update the merkle root for the reward token distribution of a vault"
      }
    },
    "notice": "Contract for distributing token rewards to Orange vault depositors. The contract is able to distribute token rewards distributed by stryke via their gauges as well as any ERC20 token transferred to the OrangeDistributor contract",
    "version": 1
  },
  "storageLayout": {
    "storage": [
      {
        "astId": 136,
        "contract": "contracts/OrangeDistributor.sol:OrangeDistributor",
        "label": "_initialized",
        "offset": 0,
        "slot": "0",
        "type": "t_bool"
      },
      {
        "astId": 139,
        "contract": "contracts/OrangeDistributor.sol:OrangeDistributor",
        "label": "_initializing",
        "offset": 1,
        "slot": "0",
        "type": "t_bool"
      },
      {
        "astId": 220,
        "contract": "contracts/OrangeDistributor.sol:OrangeDistributor",
        "label": "__gap",
        "offset": 0,
        "slot": "1",
        "type": "t_array(t_uint256)50_storage"
      },
      {
        "astId": 10,
        "contract": "contracts/OrangeDistributor.sol:OrangeDistributor",
        "label": "_owner",
        "offset": 0,
        "slot": "51",
        "type": "t_address"
      },
      {
        "astId": 129,
        "contract": "contracts/OrangeDistributor.sol:OrangeDistributor",
        "label": "__gap",
        "offset": 0,
        "slot": "52",
        "type": "t_array(t_uint256)49_storage"
      },
      {
        "astId": 2448,
        "contract": "contracts/OrangeDistributor.sol:OrangeDistributor",
        "label": "nextStrykeEpochToPull",
        "offset": 0,
        "slot": "101",
        "type": "t_mapping(t_address,t_uint256)"
      },
      {
        "astId": 2454,
        "contract": "contracts/OrangeDistributor.sol:OrangeDistributor",
        "label": "epochRewards",
        "offset": 0,
        "slot": "102",
        "type": "t_mapping(t_address,t_mapping(t_uint256,t_uint256))"
      },
      {
        "astId": 2458,
        "contract": "contracts/OrangeDistributor.sol:OrangeDistributor",
        "label": "gauges",
        "offset": 0,
        "slot": "103",
        "type": "t_mapping(t_address,t_address)"
      },
      {
        "astId": 2461,
        "contract": "contracts/OrangeDistributor.sol:OrangeDistributor",
        "label": "controller",
        "offset": 0,
        "slot": "104",
        "type": "t_contract(IGaugeController)2785"
      },
      {
        "astId": 2463,
        "contract": "contracts/OrangeDistributor.sol:OrangeDistributor",
        "label": "syk",
        "offset": 0,
        "slot": "105",
        "type": "t_address"
      },
      {
        "astId": 2465,
        "contract": "contracts/OrangeDistributor.sol:OrangeDistributor",
        "label": "xSyk",
        "offset": 0,
        "slot": "106",
        "type": "t_address"
      },
      {
        "astId": 2182,
        "contract": "contracts/OrangeDistributor.sol:OrangeDistributor",
        "label": "merkleRootData",
        "offset": 0,
        "slot": "107",
        "type": "t_mapping(t_address,t_mapping(t_address,t_struct(MerkleRootData)2152_storage))"
      },
      {
        "astId": 2190,
        "contract": "contracts/OrangeDistributor.sol:OrangeDistributor",
        "label": "claimed",
        "offset": 0,
        "slot": "108",
        "type": "t_mapping(t_address,t_mapping(t_address,t_mapping(t_address,t_uint256)))"
      }
    ],
    "types": {
      "t_address": {
        "encoding": "inplace",
        "label": "address",
        "numberOfBytes": "20"
      },
      "t_array(t_uint256)49_storage": {
        "base": "t_uint256",
        "encoding": "inplace",
        "label": "uint256[49]",
        "numberOfBytes": "1568"
      },
      "t_array(t_uint256)50_storage": {
        "base": "t_uint256",
        "encoding": "inplace",
        "label": "uint256[50]",
        "numberOfBytes": "1600"
      },
      "t_bool": {
        "encoding": "inplace",
        "label": "bool",
        "numberOfBytes": "1"
      },
      "t_bytes32": {
        "encoding": "inplace",
        "label": "bytes32",
        "numberOfBytes": "32"
      },
      "t_contract(IGaugeController)2785": {
        "encoding": "inplace",
        "label": "contract IGaugeController",
        "numberOfBytes": "20"
      },
      "t_mapping(t_address,t_address)": {
        "encoding": "mapping",
        "key": "t_address",
        "label": "mapping(address => address)",
        "numberOfBytes": "32",
        "value": "t_address"
      },
      "t_mapping(t_address,t_mapping(t_address,t_mapping(t_address,t_uint256)))": {
        "encoding": "mapping",
        "key": "t_address",
        "label": "mapping(address => mapping(address => mapping(address => uint256)))",
        "numberOfBytes": "32",
        "value": "t_mapping(t_address,t_mapping(t_address,t_uint256))"
      },
      "t_mapping(t_address,t_mapping(t_address,t_struct(MerkleRootData)2152_storage))": {
        "encoding": "mapping",
        "key": "t_address",
        "label": "mapping(address => mapping(address => struct OrangeDistributor.MerkleRootData))",
        "numberOfBytes": "32",
        "value": "t_mapping(t_address,t_struct(MerkleRootData)2152_storage)"
      },
      "t_mapping(t_address,t_mapping(t_address,t_uint256))": {
        "encoding": "mapping",
        "key": "t_address",
        "label": "mapping(address => mapping(address => uint256))",
        "numberOfBytes": "32",
        "value": "t_mapping(t_address,t_uint256)"
      },
      "t_mapping(t_address,t_mapping(t_uint256,t_uint256))": {
        "encoding": "mapping",
        "key": "t_address",
        "label": "mapping(address => mapping(uint256 => uint256))",
        "numberOfBytes": "32",
        "value": "t_mapping(t_uint256,t_uint256)"
      },
      "t_mapping(t_address,t_struct(MerkleRootData)2152_storage)": {
        "encoding": "mapping",
        "key": "t_address",
        "label": "mapping(address => struct OrangeDistributor.MerkleRootData)",
        "numberOfBytes": "32",
        "value": "t_struct(MerkleRootData)2152_storage"
      },
      "t_mapping(t_address,t_uint256)": {
        "encoding": "mapping",
        "key": "t_address",
        "label": "mapping(address => uint256)",
        "numberOfBytes": "32",
        "value": "t_uint256"
      },
      "t_mapping(t_uint256,t_uint256)": {
        "encoding": "mapping",
        "key": "t_uint256",
        "label": "mapping(uint256 => uint256)",
        "numberOfBytes": "32",
        "value": "t_uint256"
      },
      "t_struct(MerkleRootData)2152_storage": {
        "encoding": "inplace",
        "label": "struct OrangeDistributor.MerkleRootData",
        "members": [
          {
            "astId": 2149,
            "contract": "contracts/OrangeDistributor.sol:OrangeDistributor",
            "label": "root",
            "offset": 0,
            "slot": "0",
            "type": "t_bytes32"
          },
          {
            "astId": 2151,
            "contract": "contracts/OrangeDistributor.sol:OrangeDistributor",
            "label": "rewardAmount",
            "offset": 0,
            "slot": "1",
            "type": "t_uint256"
          }
        ],
        "numberOfBytes": "64"
      },
      "t_uint256": {
        "encoding": "inplace",
        "label": "uint256",
        "numberOfBytes": "32"
      }
    }
  }
}