{
  "address": "0x87E27AE2512F0Dc50a563548C513D3b437D3c628",
  "abi": [
    {
      "inputs": [],
      "stateMutability": "nonpayable",
      "type": "constructor"
    },
    {
      "inputs": [
        {
          "internalType": "address",
          "name": "target",
          "type": "address"
        }
      ],
      "name": "AddressEmptyCode",
      "type": "error"
    },
    {
      "inputs": [
        {
          "internalType": "address",
          "name": "account",
          "type": "address"
        }
      ],
      "name": "AddressInsufficientBalance",
      "type": "error"
    },
    {
      "inputs": [],
      "name": "FailedInnerCall",
      "type": "error"
    },
    {
      "inputs": [],
      "name": "InvalidEpoch",
      "type": "error"
    },
    {
      "inputs": [],
      "name": "InvalidProof",
      "type": "error"
    },
    {
      "inputs": [],
      "name": "InvalidRewardAmount",
      "type": "error"
    },
    {
      "inputs": [
        {
          "internalType": "address",
          "name": "token",
          "type": "address"
        }
      ],
      "name": "SafeERC20FailedOperation",
      "type": "error"
    },
    {
      "anonymous": false,
      "inputs": [
        {
          "indexed": true,
          "internalType": "address",
          "name": "_vault",
          "type": "address"
        },
        {
          "indexed": true,
          "internalType": "address",
          "name": "_token",
          "type": "address"
        },
        {
          "components": [
            {
              "internalType": "bytes32",
              "name": "root",
              "type": "bytes32"
            },
            {
              "internalType": "uint256",
              "name": "rewardAmount",
              "type": "uint256"
            }
          ],
          "indexed": false,
          "internalType": "struct OrangeDistributor.MerkleRootData",
          "name": "_newMerkleRoot",
          "type": "tuple"
        }
      ],
      "name": "MerkleRootUpdated",
      "type": "event"
    },
    {
      "anonymous": false,
      "inputs": [
        {
          "indexed": true,
          "internalType": "address",
          "name": "previousOwner",
          "type": "address"
        },
        {
          "indexed": true,
          "internalType": "address",
          "name": "newOwner",
          "type": "address"
        }
      ],
      "name": "OwnershipTransferred",
      "type": "event"
    },
    {
      "anonymous": false,
      "inputs": [
        {
          "indexed": true,
          "internalType": "address",
          "name": "_user",
          "type": "address"
        },
        {
          "indexed": true,
          "internalType": "address",
          "name": "_vault",
          "type": "address"
        },
        {
          "indexed": true,
          "internalType": "address",
          "name": "token",
          "type": "address"
        },
        {
          "indexed": false,
          "internalType": "uint256",
          "name": "_amount",
          "type": "uint256"
        }
      ],
      "name": "RewardClaimed",
      "type": "event"
    },
    {
      "anonymous": false,
      "inputs": [
        {
          "indexed": true,
          "internalType": "address",
          "name": "_vault",
          "type": "address"
        },
        {
          "indexed": false,
          "internalType": "uint256",
          "name": "_amount",
          "type": "uint256"
        }
      ],
      "name": "RewardPulled",
      "type": "event"
    },
    {
      "anonymous": false,
      "inputs": [
        {
          "indexed": true,
          "internalType": "address",
          "name": "_vault",
          "type": "address"
        },
        {
          "indexed": true,
          "internalType": "address",
          "name": "_gauge",
          "type": "address"
        }
      ],
      "name": "SetGauge",
      "type": "event"
    },
    {
      "anonymous": false,
      "inputs": [
        {
          "indexed": true,
          "internalType": "address",
          "name": "_vault",
          "type": "address"
        },
        {
          "indexed": false,
          "internalType": "uint256",
          "name": "_nextEpochToPull",
          "type": "uint256"
        }
      ],
      "name": "SkipPulls",
      "type": "event"
    },
    {
      "inputs": [
        {
          "internalType": "address",
          "name": "_vault",
          "type": "address"
        }
      ],
      "name": "canPullNext",
      "outputs": [
        {
          "internalType": "bool",
          "name": "",
          "type": "bool"
        }
      ],
      "stateMutability": "view",
      "type": "function"
    },
    {
      "inputs": [
        {
          "internalType": "address",
          "name": "_vault",
          "type": "address"
        },
        {
          "internalType": "address",
          "name": "_token",
          "type": "address"
        },
        {
          "internalType": "uint256",
          "name": "_amount",
          "type": "uint256"
        },
        {
          "internalType": "bytes32[]",
          "name": "merkleProof",
          "type": "bytes32[]"
        }
      ],
      "name": "claim",
      "outputs": [],
      "stateMutability": "nonpayable",
      "type": "function"
    },
    {
      "inputs": [
        {
          "internalType": "address",
          "name": "",
          "type": "address"
        },
        {
          "internalType": "address",
          "name": "",
          "type": "address"
        },
        {
          "internalType": "address",
          "name": "",
          "type": "address"
        }
      ],
      "name": "claimed",
      "outputs": [
        {
          "internalType": "uint256",
          "name": "",
          "type": "uint256"
        }
      ],
      "stateMutability": "view",
      "type": "function"
    },
    {
      "inputs": [],
      "name": "controller",
      "outputs": [
        {
          "internalType": "contract IGaugeController",
          "name": "",
          "type": "address"
        }
      ],
      "stateMutability": "view",
      "type": "function"
    },
    {
      "inputs": [
        {
          "internalType": "address",
          "name": "",
          "type": "address"
        },
        {
          "internalType": "uint256",
          "name": "",
          "type": "uint256"
        }
      ],
      "name": "epochRewards",
      "outputs": [
        {
          "internalType": "uint256",
          "name": "",
          "type": "uint256"
        }
      ],
      "stateMutability": "view",
      "type": "function"
    },
    {
      "inputs": [
        {
          "internalType": "address",
          "name": "",
          "type": "address"
        }
      ],
      "name": "gauges",
      "outputs": [
        {
          "internalType": "address",
          "name": "",
          "type": "address"
        }
      ],
      "stateMutability": "view",
      "type": "function"
    },
    {
      "inputs": [
        {
          "internalType": "contract IGaugeController",
          "name": "_controller",
          "type": "address"
        }
      ],
      "name": "initialize",
      "outputs": [],
      "stateMutability": "nonpayable",
      "type": "function"
    },
    {
      "inputs": [
        {
          "internalType": "address",
          "name": "",
          "type": "address"
        },
        {
          "internalType": "address",
          "name": "",
          "type": "address"
        }
      ],
      "name": "merkleRootData",
      "outputs": [
        {
          "internalType": "bytes32",
          "name": "root",
          "type": "bytes32"
        },
        {
          "internalType": "uint256",
          "name": "rewardAmount",
          "type": "uint256"
        }
      ],
      "stateMutability": "view",
      "type": "function"
    },
    {
      "inputs": [
        {
          "internalType": "address",
          "name": "",
          "type": "address"
        }
      ],
      "name": "nextStrykeEpochToPull",
      "outputs": [
        {
          "internalType": "uint256",
          "name": "",
          "type": "uint256"
        }
      ],
      "stateMutability": "view",
      "type": "function"
    },
    {
      "inputs": [],
      "name": "owner",
      "outputs": [
        {
          "internalType": "address",
          "name": "",
          "type": "address"
        }
      ],
      "stateMutability": "view",
      "type": "function"
    },
    {
      "inputs": [
        {
          "internalType": "address",
          "name": "_vault",
          "type": "address"
        }
      ],
      "name": "pullNext",
      "outputs": [],
      "stateMutability": "nonpayable",
      "type": "function"
    },
    {
      "inputs": [],
      "name": "renounceOwnership",
      "outputs": [],
      "stateMutability": "nonpayable",
      "type": "function"
    },
    {
      "inputs": [
        {
          "internalType": "address",
          "name": "_vault",
          "type": "address"
        },
        {
          "internalType": "address",
          "name": "_gauge",
          "type": "address"
        }
      ],
      "name": "setGauge",
      "outputs": [],
      "stateMutability": "nonpayable",
      "type": "function"
    },
    {
      "inputs": [
        {
          "internalType": "address",
          "name": "_vault",
          "type": "address"
        },
        {
          "internalType": "uint256",
          "name": "_nextEpochToPull",
          "type": "uint256"
        }
      ],
      "name": "skipPulls",
      "outputs": [],
      "stateMutability": "nonpayable",
      "type": "function"
    },
    {
      "inputs": [],
      "name": "syk",
      "outputs": [
        {
          "internalType": "address",
          "name": "",
          "type": "address"
        }
      ],
      "stateMutability": "view",
      "type": "function"
    },
    {
      "inputs": [
        {
          "internalType": "address",
          "name": "newOwner",
          "type": "address"
        }
      ],
      "name": "transferOwnership",
      "outputs": [],
      "stateMutability": "nonpayable",
      "type": "function"
    },
    {
      "inputs": [
        {
          "internalType": "address",
          "name": "_vault",
          "type": "address"
        },
        {
          "internalType": "address",
          "name": "_token",
          "type": "address"
        },
        {
          "components": [
            {
              "internalType": "bytes32",
              "name": "root",
              "type": "bytes32"
            },
            {
              "internalType": "uint256",
              "name": "rewardAmount",
              "type": "uint256"
            }
          ],
          "internalType": "struct OrangeDistributor.MerkleRootData",
          "name": "_merkleData",
          "type": "tuple"
        }
      ],
      "name": "updateMerkleRoot",
      "outputs": [],
      "stateMutability": "nonpayable",
      "type": "function"
    },
    {
      "inputs": [],
      "name": "xSyk",
      "outputs": [
        {
          "internalType": "address",
          "name": "",
          "type": "address"
        }
      ],
      "stateMutability": "view",
      "type": "function"
    }
  ],
  "transactionHash": "0x5564ac80166c7ed6aeaf597a81b608bdec4a1dd488402612448dd59000c325e0",
  "args": [],
  "numDeployments": 2,
  "solcInputHash": "8db814da3baddaa93b9505738334018d",
  "bytecode": "0x6080604052348015600f57600080fd5b50612f088061001f6000396000f3fe608060405234801561001057600080fd5b50600436106101165760003560e01c8063a43ca371116100a2578063cf24eb2411610071578063cf24eb24146102de578063f2fde38b146102fc578063f5f4929614610318578063f77c479114610348578063fabed4121461036657610116565b8063a43ca37114610245578063b9a09fd514610261578063c4d66de814610291578063cbd6309f146102ad57610116565b8063383a0d53116100e9578063383a0d53146101c75780634c55b7de146101e35780635e80b74514610201578063715018a61461021d5780638da5cb5b1461022757610116565b806302800ebd1461011b5780631a5289a91461014b5780631fa8d0ba1461017b578063237e6d64146101ab575b600080fd5b610135600480360381019061013091906123cc565b610382565b604051610142919061241b565b60405180910390f35b61016560048036038101906101609190612436565b6103a7565b604051610172919061241b565b60405180910390f35b61019560048036038101906101909190612489565b6103d9565b6040516101a291906124d1565b60405180910390f35b6101c560048036038101906101c091906124ec565b6104bd565b005b6101e160048036038101906101dc9190612489565b610615565b005b6101eb610a2d565b6040516101f8919061253b565b60405180910390f35b61021b6004803603810190610216919061266d565b610a53565b005b610225610c8a565b005b61022f610dc7565b60405161023c919061253b565b60405180910390f35b61025f600480360381019061025a91906123cc565b610df1565b005b61027b60048036038101906102769190612489565b610f03565b604051610288919061253b565b60405180910390f35b6102ab60048036038101906102a691906126fe565b610f36565b005b6102c760048036038101906102c291906124ec565b611019565b6040516102d592919061273a565b60405180910390f35b6102e661104a565b6040516102f3919061253b565b60405180910390f35b61031660048036038101906103119190612489565b611070565b005b610332600480360381019061032d9190612489565b61121b565b60405161033f919061241b565b60405180910390f35b610350611233565b60405161035d91906127c2565b60405180910390f35b610380600480360381019061037b9190612842565b611259565b005b6066602052816000526040600020602052806000526040600020600091509150505481565b606c60205282600052604060002060205281600052604060002060205280600052604060002060009250925050505481565b6000606860009054906101000a900473ffffffffffffffffffffffffffffffffffffffff1673ffffffffffffffffffffffffffffffffffffffff1663cafef3b5606560008573ffffffffffffffffffffffffffffffffffffffff1673ffffffffffffffffffffffffffffffffffffffff168152602001908152602001600020546040518263ffffffff1660e01b8152600401610475919061241b565b602060405180830381865afa158015610492573d6000803e3d6000fd5b505050506040513d601f19601f820116820180604052508101906104b691906128f6565b9050919050565b6104c5611727565b73ffffffffffffffffffffffffffffffffffffffff166104e3610dc7565b73ffffffffffffffffffffffffffffffffffffffff1614610539576040517f08c379a000000000000000000000000000000000000000000000000000000000815260040161053090612980565b60405180910390fd5b80606760008473ffffffffffffffffffffffffffffffffffffffff1673ffffffffffffffffffffffffffffffffffffffff16815260200190815260200160002060006101000a81548173ffffffffffffffffffffffffffffffffffffffff021916908373ffffffffffffffffffffffffffffffffffffffff1602179055508073ffffffffffffffffffffffffffffffffffffffff168273ffffffffffffffffffffffffffffffffffffffff167fb980a40e5b6e992493967c8460db4d84575ad3246c3a17141fa7756ae4dd718060405160405180910390a35050565b61061d611727565b73ffffffffffffffffffffffffffffffffffffffff1661063b610dc7565b73ffffffffffffffffffffffffffffffffffffffff1614610691576040517f08c379a000000000000000000000000000000000000000000000000000000000815260040161068890612980565b60405180910390fd5b6000606960009054906101000a900473ffffffffffffffffffffffffffffffffffffffff1673ffffffffffffffffffffffffffffffffffffffff166370a08231306040518263ffffffff1660e01b81526004016106ee919061253b565b602060405180830381865afa15801561070b573d6000803e3d6000fd5b505050506040513d601f19601f8201168201806040525081019061072f91906129b5565b9050606760008373ffffffffffffffffffffffffffffffffffffffff1673ffffffffffffffffffffffffffffffffffffffff16815260200190815260200160002060009054906101000a900473ffffffffffffffffffffffffffffffffffffffff1673ffffffffffffffffffffffffffffffffffffffff16634d0392a8606560008573ffffffffffffffffffffffffffffffffffffffff1673ffffffffffffffffffffffffffffffffffffffff168152602001908152602001600020546040518263ffffffff1660e01b8152600401610808919061241b565b600060405180830381600087803b15801561082257600080fd5b505af1158015610836573d6000803e3d6000fd5b505050506000606960009054906101000a900473ffffffffffffffffffffffffffffffffffffffff1673ffffffffffffffffffffffffffffffffffffffff166370a08231306040518263ffffffff1660e01b8152600401610897919061253b565b602060405180830381865afa1580156108b4573d6000803e3d6000fd5b505050506040513d601f19601f820116820180604052508101906108d891906129b5565b905081816108e69190612a11565b606660008573ffffffffffffffffffffffffffffffffffffffff1673ffffffffffffffffffffffffffffffffffffffff1681526020019081526020016000206000606560008773ffffffffffffffffffffffffffffffffffffffff1673ffffffffffffffffffffffffffffffffffffffff168152602001908152602001600020548152602001908152602001600020819055506001606560008573ffffffffffffffffffffffffffffffffffffffff1673ffffffffffffffffffffffffffffffffffffffff16815260200190815260200160002060008282546109c99190612a45565b925050819055508273ffffffffffffffffffffffffffffffffffffffff167e703dec1352f06629844a1575eb327cd01fd616d236d2394468fa6f410b33158383610a139190612a11565b604051610a20919061241b565b60405180910390a2505050565b606960009054906101000a900473ffffffffffffffffffffffffffffffffffffffff1681565b610a5b611727565b73ffffffffffffffffffffffffffffffffffffffff16610a79610dc7565b73ffffffffffffffffffffffffffffffffffffffff1614610acf576040517f08c379a0000000000000000000000000000000000000000000000000000000008152600401610ac690612980565b60405180910390fd5b606b60008473ffffffffffffffffffffffffffffffffffffffff1673ffffffffffffffffffffffffffffffffffffffff16815260200190815260200160002060008373ffffffffffffffffffffffffffffffffffffffff1673ffffffffffffffffffffffffffffffffffffffff1681526020019081526020016000206001015481602001511015610b8c576040517f3853986500000000000000000000000000000000000000000000000000000000815260040160405180910390fd5b80606b60008573ffffffffffffffffffffffffffffffffffffffff1673ffffffffffffffffffffffffffffffffffffffff16815260200190815260200160002060008473ffffffffffffffffffffffffffffffffffffffff1673ffffffffffffffffffffffffffffffffffffffff16815260200190815260200160002060008201518160000155602082015181600101559050508173ffffffffffffffffffffffffffffffffffffffff168373ffffffffffffffffffffffffffffffffffffffff167fc9df8cf0748f360de9e7d58d20c32432c6c0636180f2393c72898e35c1ebf9a183604051610c7d9190612ac6565b60405180910390a3505050565b610c92611727565b73ffffffffffffffffffffffffffffffffffffffff16610cb0610dc7565b73ffffffffffffffffffffffffffffffffffffffff1614610d06576040517f08c379a0000000000000000000000000000000000000000000000000000000008152600401610cfd90612980565b60405180910390fd5b600073ffffffffffffffffffffffffffffffffffffffff16603360009054906101000a900473ffffffffffffffffffffffffffffffffffffffff1673ffffffffffffffffffffffffffffffffffffffff167f8be0079c531659141344cd1fd0a4f28419497f9722a3daafe3b4186f6b6457e060405160405180910390a36000603360006101000a81548173ffffffffffffffffffffffffffffffffffffffff021916908373ffffffffffffffffffffffffffffffffffffffff160217905550565b6000603360009054906101000a900473ffffffffffffffffffffffffffffffffffffffff16905090565b610df9611727565b73ffffffffffffffffffffffffffffffffffffffff16610e17610dc7565b73ffffffffffffffffffffffffffffffffffffffff1614610e6d576040517f08c379a0000000000000000000000000000000000000000000000000000000008152600401610e6490612980565b60405180910390fd5b80606560008473ffffffffffffffffffffffffffffffffffffffff1673ffffffffffffffffffffffffffffffffffffffff168152602001908152602001600020819055508173ffffffffffffffffffffffffffffffffffffffff167fe86ed049b5d71416d6cb2ba84637b8c149c2c5c731523d36388511500c7152b182604051610ef7919061241b565b60405180910390a25050565b60676020528060005260406000206000915054906101000a900473ffffffffffffffffffffffffffffffffffffffff1681565b600060019054906101000a900460ff1680610f5c575060008054906101000a900460ff16155b610f9b576040517f08c379a0000000000000000000000000000000000000000000000000000000008152600401610f9290612b53565b60405180910390fd5b60008060019054906101000a900460ff161590508015610feb576001600060016101000a81548160ff02191690831515021790555060016000806101000a81548160ff0219169083151502179055505b610ff48261172f565b80156110155760008060016101000a81548160ff0219169083151502179055505b5050565b606b602052816000526040600020602052806000526040600020600091509150508060000154908060010154905082565b606a60009054906101000a900473ffffffffffffffffffffffffffffffffffffffff1681565b611078611727565b73ffffffffffffffffffffffffffffffffffffffff16611096610dc7565b73ffffffffffffffffffffffffffffffffffffffff16146110ec576040517f08c379a00000000000000000000000000000000000000000000000000000000081526004016110e390612980565b60405180910390fd5b600073ffffffffffffffffffffffffffffffffffffffff168173ffffffffffffffffffffffffffffffffffffffff160361115b576040517f08c379a000000000000000000000000000000000000000000000000000000000815260040161115290612be5565b60405180910390fd5b8073ffffffffffffffffffffffffffffffffffffffff16603360009054906101000a900473ffffffffffffffffffffffffffffffffffffffff1673ffffffffffffffffffffffffffffffffffffffff167f8be0079c531659141344cd1fd0a4f28419497f9722a3daafe3b4186f6b6457e060405160405180910390a380603360006101000a81548173ffffffffffffffffffffffffffffffffffffffff021916908373ffffffffffffffffffffffffffffffffffffffff16021790555050565b60656020528060005260406000206000915090505481565b606860009054906101000a900473ffffffffffffffffffffffffffffffffffffffff1681565b82606c60008773ffffffffffffffffffffffffffffffffffffffff1673ffffffffffffffffffffffffffffffffffffffff16815260200190815260200160002060008673ffffffffffffffffffffffffffffffffffffffff1673ffffffffffffffffffffffffffffffffffffffff16815260200190815260200160002060003373ffffffffffffffffffffffffffffffffffffffff1673ffffffffffffffffffffffffffffffffffffffff16815260200190815260200160002060008282546113229190612a45565b92505081905550600033606c60008873ffffffffffffffffffffffffffffffffffffffff1673ffffffffffffffffffffffffffffffffffffffff16815260200190815260200160002060008773ffffffffffffffffffffffffffffffffffffffff1673ffffffffffffffffffffffffffffffffffffffff16815260200190815260200160002060003373ffffffffffffffffffffffffffffffffffffffff1673ffffffffffffffffffffffffffffffffffffffff168152602001908152602001600020546040516020016113f7929190612c6e565b60405160208183030381529060405280519060200120905061149a8383606b60008a73ffffffffffffffffffffffffffffffffffffffff1673ffffffffffffffffffffffffffffffffffffffff16815260200190815260200160002060008973ffffffffffffffffffffffffffffffffffffffff1673ffffffffffffffffffffffffffffffffffffffff16815260200190815260200160002060000154846119f4565b6114d0576040517f09bde33900000000000000000000000000000000000000000000000000000000815260040160405180910390fd5b606960009054906101000a900473ffffffffffffffffffffffffffffffffffffffff1673ffffffffffffffffffffffffffffffffffffffff168573ffffffffffffffffffffffffffffffffffffffff1603611677576115a0606a60009054906101000a900473ffffffffffffffffffffffffffffffffffffffff166002866115589190612cc9565b606960009054906101000a900473ffffffffffffffffffffffffffffffffffffffff1673ffffffffffffffffffffffffffffffffffffffff16611a0d9092919063ffffffff16565b606a60009054906101000a900473ffffffffffffffffffffffffffffffffffffffff1673ffffffffffffffffffffffffffffffffffffffff16633a2ee2526002866115eb9190612cc9565b336040518363ffffffff1660e01b8152600401611609929190612cfa565b600060405180830381600087803b15801561162357600080fd5b505af1158015611637573d6000803e3d6000fd5b505050506116723360028661164c9190612cc9565b8773ffffffffffffffffffffffffffffffffffffffff16611aa99092919063ffffffff16565b6116a3565b6116a233858773ffffffffffffffffffffffffffffffffffffffff16611aa99092919063ffffffff16565b5b8473ffffffffffffffffffffffffffffffffffffffff168673ffffffffffffffffffffffffffffffffffffffff163373ffffffffffffffffffffffffffffffffffffffff167f2422cac5e23c46c890fdcf42d0c64757409df6832174df639337558f09d99c6887604051611717919061241b565b60405180910390a4505050505050565b600033905090565b600060019054906101000a900460ff1680611755575060008054906101000a900460ff16155b611794576040517f08c379a000000000000000000000000000000000000000000000000000000000815260040161178b90612b53565b60405180910390fd5b60008060019054906101000a900460ff1615905080156117e4576001600060016101000a81548160ff02191690831515021790555060016000806101000a81548160ff0219169083151502179055505b6117ec611b28565b81606860006101000a81548173ffffffffffffffffffffffffffffffffffffffff021916908373ffffffffffffffffffffffffffffffffffffffff160217905550606860009054906101000a900473ffffffffffffffffffffffffffffffffffffffff1673ffffffffffffffffffffffffffffffffffffffff16634c55b7de6040518163ffffffff1660e01b8152600401602060405180830381865afa15801561189a573d6000803e3d6000fd5b505050506040513d601f19601f820116820180604052508101906118be9190612d38565b606960006101000a81548173ffffffffffffffffffffffffffffffffffffffff021916908373ffffffffffffffffffffffffffffffffffffffff160217905550606860009054906101000a900473ffffffffffffffffffffffffffffffffffffffff1673ffffffffffffffffffffffffffffffffffffffff1663cf24eb246040518163ffffffff1660e01b8152600401602060405180830381865afa15801561196b573d6000803e3d6000fd5b505050506040513d601f19601f8201168201806040525081019061198f9190612d38565b606a60006101000a81548173ffffffffffffffffffffffffffffffffffffffff021916908373ffffffffffffffffffffffffffffffffffffffff16021790555080156119f05760008060016101000a81548160ff0219169083151502179055505b5050565b600082611a02868685611c11565b149050949350505050565b60008373ffffffffffffffffffffffffffffffffffffffff1663dd62ed3e30856040518363ffffffff1660e01b8152600401611a4a929190612d65565b602060405180830381865afa158015611a67573d6000803e3d6000fd5b505050506040513d601f19601f82011682018060405250810190611a8b91906129b5565b9050611aa384848484611a9e9190612a45565b611c63565b50505050565b611b23838473ffffffffffffffffffffffffffffffffffffffff1663a9059cbb8585604051602401611adc929190612d8e565b604051602081830303815290604052915060e01b6020820180517bffffffffffffffffffffffffffffffffffffffffffffffffffffffff8381831617835250505050611d72565b505050565b600060019054906101000a900460ff1680611b4e575060008054906101000a900460ff16155b611b8d576040517f08c379a0000000000000000000000000000000000000000000000000000000008152600401611b8490612b53565b60405180910390fd5b60008060019054906101000a900460ff161590508015611bdd576001600060016101000a81548160ff02191690831515021790555060016000806101000a81548160ff0219169083151502179055505b611be5611e09565b611bed611ee2565b8015611c0e5760008060016101000a81548160ff0219169083151502179055505b50565b60008082905060005b85859050811015611c5757611c4882878784818110611c3c57611c3b612db7565b5b90506020020135612064565b91508080600101915050611c1a565b50809150509392505050565b60008373ffffffffffffffffffffffffffffffffffffffff1663095ea7b38484604051602401611c94929190612d8e565b604051602081830303815290604052915060e01b6020820180517bffffffffffffffffffffffffffffffffffffffffffffffffffffffff83818316178352505050509050611ce2848261208f565b611d6c57611d61848573ffffffffffffffffffffffffffffffffffffffff1663095ea7b3866000604051602401611d1a929190612e21565b604051602081830303815290604052915060e01b6020820180517bffffffffffffffffffffffffffffffffffffffffffffffffffffffff8381831617835250505050611d72565b611d6b8482611d72565b5b50505050565b6000611d9d828473ffffffffffffffffffffffffffffffffffffffff1661215690919063ffffffff16565b90506000815114158015611dc2575080806020019051810190611dc091906128f6565b155b15611e0457826040517f5274afe7000000000000000000000000000000000000000000000000000000008152600401611dfb919061253b565b60405180910390fd5b505050565b600060019054906101000a900460ff1680611e2f575060008054906101000a900460ff16155b611e6e576040517f08c379a0000000000000000000000000000000000000000000000000000000008152600401611e6590612b53565b60405180910390fd5b60008060019054906101000a900460ff161590508015611ebe576001600060016101000a81548160ff02191690831515021790555060016000806101000a81548160ff0219169083151502179055505b8015611edf5760008060016101000a81548160ff0219169083151502179055505b50565b600060019054906101000a900460ff1680611f08575060008054906101000a900460ff16155b611f47576040517f08c379a0000000000000000000000000000000000000000000000000000000008152600401611f3e90612b53565b60405180910390fd5b60008060019054906101000a900460ff161590508015611f97576001600060016101000a81548160ff02191690831515021790555060016000806101000a81548160ff0219169083151502179055505b6000611fa1611727565b905080603360006101000a81548173ffffffffffffffffffffffffffffffffffffffff021916908373ffffffffffffffffffffffffffffffffffffffff1602179055508073ffffffffffffffffffffffffffffffffffffffff16600073ffffffffffffffffffffffffffffffffffffffff167f8be0079c531659141344cd1fd0a4f28419497f9722a3daafe3b4186f6b6457e060405160405180910390a35080156120615760008060016101000a81548160ff0219169083151502179055505b50565b600081831061207c57612077828461216c565b612087565b612086838361216c565b5b905092915050565b60008060008473ffffffffffffffffffffffffffffffffffffffff16846040516120b99190612ebb565b6000604051808303816000865af19150503d80600081146120f6576040519150601f19603f3d011682016040523d82523d6000602084013e6120fb565b606091505b5091509150818015612129575060008151148061212857508080602001905181019061212791906128f6565b5b5b801561214c575060008573ffffffffffffffffffffffffffffffffffffffff163b115b9250505092915050565b606061216483836000612183565b905092915050565b600082600052816020526040600020905092915050565b6060814710156121ca57306040517fcd7860590000000000000000000000000000000000000000000000000000000081526004016121c1919061253b565b60405180910390fd5b6000808573ffffffffffffffffffffffffffffffffffffffff1684866040516121f39190612ebb565b60006040518083038185875af1925050503d8060008114612230576040519150601f19603f3d011682016040523d82523d6000602084013e612235565b606091505b5091509150612245868383612250565b925050509392505050565b60608261226557612260826122df565b6122d7565b6000825114801561228d575060008473ffffffffffffffffffffffffffffffffffffffff163b145b156122cf57836040517f9996b3150000000000000000000000000000000000000000000000000000000081526004016122c6919061253b565b60405180910390fd5b8190506122d8565b5b9392505050565b6000815111156122f25780518082602001fd5b6040517f1425ea4200000000000000000000000000000000000000000000000000000000815260040160405180910390fd5b6000604051905090565b600080fd5b600080fd5b600073ffffffffffffffffffffffffffffffffffffffff82169050919050565b600061236382612338565b9050919050565b61237381612358565b811461237e57600080fd5b50565b6000813590506123908161236a565b92915050565b6000819050919050565b6123a981612396565b81146123b457600080fd5b50565b6000813590506123c6816123a0565b92915050565b600080604083850312156123e3576123e261232e565b5b60006123f185828601612381565b9250506020612402858286016123b7565b9150509250929050565b61241581612396565b82525050565b6000602082019050612430600083018461240c565b92915050565b60008060006060848603121561244f5761244e61232e565b5b600061245d86828701612381565b935050602061246e86828701612381565b925050604061247f86828701612381565b9150509250925092565b60006020828403121561249f5761249e61232e565b5b60006124ad84828501612381565b91505092915050565b60008115159050919050565b6124cb816124b6565b82525050565b60006020820190506124e660008301846124c2565b92915050565b600080604083850312156125035761250261232e565b5b600061251185828601612381565b925050602061252285828601612381565b9150509250929050565b61253581612358565b82525050565b6000602082019050612550600083018461252c565b92915050565b600080fd5b6000601f19601f8301169050919050565b7f4e487b7100000000000000000000000000000000000000000000000000000000600052604160045260246000fd5b6125a48261255b565b810181811067ffffffffffffffff821117156125c3576125c261256c565b5b80604052505050565b60006125d6612324565b90506125e2828261259b565b919050565b6000819050919050565b6125fa816125e7565b811461260557600080fd5b50565b600081359050612617816125f1565b92915050565b60006040828403121561263357612632612556565b5b61263d60406125cc565b9050600061264d84828501612608565b6000830152506020612661848285016123b7565b60208301525092915050565b6000806000608084860312156126865761268561232e565b5b600061269486828701612381565b93505060206126a586828701612381565b92505060406126b68682870161261d565b9150509250925092565b60006126cb82612358565b9050919050565b6126db816126c0565b81146126e657600080fd5b50565b6000813590506126f8816126d2565b92915050565b6000602082840312156127145761271361232e565b5b6000612722848285016126e9565b91505092915050565b612734816125e7565b82525050565b600060408201905061274f600083018561272b565b61275c602083018461240c565b9392505050565b6000819050919050565b600061278861278361277e84612338565b612763565b612338565b9050919050565b600061279a8261276d565b9050919050565b60006127ac8261278f565b9050919050565b6127bc816127a1565b82525050565b60006020820190506127d760008301846127b3565b92915050565b600080fd5b600080fd5b600080fd5b60008083601f840112612802576128016127dd565b5b8235905067ffffffffffffffff81111561281f5761281e6127e2565b5b60208301915083602082028301111561283b5761283a6127e7565b5b9250929050565b60008060008060006080868803121561285e5761285d61232e565b5b600061286c88828901612381565b955050602061287d88828901612381565b945050604061288e888289016123b7565b935050606086013567ffffffffffffffff8111156128af576128ae612333565b5b6128bb888289016127ec565b92509250509295509295909350565b6128d3816124b6565b81146128de57600080fd5b50565b6000815190506128f0816128ca565b92915050565b60006020828403121561290c5761290b61232e565b5b600061291a848285016128e1565b91505092915050565b600082825260208201905092915050565b7f4f776e61626c653a2063616c6c6572206973206e6f7420746865206f776e6572600082015250565b600061296a602083612923565b915061297582612934565b602082019050919050565b600060208201905081810360008301526129998161295d565b9050919050565b6000815190506129af816123a0565b92915050565b6000602082840312156129cb576129ca61232e565b5b60006129d9848285016129a0565b91505092915050565b7f4e487b7100000000000000000000000000000000000000000000000000000000600052601160045260246000fd5b6000612a1c82612396565b9150612a2783612396565b9250828203905081811115612a3f57612a3e6129e2565b5b92915050565b6000612a5082612396565b9150612a5b83612396565b9250828201905080821115612a7357612a726129e2565b5b92915050565b612a82816125e7565b82525050565b612a9181612396565b82525050565b604082016000820151612aad6000850182612a79565b506020820151612ac06020850182612a88565b50505050565b6000604082019050612adb6000830184612a97565b92915050565b7f496e697469616c697a61626c653a20636f6e747261637420697320616c72656160008201527f647920696e697469616c697a6564000000000000000000000000000000000000602082015250565b6000612b3d602e83612923565b9150612b4882612ae1565b604082019050919050565b60006020820190508181036000830152612b6c81612b30565b9050919050565b7f4f776e61626c653a206e6577206f776e657220697320746865207a65726f206160008201527f6464726573730000000000000000000000000000000000000000000000000000602082015250565b6000612bcf602683612923565b9150612bda82612b73565b604082019050919050565b60006020820190508181036000830152612bfe81612bc2565b9050919050565b60008160601b9050919050565b6000612c1d82612c05565b9050919050565b6000612c2f82612c12565b9050919050565b612c47612c4282612358565b612c24565b82525050565b6000819050919050565b612c68612c6382612396565b612c4d565b82525050565b6000612c7a8285612c36565b601482019150612c8a8284612c57565b6020820191508190509392505050565b7f4e487b7100000000000000000000000000000000000000000000000000000000600052601260045260246000fd5b6000612cd482612396565b9150612cdf83612396565b925082612cef57612cee612c9a565b5b828204905092915050565b6000604082019050612d0f600083018561240c565b612d1c602083018461252c565b9392505050565b600081519050612d328161236a565b92915050565b600060208284031215612d4e57612d4d61232e565b5b6000612d5c84828501612d23565b91505092915050565b6000604082019050612d7a600083018561252c565b612d87602083018461252c565b9392505050565b6000604082019050612da3600083018561252c565b612db0602083018461240c565b9392505050565b7f4e487b7100000000000000000000000000000000000000000000000000000000600052603260045260246000fd5b6000819050919050565b6000612e0b612e06612e0184612de6565b612763565b612396565b9050919050565b612e1b81612df0565b82525050565b6000604082019050612e36600083018561252c565b612e436020830184612e12565b9392505050565b600081519050919050565b600081905092915050565b60005b83811015612e7e578082015181840152602081019050612e63565b60008484015250505050565b6000612e9582612e4a565b612e9f8185612e55565b9350612eaf818560208601612e60565b80840191505092915050565b6000612ec78284612e8a565b91508190509291505056fea2646970667358221220c6ba969f390978616b727ce608273773ee88ecaf7049d2de0018be8021892a2b64736f6c634300081b0033",
  "devdoc": {
    "details": "In order to distribute token rewards for an orange vault, the reward amounts need to be calculated for the vault depositors off- chain. The total reward amount should be sent to the distributor contract, either by calling pullNext for syk rewards or transferring the tokens directly to the distributor. A merkle root then needs to be  calculated based on the amount of tokens that are to be distributed to each vault depositor (this is performed off chain) and sent to the  distributor contract via updateMerkleRoot",
    "errors": {
      "AddressEmptyCode(address)": [
        {
          "details": "There's no code at `target` (it is not a contract)."
        }
      ],
      "AddressInsufficientBalance(address)": [
        {
          "details": "The ETH balance of the account is not enough to perform the operation."
        }
      ],
      "FailedInnerCall()": [
        {
          "details": "A call to an address target failed. The target may have reverted."
        }
      ],
      "SafeERC20FailedOperation(address)": [
        {
          "details": "An operation with an ERC20 token failed."
        }
      ]
    },
    "kind": "dev",
    "methods": {
      "claim(address,address,uint256,bytes32[])": {
        "params": {
          "_amount": "Amount of token to claim as reward",
          "_token": "The token to claim",
          "_vault": "The vault for which to claim rewards",
          "merkleProof": "Merkle proof"
        }
      },
      "owner()": {
        "details": "Returns the address of the current owner."
      },
      "renounceOwnership()": {
        "details": "Leaves the contract without owner. It will not be possible to call `onlyOwner` functions anymore. Can only be called by the current owner. NOTE: Renouncing ownership will leave the contract without an owner, thereby removing any functionality that is only available to the owner."
      },
      "setGauge(address,address)": {
        "details": "SYKPuller needs to be made the owner of the gauge, to allow pulling reward"
      },
      "transferOwnership(address)": {
        "details": "Transfers ownership of the contract to a new account (`newOwner`). Can only be called by the current owner."
      },
      "updateMerkleRoot(address,address,(bytes32,uint256))": {
        "details": "_merkleData.rewardAmount should be the total amount of reward distributed for the vault since inception rather than the amount of reward distributed for a particular epoch",
        "params": {
          "_merkleData": "Struct containing merkle root and total reward amount to be distributed",
          "_token": "The reward token for the vault",
          "_vault": "The vault whose token is to be distributed using the merkle root"
        }
      }
    },
    "version": 1
  },
  "userdoc": {
    "kind": "user",
    "methods": {
      "canPullNext(address)": {
        "notice": "Check if the rewards for the next epoch can be pulled"
      },
      "claim(address,address,uint256,bytes32[])": {
        "notice": "Claim all the token rewards for a vault"
      },
      "pullNext(address)": {
        "notice": "Pull the rewards for the next epoch from the gauge"
      },
      "setGauge(address,address)": {
        "notice": "Set the gauge for an orange vault"
      },
      "skipPulls(address,uint256)": {
        "notice": "Admin function to manually set the next epoch whose rewards will be pulled."
      },
      "updateMerkleRoot(address,address,(bytes32,uint256))": {
        "notice": "Update the merkle root for the reward token distribution of a vault"
      }
    },
    "notice": "Contract for distributing token rewards to Orange vault depositors. The contract is able to distribute token rewards distributed by stryke via their gauges as well as any ERC20 token transferred to the OrangeDistributor contract",
    "version": 1
  },
  "storageLayout": {
    "storage": [
      {
        "astId": 136,
        "contract": "contracts/OrangeDistributor.sol:OrangeDistributor",
        "label": "_initialized",
        "offset": 0,
        "slot": "0",
        "type": "t_bool"
      },
      {
        "astId": 139,
        "contract": "contracts/OrangeDistributor.sol:OrangeDistributor",
        "label": "_initializing",
        "offset": 1,
        "slot": "0",
        "type": "t_bool"
      },
      {
        "astId": 220,
        "contract": "contracts/OrangeDistributor.sol:OrangeDistributor",
        "label": "__gap",
        "offset": 0,
        "slot": "1",
        "type": "t_array(t_uint256)50_storage"
      },
      {
        "astId": 10,
        "contract": "contracts/OrangeDistributor.sol:OrangeDistributor",
        "label": "_owner",
        "offset": 0,
        "slot": "51",
        "type": "t_address"
      },
      {
        "astId": 129,
        "contract": "contracts/OrangeDistributor.sol:OrangeDistributor",
        "label": "__gap",
        "offset": 0,
        "slot": "52",
        "type": "t_array(t_uint256)49_storage"
      },
      {
        "astId": 2402,
        "contract": "contracts/OrangeDistributor.sol:OrangeDistributor",
        "label": "nextStrykeEpochToPull",
        "offset": 0,
        "slot": "101",
        "type": "t_mapping(t_address,t_uint256)"
      },
      {
        "astId": 2408,
        "contract": "contracts/OrangeDistributor.sol:OrangeDistributor",
        "label": "epochRewards",
        "offset": 0,
        "slot": "102",
        "type": "t_mapping(t_address,t_mapping(t_uint256,t_uint256))"
      },
      {
        "astId": 2412,
        "contract": "contracts/OrangeDistributor.sol:OrangeDistributor",
        "label": "gauges",
        "offset": 0,
        "slot": "103",
        "type": "t_mapping(t_address,t_address)"
      },
      {
        "astId": 2415,
        "contract": "contracts/OrangeDistributor.sol:OrangeDistributor",
        "label": "controller",
        "offset": 0,
        "slot": "104",
        "type": "t_contract(IGaugeController)2739"
      },
      {
        "astId": 2417,
        "contract": "contracts/OrangeDistributor.sol:OrangeDistributor",
        "label": "syk",
        "offset": 0,
        "slot": "105",
        "type": "t_address"
      },
      {
        "astId": 2419,
        "contract": "contracts/OrangeDistributor.sol:OrangeDistributor",
        "label": "xSyk",
        "offset": 0,
        "slot": "106",
        "type": "t_address"
      },
      {
        "astId": 2182,
        "contract": "contracts/OrangeDistributor.sol:OrangeDistributor",
        "label": "merkleRootData",
        "offset": 0,
        "slot": "107",
        "type": "t_mapping(t_address,t_mapping(t_address,t_struct(MerkleRootData)2152_storage))"
      },
      {
        "astId": 2190,
        "contract": "contracts/OrangeDistributor.sol:OrangeDistributor",
        "label": "claimed",
        "offset": 0,
        "slot": "108",
        "type": "t_mapping(t_address,t_mapping(t_address,t_mapping(t_address,t_uint256)))"
      }
    ],
    "types": {
      "t_address": {
        "encoding": "inplace",
        "label": "address",
        "numberOfBytes": "20"
      },
      "t_array(t_uint256)49_storage": {
        "base": "t_uint256",
        "encoding": "inplace",
        "label": "uint256[49]",
        "numberOfBytes": "1568"
      },
      "t_array(t_uint256)50_storage": {
        "base": "t_uint256",
        "encoding": "inplace",
        "label": "uint256[50]",
        "numberOfBytes": "1600"
      },
      "t_bool": {
        "encoding": "inplace",
        "label": "bool",
        "numberOfBytes": "1"
      },
      "t_bytes32": {
        "encoding": "inplace",
        "label": "bytes32",
        "numberOfBytes": "32"
      },
      "t_contract(IGaugeController)2739": {
        "encoding": "inplace",
        "label": "contract IGaugeController",
        "numberOfBytes": "20"
      },
      "t_mapping(t_address,t_address)": {
        "encoding": "mapping",
        "key": "t_address",
        "label": "mapping(address => address)",
        "numberOfBytes": "32",
        "value": "t_address"
      },
      "t_mapping(t_address,t_mapping(t_address,t_mapping(t_address,t_uint256)))": {
        "encoding": "mapping",
        "key": "t_address",
        "label": "mapping(address => mapping(address => mapping(address => uint256)))",
        "numberOfBytes": "32",
        "value": "t_mapping(t_address,t_mapping(t_address,t_uint256))"
      },
      "t_mapping(t_address,t_mapping(t_address,t_struct(MerkleRootData)2152_storage))": {
        "encoding": "mapping",
        "key": "t_address",
        "label": "mapping(address => mapping(address => struct OrangeDistributor.MerkleRootData))",
        "numberOfBytes": "32",
        "value": "t_mapping(t_address,t_struct(MerkleRootData)2152_storage)"
      },
      "t_mapping(t_address,t_mapping(t_address,t_uint256))": {
        "encoding": "mapping",
        "key": "t_address",
        "label": "mapping(address => mapping(address => uint256))",
        "numberOfBytes": "32",
        "value": "t_mapping(t_address,t_uint256)"
      },
      "t_mapping(t_address,t_mapping(t_uint256,t_uint256))": {
        "encoding": "mapping",
        "key": "t_address",
        "label": "mapping(address => mapping(uint256 => uint256))",
        "numberOfBytes": "32",
        "value": "t_mapping(t_uint256,t_uint256)"
      },
      "t_mapping(t_address,t_struct(MerkleRootData)2152_storage)": {
        "encoding": "mapping",
        "key": "t_address",
        "label": "mapping(address => struct OrangeDistributor.MerkleRootData)",
        "numberOfBytes": "32",
        "value": "t_struct(MerkleRootData)2152_storage"
      },
      "t_mapping(t_address,t_uint256)": {
        "encoding": "mapping",
        "key": "t_address",
        "label": "mapping(address => uint256)",
        "numberOfBytes": "32",
        "value": "t_uint256"
      },
      "t_mapping(t_uint256,t_uint256)": {
        "encoding": "mapping",
        "key": "t_uint256",
        "label": "mapping(uint256 => uint256)",
        "numberOfBytes": "32",
        "value": "t_uint256"
      },
      "t_struct(MerkleRootData)2152_storage": {
        "encoding": "inplace",
        "label": "struct OrangeDistributor.MerkleRootData",
        "members": [
          {
            "astId": 2149,
            "contract": "contracts/OrangeDistributor.sol:OrangeDistributor",
            "label": "root",
            "offset": 0,
            "slot": "0",
            "type": "t_bytes32"
          },
          {
            "astId": 2151,
            "contract": "contracts/OrangeDistributor.sol:OrangeDistributor",
            "label": "rewardAmount",
            "offset": 0,
            "slot": "1",
            "type": "t_uint256"
          }
        ],
        "numberOfBytes": "64"
      },
      "t_uint256": {
        "encoding": "inplace",
        "label": "uint256",
        "numberOfBytes": "32"
      }
    }
  }
}