{
  "address": "0xEB960A1cb34F03035813E801638245B67A1A0f5B",
  "abi": [
    {
      "inputs": [],
      "stateMutability": "nonpayable",
      "type": "constructor"
    },
    {
      "inputs": [
        {
          "internalType": "address",
          "name": "target",
          "type": "address"
        }
      ],
      "name": "AddressEmptyCode",
      "type": "error"
    },
    {
      "inputs": [
        {
          "internalType": "address",
          "name": "account",
          "type": "address"
        }
      ],
      "name": "AddressInsufficientBalance",
      "type": "error"
    },
    {
      "inputs": [],
      "name": "FailedInnerCall",
      "type": "error"
    },
    {
      "inputs": [],
      "name": "InvalidEpoch",
      "type": "error"
    },
    {
      "inputs": [],
      "name": "InvalidProof",
      "type": "error"
    },
    {
      "inputs": [
        {
          "internalType": "address",
          "name": "token",
          "type": "address"
        }
      ],
      "name": "SafeERC20FailedOperation",
      "type": "error"
    },
    {
      "anonymous": false,
      "inputs": [
        {
          "indexed": true,
          "internalType": "address",
          "name": "_vault",
          "type": "address"
        },
        {
          "indexed": true,
          "internalType": "address",
          "name": "_token",
          "type": "address"
        },
        {
          "components": [
            {
              "internalType": "bytes32",
              "name": "root",
              "type": "bytes32"
            },
            {
              "internalType": "uint256",
              "name": "distributionStartBlock",
              "type": "uint256"
            },
            {
              "internalType": "uint256",
              "name": "distributionEndBlock",
              "type": "uint256"
            }
          ],
          "indexed": false,
          "internalType": "struct OrangeDistributor.MerkleRootData",
          "name": "_newMerkleRoot",
          "type": "tuple"
        }
      ],
      "name": "MerkleRootUpdated",
      "type": "event"
    },
    {
      "anonymous": false,
      "inputs": [
        {
          "indexed": true,
          "internalType": "address",
          "name": "previousOwner",
          "type": "address"
        },
        {
          "indexed": true,
          "internalType": "address",
          "name": "newOwner",
          "type": "address"
        }
      ],
      "name": "OwnershipTransferred",
      "type": "event"
    },
    {
      "anonymous": false,
      "inputs": [
        {
          "indexed": true,
          "internalType": "address",
          "name": "_user",
          "type": "address"
        },
        {
          "indexed": true,
          "internalType": "address",
          "name": "_vault",
          "type": "address"
        },
        {
          "indexed": true,
          "internalType": "address",
          "name": "token",
          "type": "address"
        },
        {
          "indexed": false,
          "internalType": "uint256",
          "name": "_amount",
          "type": "uint256"
        }
      ],
      "name": "RewardClaimed",
      "type": "event"
    },
    {
      "anonymous": false,
      "inputs": [
        {
          "indexed": true,
          "internalType": "address",
          "name": "_vault",
          "type": "address"
        },
        {
          "indexed": false,
          "internalType": "uint256",
          "name": "_amount",
          "type": "uint256"
        }
      ],
      "name": "RewardPulled",
      "type": "event"
    },
    {
      "anonymous": false,
      "inputs": [
        {
          "indexed": true,
          "internalType": "address",
          "name": "_vault",
          "type": "address"
        },
        {
          "indexed": true,
          "internalType": "address",
          "name": "_gauge",
          "type": "address"
        }
      ],
      "name": "SetGauge",
      "type": "event"
    },
    {
      "anonymous": false,
      "inputs": [
        {
          "indexed": true,
          "internalType": "address",
          "name": "_vault",
          "type": "address"
        },
        {
          "indexed": false,
          "internalType": "uint256",
          "name": "_nextEpochToPull",
          "type": "uint256"
        }
      ],
      "name": "SkipPulls",
      "type": "event"
    },
    {
      "inputs": [
        {
          "internalType": "address",
          "name": "_vault",
          "type": "address"
        }
      ],
      "name": "canPullNext",
      "outputs": [
        {
          "internalType": "bool",
          "name": "",
          "type": "bool"
        }
      ],
      "stateMutability": "view",
      "type": "function"
    },
    {
      "inputs": [
        {
          "internalType": "address",
          "name": "_vault",
          "type": "address"
        },
        {
          "internalType": "address",
          "name": "_token",
          "type": "address"
        },
        {
          "internalType": "uint256",
          "name": "_amount",
          "type": "uint256"
        },
        {
          "internalType": "bytes32[]",
          "name": "merkleProof",
          "type": "bytes32[]"
        }
      ],
      "name": "claim",
      "outputs": [],
      "stateMutability": "nonpayable",
      "type": "function"
    },
    {
      "inputs": [],
      "name": "controller",
      "outputs": [
        {
          "internalType": "contract IGaugeController",
          "name": "",
          "type": "address"
        }
      ],
      "stateMutability": "view",
      "type": "function"
    },
    {
      "inputs": [
        {
          "internalType": "address",
          "name": "",
          "type": "address"
        },
        {
          "internalType": "uint256",
          "name": "",
          "type": "uint256"
        }
      ],
      "name": "epochRewards",
      "outputs": [
        {
          "internalType": "uint256",
          "name": "",
          "type": "uint256"
        }
      ],
      "stateMutability": "view",
      "type": "function"
    },
    {
      "inputs": [
        {
          "internalType": "address",
          "name": "",
          "type": "address"
        }
      ],
      "name": "gauges",
      "outputs": [
        {
          "internalType": "address",
          "name": "",
          "type": "address"
        }
      ],
      "stateMutability": "view",
      "type": "function"
    },
    {
      "inputs": [
        {
          "internalType": "contract IGaugeController",
          "name": "_controller",
          "type": "address"
        }
      ],
      "name": "initialize",
      "outputs": [],
      "stateMutability": "nonpayable",
      "type": "function"
    },
    {
      "inputs": [
        {
          "internalType": "address",
          "name": "",
          "type": "address"
        }
      ],
      "name": "nextStrykeEpochToPull",
      "outputs": [
        {
          "internalType": "uint256",
          "name": "",
          "type": "uint256"
        }
      ],
      "stateMutability": "view",
      "type": "function"
    },
    {
      "inputs": [],
      "name": "owner",
      "outputs": [
        {
          "internalType": "address",
          "name": "",
          "type": "address"
        }
      ],
      "stateMutability": "view",
      "type": "function"
    },
    {
      "inputs": [
        {
          "internalType": "address",
          "name": "_vault",
          "type": "address"
        }
      ],
      "name": "pullNext",
      "outputs": [],
      "stateMutability": "nonpayable",
      "type": "function"
    },
    {
      "inputs": [],
      "name": "renounceOwnership",
      "outputs": [],
      "stateMutability": "nonpayable",
      "type": "function"
    },
    {
      "inputs": [
        {
          "internalType": "address",
          "name": "_vault",
          "type": "address"
        },
        {
          "internalType": "address",
          "name": "_gauge",
          "type": "address"
        }
      ],
      "name": "setGauge",
      "outputs": [],
      "stateMutability": "nonpayable",
      "type": "function"
    },
    {
      "inputs": [
        {
          "internalType": "address",
          "name": "_vault",
          "type": "address"
        },
        {
          "internalType": "uint256",
          "name": "_nextEpochToPull",
          "type": "uint256"
        }
      ],
      "name": "skipPulls",
      "outputs": [],
      "stateMutability": "nonpayable",
      "type": "function"
    },
    {
      "inputs": [],
      "name": "syk",
      "outputs": [
        {
          "internalType": "address",
          "name": "",
          "type": "address"
        }
      ],
      "stateMutability": "view",
      "type": "function"
    },
    {
      "inputs": [
        {
          "internalType": "address",
          "name": "newOwner",
          "type": "address"
        }
      ],
      "name": "transferOwnership",
      "outputs": [],
      "stateMutability": "nonpayable",
      "type": "function"
    },
    {
      "inputs": [
        {
          "internalType": "address",
          "name": "_vault",
          "type": "address"
        },
        {
          "internalType": "address",
          "name": "_token",
          "type": "address"
        },
        {
          "components": [
            {
              "internalType": "bytes32",
              "name": "root",
              "type": "bytes32"
            },
            {
              "internalType": "uint256",
              "name": "distributionStartBlock",
              "type": "uint256"
            },
            {
              "internalType": "uint256",
              "name": "distributionEndBlock",
              "type": "uint256"
            }
          ],
          "internalType": "struct OrangeDistributor.MerkleRootData",
          "name": "_merkleData",
          "type": "tuple"
        }
      ],
      "name": "updateMerkleRoot",
      "outputs": [],
      "stateMutability": "nonpayable",
      "type": "function"
    },
    {
      "inputs": [],
      "name": "xSyk",
      "outputs": [
        {
          "internalType": "address",
          "name": "",
          "type": "address"
        }
      ],
      "stateMutability": "view",
      "type": "function"
    }
  ],
  "transactionHash": "0xb9ad6d3568fc6c722c44eda63c5bc8b3c21c0a8f0f463cae976faf2d41f1ac1b",
  "args": [],
  "numDeployments": 1,
  "solcInputHash": "df5de898fce2684558d17b0456c67d19",
  "bytecode": "0x6080604052348015600f57600080fd5b50612d178061001f6000396000f3fe608060405234801561001057600080fd5b50600436106101005760003560e01c8063b9a09fd511610097578063f2fde38b11610066578063f2fde38b14610285578063f5f49296146102a1578063f77c4791146102d1578063fabed412146102ef57610100565b8063b9a09fd5146101ff578063c4d66de81461022f578063cf24eb241461024b578063edcc009d1461026957610100565b80634c55b7de116100d35780634c55b7de1461019d578063715018a6146101bb5780638da5cb5b146101c5578063a43ca371146101e357610100565b806302800ebd146101055780631fa8d0ba14610135578063237e6d6414610165578063383a0d5314610181575b600080fd5b61011f600480360381019061011a919061223f565b61030b565b60405161012c919061228e565b60405180910390f35b61014f600480360381019061014a91906122a9565b610330565b60405161015c91906122f1565b60405180910390f35b61017f600480360381019061017a919061230c565b610414565b005b61019b600480360381019061019691906122a9565b61056c565b005b6101a5610984565b6040516101b2919061235b565b60405180910390f35b6101c36109aa565b005b6101cd610ae7565b6040516101da919061235b565b60405180910390f35b6101fd60048036038101906101f8919061223f565b610b11565b005b610219600480360381019061021491906122a9565b610c23565b604051610226919061235b565b60405180910390f35b610249600480360381019061024491906123b4565b610c56565b005b610253610d39565b604051610260919061235b565b60405180910390f35b610283600480360381019061027e919061250c565b610d5f565b005b61029f600480360381019061029a91906122a9565b610ee3565b005b6102bb60048036038101906102b691906122a9565b61108e565b6040516102c8919061228e565b60405180910390f35b6102d96110a6565b6040516102e691906125be565b60405180910390f35b6103096004803603810190610304919061263e565b6110cc565b005b6066602052816000526040600020602052806000526040600020600091509150505481565b6000606860009054906101000a900473ffffffffffffffffffffffffffffffffffffffff1673ffffffffffffffffffffffffffffffffffffffff1663cafef3b5606560008573ffffffffffffffffffffffffffffffffffffffff1673ffffffffffffffffffffffffffffffffffffffff168152602001908152602001600020546040518263ffffffff1660e01b81526004016103cc919061228e565b602060405180830381865afa1580156103e9573d6000803e3d6000fd5b505050506040513d601f19601f8201168201806040525081019061040d91906126f2565b9050919050565b61041c61159a565b73ffffffffffffffffffffffffffffffffffffffff1661043a610ae7565b73ffffffffffffffffffffffffffffffffffffffff1614610490576040517f08c379a00000000000000000000000000000000000000000000000000000000081526004016104879061277c565b60405180910390fd5b80606760008473ffffffffffffffffffffffffffffffffffffffff1673ffffffffffffffffffffffffffffffffffffffff16815260200190815260200160002060006101000a81548173ffffffffffffffffffffffffffffffffffffffff021916908373ffffffffffffffffffffffffffffffffffffffff1602179055508073ffffffffffffffffffffffffffffffffffffffff168273ffffffffffffffffffffffffffffffffffffffff167fb980a40e5b6e992493967c8460db4d84575ad3246c3a17141fa7756ae4dd718060405160405180910390a35050565b61057461159a565b73ffffffffffffffffffffffffffffffffffffffff16610592610ae7565b73ffffffffffffffffffffffffffffffffffffffff16146105e8576040517f08c379a00000000000000000000000000000000000000000000000000000000081526004016105df9061277c565b60405180910390fd5b6000606960009054906101000a900473ffffffffffffffffffffffffffffffffffffffff1673ffffffffffffffffffffffffffffffffffffffff166370a08231306040518263ffffffff1660e01b8152600401610645919061235b565b602060405180830381865afa158015610662573d6000803e3d6000fd5b505050506040513d601f19601f8201168201806040525081019061068691906127b1565b9050606760008373ffffffffffffffffffffffffffffffffffffffff1673ffffffffffffffffffffffffffffffffffffffff16815260200190815260200160002060009054906101000a900473ffffffffffffffffffffffffffffffffffffffff1673ffffffffffffffffffffffffffffffffffffffff16634d0392a8606560008573ffffffffffffffffffffffffffffffffffffffff1673ffffffffffffffffffffffffffffffffffffffff168152602001908152602001600020546040518263ffffffff1660e01b815260040161075f919061228e565b600060405180830381600087803b15801561077957600080fd5b505af115801561078d573d6000803e3d6000fd5b505050506000606960009054906101000a900473ffffffffffffffffffffffffffffffffffffffff1673ffffffffffffffffffffffffffffffffffffffff166370a08231306040518263ffffffff1660e01b81526004016107ee919061235b565b602060405180830381865afa15801561080b573d6000803e3d6000fd5b505050506040513d601f19601f8201168201806040525081019061082f91906127b1565b9050818161083d919061280d565b606660008573ffffffffffffffffffffffffffffffffffffffff1673ffffffffffffffffffffffffffffffffffffffff1681526020019081526020016000206000606560008773ffffffffffffffffffffffffffffffffffffffff1673ffffffffffffffffffffffffffffffffffffffff168152602001908152602001600020548152602001908152602001600020819055506001606560008573ffffffffffffffffffffffffffffffffffffffff1673ffffffffffffffffffffffffffffffffffffffff16815260200190815260200160002060008282546109209190612841565b925050819055508273ffffffffffffffffffffffffffffffffffffffff167e703dec1352f06629844a1575eb327cd01fd616d236d2394468fa6f410b3315838361096a919061280d565b604051610977919061228e565b60405180910390a2505050565b606960009054906101000a900473ffffffffffffffffffffffffffffffffffffffff1681565b6109b261159a565b73ffffffffffffffffffffffffffffffffffffffff166109d0610ae7565b73ffffffffffffffffffffffffffffffffffffffff1614610a26576040517f08c379a0000000000000000000000000000000000000000000000000000000008152600401610a1d9061277c565b60405180910390fd5b600073ffffffffffffffffffffffffffffffffffffffff16603360009054906101000a900473ffffffffffffffffffffffffffffffffffffffff1673ffffffffffffffffffffffffffffffffffffffff167f8be0079c531659141344cd1fd0a4f28419497f9722a3daafe3b4186f6b6457e060405160405180910390a36000603360006101000a81548173ffffffffffffffffffffffffffffffffffffffff021916908373ffffffffffffffffffffffffffffffffffffffff160217905550565b6000603360009054906101000a900473ffffffffffffffffffffffffffffffffffffffff16905090565b610b1961159a565b73ffffffffffffffffffffffffffffffffffffffff16610b37610ae7565b73ffffffffffffffffffffffffffffffffffffffff1614610b8d576040517f08c379a0000000000000000000000000000000000000000000000000000000008152600401610b849061277c565b60405180910390fd5b80606560008473ffffffffffffffffffffffffffffffffffffffff1673ffffffffffffffffffffffffffffffffffffffff168152602001908152602001600020819055508173ffffffffffffffffffffffffffffffffffffffff167fe86ed049b5d71416d6cb2ba84637b8c149c2c5c731523d36388511500c7152b182604051610c17919061228e565b60405180910390a25050565b60676020528060005260406000206000915054906101000a900473ffffffffffffffffffffffffffffffffffffffff1681565b600060019054906101000a900460ff1680610c7c575060008054906101000a900460ff16155b610cbb576040517f08c379a0000000000000000000000000000000000000000000000000000000008152600401610cb2906128e7565b60405180910390fd5b60008060019054906101000a900460ff161590508015610d0b576001600060016101000a81548160ff02191690831515021790555060016000806101000a81548160ff0219169083151502179055505b610d14826115a2565b8015610d355760008060016101000a81548160ff0219169083151502179055505b5050565b606a60009054906101000a900473ffffffffffffffffffffffffffffffffffffffff1681565b610d6761159a565b73ffffffffffffffffffffffffffffffffffffffff16610d85610ae7565b73ffffffffffffffffffffffffffffffffffffffff1614610ddb576040517f08c379a0000000000000000000000000000000000000000000000000000000008152600401610dd29061277c565b60405180910390fd5b80606b60008573ffffffffffffffffffffffffffffffffffffffff1673ffffffffffffffffffffffffffffffffffffffff16815260200190815260200160002060008473ffffffffffffffffffffffffffffffffffffffff1673ffffffffffffffffffffffffffffffffffffffff1681526020019081526020016000206000820151816000015560208201518160010155604082015181600201559050508173ffffffffffffffffffffffffffffffffffffffff168373ffffffffffffffffffffffffffffffffffffffff167f3666cbc2f443a3d7b2e9eff02792c76fb2c82360f97dc5afd92b8fe46745b49083604051610ed69190612967565b60405180910390a3505050565b610eeb61159a565b73ffffffffffffffffffffffffffffffffffffffff16610f09610ae7565b73ffffffffffffffffffffffffffffffffffffffff1614610f5f576040517f08c379a0000000000000000000000000000000000000000000000000000000008152600401610f569061277c565b60405180910390fd5b600073ffffffffffffffffffffffffffffffffffffffff168173ffffffffffffffffffffffffffffffffffffffff1603610fce576040517f08c379a0000000000000000000000000000000000000000000000000000000008152600401610fc5906129f4565b60405180910390fd5b8073ffffffffffffffffffffffffffffffffffffffff16603360009054906101000a900473ffffffffffffffffffffffffffffffffffffffff1673ffffffffffffffffffffffffffffffffffffffff167f8be0079c531659141344cd1fd0a4f28419497f9722a3daafe3b4186f6b6457e060405160405180910390a380603360006101000a81548173ffffffffffffffffffffffffffffffffffffffff021916908373ffffffffffffffffffffffffffffffffffffffff16021790555050565b60656020528060005260406000206000915090505481565b606860009054906101000a900473ffffffffffffffffffffffffffffffffffffffff1681565b82606c60008773ffffffffffffffffffffffffffffffffffffffff1673ffffffffffffffffffffffffffffffffffffffff16815260200190815260200160002060008673ffffffffffffffffffffffffffffffffffffffff1673ffffffffffffffffffffffffffffffffffffffff16815260200190815260200160002060003373ffffffffffffffffffffffffffffffffffffffff1673ffffffffffffffffffffffffffffffffffffffff16815260200190815260200160002060008282546111959190612841565b92505081905550600033606c60008873ffffffffffffffffffffffffffffffffffffffff1673ffffffffffffffffffffffffffffffffffffffff16815260200190815260200160002060008773ffffffffffffffffffffffffffffffffffffffff1673ffffffffffffffffffffffffffffffffffffffff16815260200190815260200160002060003373ffffffffffffffffffffffffffffffffffffffff1673ffffffffffffffffffffffffffffffffffffffff1681526020019081526020016000205460405160200161126a929190612a7d565b60405160208183030381529060405280519060200120905061130d8383606b60008a73ffffffffffffffffffffffffffffffffffffffff1673ffffffffffffffffffffffffffffffffffffffff16815260200190815260200160002060008973ffffffffffffffffffffffffffffffffffffffff1673ffffffffffffffffffffffffffffffffffffffff1681526020019081526020016000206000015484611867565b611343576040517f09bde33900000000000000000000000000000000000000000000000000000000815260040160405180910390fd5b606960009054906101000a900473ffffffffffffffffffffffffffffffffffffffff1673ffffffffffffffffffffffffffffffffffffffff168573ffffffffffffffffffffffffffffffffffffffff16036114ea57611413606a60009054906101000a900473ffffffffffffffffffffffffffffffffffffffff166002866113cb9190612ad8565b606960009054906101000a900473ffffffffffffffffffffffffffffffffffffffff1673ffffffffffffffffffffffffffffffffffffffff166118809092919063ffffffff16565b606a60009054906101000a900473ffffffffffffffffffffffffffffffffffffffff1673ffffffffffffffffffffffffffffffffffffffff16633a2ee25260028661145e9190612ad8565b336040518363ffffffff1660e01b815260040161147c929190612b09565b600060405180830381600087803b15801561149657600080fd5b505af11580156114aa573d6000803e3d6000fd5b505050506114e5336002866114bf9190612ad8565b8773ffffffffffffffffffffffffffffffffffffffff1661191c9092919063ffffffff16565b611516565b61151533858773ffffffffffffffffffffffffffffffffffffffff1661191c9092919063ffffffff16565b5b8473ffffffffffffffffffffffffffffffffffffffff168673ffffffffffffffffffffffffffffffffffffffff163373ffffffffffffffffffffffffffffffffffffffff167f2422cac5e23c46c890fdcf42d0c64757409df6832174df639337558f09d99c688760405161158a919061228e565b60405180910390a4505050505050565b600033905090565b600060019054906101000a900460ff16806115c8575060008054906101000a900460ff16155b611607576040517f08c379a00000000000000000000000000000000000000000000000000000000081526004016115fe906128e7565b60405180910390fd5b60008060019054906101000a900460ff161590508015611657576001600060016101000a81548160ff02191690831515021790555060016000806101000a81548160ff0219169083151502179055505b61165f61199b565b81606860006101000a81548173ffffffffffffffffffffffffffffffffffffffff021916908373ffffffffffffffffffffffffffffffffffffffff160217905550606860009054906101000a900473ffffffffffffffffffffffffffffffffffffffff1673ffffffffffffffffffffffffffffffffffffffff16634c55b7de6040518163ffffffff1660e01b8152600401602060405180830381865afa15801561170d573d6000803e3d6000fd5b505050506040513d601f19601f820116820180604052508101906117319190612b47565b606960006101000a81548173ffffffffffffffffffffffffffffffffffffffff021916908373ffffffffffffffffffffffffffffffffffffffff160217905550606860009054906101000a900473ffffffffffffffffffffffffffffffffffffffff1673ffffffffffffffffffffffffffffffffffffffff1663cf24eb246040518163ffffffff1660e01b8152600401602060405180830381865afa1580156117de573d6000803e3d6000fd5b505050506040513d601f19601f820116820180604052508101906118029190612b47565b606a60006101000a81548173ffffffffffffffffffffffffffffffffffffffff021916908373ffffffffffffffffffffffffffffffffffffffff16021790555080156118635760008060016101000a81548160ff0219169083151502179055505b5050565b600082611875868685611a84565b149050949350505050565b60008373ffffffffffffffffffffffffffffffffffffffff1663dd62ed3e30856040518363ffffffff1660e01b81526004016118bd929190612b74565b602060405180830381865afa1580156118da573d6000803e3d6000fd5b505050506040513d601f19601f820116820180604052508101906118fe91906127b1565b9050611916848484846119119190612841565b611ad6565b50505050565b611996838473ffffffffffffffffffffffffffffffffffffffff1663a9059cbb858560405160240161194f929190612b9d565b604051602081830303815290604052915060e01b6020820180517bffffffffffffffffffffffffffffffffffffffffffffffffffffffff8381831617835250505050611be5565b505050565b600060019054906101000a900460ff16806119c1575060008054906101000a900460ff16155b611a00576040517f08c379a00000000000000000000000000000000000000000000000000000000081526004016119f7906128e7565b60405180910390fd5b60008060019054906101000a900460ff161590508015611a50576001600060016101000a81548160ff02191690831515021790555060016000806101000a81548160ff0219169083151502179055505b611a58611c7c565b611a60611d55565b8015611a815760008060016101000a81548160ff0219169083151502179055505b50565b60008082905060005b85859050811015611aca57611abb82878784818110611aaf57611aae612bc6565b5b90506020020135611ed7565b91508080600101915050611a8d565b50809150509392505050565b60008373ffffffffffffffffffffffffffffffffffffffff1663095ea7b38484604051602401611b07929190612b9d565b604051602081830303815290604052915060e01b6020820180517bffffffffffffffffffffffffffffffffffffffffffffffffffffffff83818316178352505050509050611b558482611f02565b611bdf57611bd4848573ffffffffffffffffffffffffffffffffffffffff1663095ea7b3866000604051602401611b8d929190612c30565b604051602081830303815290604052915060e01b6020820180517bffffffffffffffffffffffffffffffffffffffffffffffffffffffff8381831617835250505050611be5565b611bde8482611be5565b5b50505050565b6000611c10828473ffffffffffffffffffffffffffffffffffffffff16611fc990919063ffffffff16565b90506000815114158015611c35575080806020019051810190611c3391906126f2565b155b15611c7757826040517f5274afe7000000000000000000000000000000000000000000000000000000008152600401611c6e919061235b565b60405180910390fd5b505050565b600060019054906101000a900460ff1680611ca2575060008054906101000a900460ff16155b611ce1576040517f08c379a0000000000000000000000000000000000000000000000000000000008152600401611cd8906128e7565b60405180910390fd5b60008060019054906101000a900460ff161590508015611d31576001600060016101000a81548160ff02191690831515021790555060016000806101000a81548160ff0219169083151502179055505b8015611d525760008060016101000a81548160ff0219169083151502179055505b50565b600060019054906101000a900460ff1680611d7b575060008054906101000a900460ff16155b611dba576040517f08c379a0000000000000000000000000000000000000000000000000000000008152600401611db1906128e7565b60405180910390fd5b60008060019054906101000a900460ff161590508015611e0a576001600060016101000a81548160ff02191690831515021790555060016000806101000a81548160ff0219169083151502179055505b6000611e1461159a565b905080603360006101000a81548173ffffffffffffffffffffffffffffffffffffffff021916908373ffffffffffffffffffffffffffffffffffffffff1602179055508073ffffffffffffffffffffffffffffffffffffffff16600073ffffffffffffffffffffffffffffffffffffffff167f8be0079c531659141344cd1fd0a4f28419497f9722a3daafe3b4186f6b6457e060405160405180910390a3508015611ed45760008060016101000a81548160ff0219169083151502179055505b50565b6000818310611eef57611eea8284611fdf565b611efa565b611ef98383611fdf565b5b905092915050565b60008060008473ffffffffffffffffffffffffffffffffffffffff1684604051611f2c9190612cca565b6000604051808303816000865af19150503d8060008114611f69576040519150601f19603f3d011682016040523d82523d6000602084013e611f6e565b606091505b5091509150818015611f9c5750600081511480611f9b575080806020019051810190611f9a91906126f2565b5b5b8015611fbf575060008573ffffffffffffffffffffffffffffffffffffffff163b115b9250505092915050565b6060611fd783836000611ff6565b905092915050565b600082600052816020526040600020905092915050565b60608147101561203d57306040517fcd786059000000000000000000000000000000000000000000000000000000008152600401612034919061235b565b60405180910390fd5b6000808573ffffffffffffffffffffffffffffffffffffffff1684866040516120669190612cca565b60006040518083038185875af1925050503d80600081146120a3576040519150601f19603f3d011682016040523d82523d6000602084013e6120a8565b606091505b50915091506120b88683836120c3565b925050509392505050565b6060826120d8576120d382612152565b61214a565b60008251148015612100575060008473ffffffffffffffffffffffffffffffffffffffff163b145b1561214257836040517f9996b315000000000000000000000000000000000000000000000000000000008152600401612139919061235b565b60405180910390fd5b81905061214b565b5b9392505050565b6000815111156121655780518082602001fd5b6040517f1425ea4200000000000000000000000000000000000000000000000000000000815260040160405180910390fd5b6000604051905090565b600080fd5b600080fd5b600073ffffffffffffffffffffffffffffffffffffffff82169050919050565b60006121d6826121ab565b9050919050565b6121e6816121cb565b81146121f157600080fd5b50565b600081359050612203816121dd565b92915050565b6000819050919050565b61221c81612209565b811461222757600080fd5b50565b60008135905061223981612213565b92915050565b60008060408385031215612256576122556121a1565b5b6000612264858286016121f4565b92505060206122758582860161222a565b9150509250929050565b61228881612209565b82525050565b60006020820190506122a3600083018461227f565b92915050565b6000602082840312156122bf576122be6121a1565b5b60006122cd848285016121f4565b91505092915050565b60008115159050919050565b6122eb816122d6565b82525050565b600060208201905061230660008301846122e2565b92915050565b60008060408385031215612323576123226121a1565b5b6000612331858286016121f4565b9250506020612342858286016121f4565b9150509250929050565b612355816121cb565b82525050565b6000602082019050612370600083018461234c565b92915050565b6000612381826121cb565b9050919050565b61239181612376565b811461239c57600080fd5b50565b6000813590506123ae81612388565b92915050565b6000602082840312156123ca576123c96121a1565b5b60006123d88482850161239f565b91505092915050565b600080fd5b6000601f19601f8301169050919050565b7f4e487b7100000000000000000000000000000000000000000000000000000000600052604160045260246000fd5b61242f826123e6565b810181811067ffffffffffffffff8211171561244e5761244d6123f7565b5b80604052505050565b6000612461612197565b905061246d8282612426565b919050565b6000819050919050565b61248581612472565b811461249057600080fd5b50565b6000813590506124a28161247c565b92915050565b6000606082840312156124be576124bd6123e1565b5b6124c86060612457565b905060006124d884828501612493565b60008301525060206124ec8482850161222a565b60208301525060406125008482850161222a565b60408301525092915050565b600080600060a08486031215612525576125246121a1565b5b6000612533868287016121f4565b9350506020612544868287016121f4565b9250506040612555868287016124a8565b9150509250925092565b6000819050919050565b600061258461257f61257a846121ab565b61255f565b6121ab565b9050919050565b600061259682612569565b9050919050565b60006125a88261258b565b9050919050565b6125b88161259d565b82525050565b60006020820190506125d360008301846125af565b92915050565b600080fd5b600080fd5b600080fd5b60008083601f8401126125fe576125fd6125d9565b5b8235905067ffffffffffffffff81111561261b5761261a6125de565b5b602083019150836020820283011115612637576126366125e3565b5b9250929050565b60008060008060006080868803121561265a576126596121a1565b5b6000612668888289016121f4565b9550506020612679888289016121f4565b945050604061268a8882890161222a565b935050606086013567ffffffffffffffff8111156126ab576126aa6121a6565b5b6126b7888289016125e8565b92509250509295509295909350565b6126cf816122d6565b81146126da57600080fd5b50565b6000815190506126ec816126c6565b92915050565b600060208284031215612708576127076121a1565b5b6000612716848285016126dd565b91505092915050565b600082825260208201905092915050565b7f4f776e61626c653a2063616c6c6572206973206e6f7420746865206f776e6572600082015250565b600061276660208361271f565b915061277182612730565b602082019050919050565b6000602082019050818103600083015261279581612759565b9050919050565b6000815190506127ab81612213565b92915050565b6000602082840312156127c7576127c66121a1565b5b60006127d58482850161279c565b91505092915050565b7f4e487b7100000000000000000000000000000000000000000000000000000000600052601160045260246000fd5b600061281882612209565b915061282383612209565b925082820390508181111561283b5761283a6127de565b5b92915050565b600061284c82612209565b915061285783612209565b925082820190508082111561286f5761286e6127de565b5b92915050565b7f496e697469616c697a61626c653a20636f6e747261637420697320616c72656160008201527f647920696e697469616c697a6564000000000000000000000000000000000000602082015250565b60006128d1602e8361271f565b91506128dc82612875565b604082019050919050565b60006020820190508181036000830152612900816128c4565b9050919050565b61291081612472565b82525050565b61291f81612209565b82525050565b60608201600082015161293b6000850182612907565b50602082015161294e6020850182612916565b5060408201516129616040850182612916565b50505050565b600060608201905061297c6000830184612925565b92915050565b7f4f776e61626c653a206e6577206f776e657220697320746865207a65726f206160008201527f6464726573730000000000000000000000000000000000000000000000000000602082015250565b60006129de60268361271f565b91506129e982612982565b604082019050919050565b60006020820190508181036000830152612a0d816129d1565b9050919050565b60008160601b9050919050565b6000612a2c82612a14565b9050919050565b6000612a3e82612a21565b9050919050565b612a56612a51826121cb565b612a33565b82525050565b6000819050919050565b612a77612a7282612209565b612a5c565b82525050565b6000612a898285612a45565b601482019150612a998284612a66565b6020820191508190509392505050565b7f4e487b7100000000000000000000000000000000000000000000000000000000600052601260045260246000fd5b6000612ae382612209565b9150612aee83612209565b925082612afe57612afd612aa9565b5b828204905092915050565b6000604082019050612b1e600083018561227f565b612b2b602083018461234c565b9392505050565b600081519050612b41816121dd565b92915050565b600060208284031215612b5d57612b5c6121a1565b5b6000612b6b84828501612b32565b91505092915050565b6000604082019050612b89600083018561234c565b612b96602083018461234c565b9392505050565b6000604082019050612bb2600083018561234c565b612bbf602083018461227f565b9392505050565b7f4e487b7100000000000000000000000000000000000000000000000000000000600052603260045260246000fd5b6000819050919050565b6000612c1a612c15612c1084612bf5565b61255f565b612209565b9050919050565b612c2a81612bff565b82525050565b6000604082019050612c45600083018561234c565b612c526020830184612c21565b9392505050565b600081519050919050565b600081905092915050565b60005b83811015612c8d578082015181840152602081019050612c72565b60008484015250505050565b6000612ca482612c59565b612cae8185612c64565b9350612cbe818560208601612c6f565b80840191505092915050565b6000612cd68284612c99565b91508190509291505056fea2646970667358221220163a0d8d817db97c99f90a39d1543aa1f45fea5ad23be7c68085fb934b65abc864736f6c634300081b0033",
  "devdoc": {
    "errors": {
      "AddressEmptyCode(address)": [
        {
          "details": "There's no code at `target` (it is not a contract)."
        }
      ],
      "AddressInsufficientBalance(address)": [
        {
          "details": "The ETH balance of the account is not enough to perform the operation."
        }
      ],
      "FailedInnerCall()": [
        {
          "details": "A call to an address target failed. The target may have reverted."
        }
      ],
      "SafeERC20FailedOperation(address)": [
        {
          "details": "An operation with an ERC20 token failed."
        }
      ]
    },
    "kind": "dev",
    "methods": {
      "owner()": {
        "details": "Returns the address of the current owner."
      },
      "renounceOwnership()": {
        "details": "Leaves the contract without owner. It will not be possible to call `onlyOwner` functions anymore. Can only be called by the current owner. NOTE: Renouncing ownership will leave the contract without an owner, thereby removing any functionality that is only available to the owner."
      },
      "transferOwnership(address)": {
        "details": "Transfers ownership of the contract to a new account (`newOwner`). Can only be called by the current owner."
      }
    },
    "version": 1
  },
  "userdoc": {
    "kind": "user",
    "methods": {},
    "version": 1
  },
  "storageLayout": {
    "storage": [
      {
        "astId": 580,
        "contract": "contracts/OrangeDistributor.sol:OrangeDistributor",
        "label": "_initialized",
        "offset": 0,
        "slot": "0",
        "type": "t_bool"
      },
      {
        "astId": 583,
        "contract": "contracts/OrangeDistributor.sol:OrangeDistributor",
        "label": "_initializing",
        "offset": 1,
        "slot": "0",
        "type": "t_bool"
      },
      {
        "astId": 982,
        "contract": "contracts/OrangeDistributor.sol:OrangeDistributor",
        "label": "__gap",
        "offset": 0,
        "slot": "1",
        "type": "t_array(t_uint256)50_storage"
      },
      {
        "astId": 10,
        "contract": "contracts/OrangeDistributor.sol:OrangeDistributor",
        "label": "_owner",
        "offset": 0,
        "slot": "51",
        "type": "t_address"
      },
      {
        "astId": 129,
        "contract": "contracts/OrangeDistributor.sol:OrangeDistributor",
        "label": "__gap",
        "offset": 0,
        "slot": "52",
        "type": "t_array(t_uint256)49_storage"
      },
      {
        "astId": 3212,
        "contract": "contracts/OrangeDistributor.sol:OrangeDistributor",
        "label": "nextStrykeEpochToPull",
        "offset": 0,
        "slot": "101",
        "type": "t_mapping(t_address,t_uint256)"
      },
      {
        "astId": 3218,
        "contract": "contracts/OrangeDistributor.sol:OrangeDistributor",
        "label": "epochRewards",
        "offset": 0,
        "slot": "102",
        "type": "t_mapping(t_address,t_mapping(t_uint256,t_uint256))"
      },
      {
        "astId": 3222,
        "contract": "contracts/OrangeDistributor.sol:OrangeDistributor",
        "label": "gauges",
        "offset": 0,
        "slot": "103",
        "type": "t_mapping(t_address,t_address)"
      },
      {
        "astId": 3225,
        "contract": "contracts/OrangeDistributor.sol:OrangeDistributor",
        "label": "controller",
        "offset": 0,
        "slot": "104",
        "type": "t_contract(IGaugeController)3763"
      },
      {
        "astId": 3227,
        "contract": "contracts/OrangeDistributor.sol:OrangeDistributor",
        "label": "syk",
        "offset": 0,
        "slot": "105",
        "type": "t_address"
      },
      {
        "astId": 3229,
        "contract": "contracts/OrangeDistributor.sol:OrangeDistributor",
        "label": "xSyk",
        "offset": 0,
        "slot": "106",
        "type": "t_address"
      },
      {
        "astId": 3003,
        "contract": "contracts/OrangeDistributor.sol:OrangeDistributor",
        "label": "merkleRootData",
        "offset": 0,
        "slot": "107",
        "type": "t_mapping(t_address,t_mapping(t_address,t_struct(MerkleRootData)2975_storage))"
      },
      {
        "astId": 3011,
        "contract": "contracts/OrangeDistributor.sol:OrangeDistributor",
        "label": "claimed",
        "offset": 0,
        "slot": "108",
        "type": "t_mapping(t_address,t_mapping(t_address,t_mapping(t_address,t_uint256)))"
      },
      {
        "astId": 3017,
        "contract": "contracts/OrangeDistributor.sol:OrangeDistributor",
        "label": "totalReward",
        "offset": 0,
        "slot": "109",
        "type": "t_mapping(t_address,t_mapping(t_address,t_uint256))"
      }
    ],
    "types": {
      "t_address": {
        "encoding": "inplace",
        "label": "address",
        "numberOfBytes": "20"
      },
      "t_array(t_uint256)49_storage": {
        "base": "t_uint256",
        "encoding": "inplace",
        "label": "uint256[49]",
        "numberOfBytes": "1568"
      },
      "t_array(t_uint256)50_storage": {
        "base": "t_uint256",
        "encoding": "inplace",
        "label": "uint256[50]",
        "numberOfBytes": "1600"
      },
      "t_bool": {
        "encoding": "inplace",
        "label": "bool",
        "numberOfBytes": "1"
      },
      "t_bytes32": {
        "encoding": "inplace",
        "label": "bytes32",
        "numberOfBytes": "32"
      },
      "t_contract(IGaugeController)3763": {
        "encoding": "inplace",
        "label": "contract IGaugeController",
        "numberOfBytes": "20"
      },
      "t_mapping(t_address,t_address)": {
        "encoding": "mapping",
        "key": "t_address",
        "label": "mapping(address => address)",
        "numberOfBytes": "32",
        "value": "t_address"
      },
      "t_mapping(t_address,t_mapping(t_address,t_mapping(t_address,t_uint256)))": {
        "encoding": "mapping",
        "key": "t_address",
        "label": "mapping(address => mapping(address => mapping(address => uint256)))",
        "numberOfBytes": "32",
        "value": "t_mapping(t_address,t_mapping(t_address,t_uint256))"
      },
      "t_mapping(t_address,t_mapping(t_address,t_struct(MerkleRootData)2975_storage))": {
        "encoding": "mapping",
        "key": "t_address",
        "label": "mapping(address => mapping(address => struct OrangeDistributor.MerkleRootData))",
        "numberOfBytes": "32",
        "value": "t_mapping(t_address,t_struct(MerkleRootData)2975_storage)"
      },
      "t_mapping(t_address,t_mapping(t_address,t_uint256))": {
        "encoding": "mapping",
        "key": "t_address",
        "label": "mapping(address => mapping(address => uint256))",
        "numberOfBytes": "32",
        "value": "t_mapping(t_address,t_uint256)"
      },
      "t_mapping(t_address,t_mapping(t_uint256,t_uint256))": {
        "encoding": "mapping",
        "key": "t_address",
        "label": "mapping(address => mapping(uint256 => uint256))",
        "numberOfBytes": "32",
        "value": "t_mapping(t_uint256,t_uint256)"
      },
      "t_mapping(t_address,t_struct(MerkleRootData)2975_storage)": {
        "encoding": "mapping",
        "key": "t_address",
        "label": "mapping(address => struct OrangeDistributor.MerkleRootData)",
        "numberOfBytes": "32",
        "value": "t_struct(MerkleRootData)2975_storage"
      },
      "t_mapping(t_address,t_uint256)": {
        "encoding": "mapping",
        "key": "t_address",
        "label": "mapping(address => uint256)",
        "numberOfBytes": "32",
        "value": "t_uint256"
      },
      "t_mapping(t_uint256,t_uint256)": {
        "encoding": "mapping",
        "key": "t_uint256",
        "label": "mapping(uint256 => uint256)",
        "numberOfBytes": "32",
        "value": "t_uint256"
      },
      "t_struct(MerkleRootData)2975_storage": {
        "encoding": "inplace",
        "label": "struct OrangeDistributor.MerkleRootData",
        "members": [
          {
            "astId": 2970,
            "contract": "contracts/OrangeDistributor.sol:OrangeDistributor",
            "label": "root",
            "offset": 0,
            "slot": "0",
            "type": "t_bytes32"
          },
          {
            "astId": 2972,
            "contract": "contracts/OrangeDistributor.sol:OrangeDistributor",
            "label": "distributionStartBlock",
            "offset": 0,
            "slot": "1",
            "type": "t_uint256"
          },
          {
            "astId": 2974,
            "contract": "contracts/OrangeDistributor.sol:OrangeDistributor",
            "label": "distributionEndBlock",
            "offset": 0,
            "slot": "2",
            "type": "t_uint256"
          }
        ],
        "numberOfBytes": "96"
      },
      "t_uint256": {
        "encoding": "inplace",
        "label": "uint256",
        "numberOfBytes": "32"
      }
    }
  }
}