{
  "address": "0xF10c9B447e9209387d29D02BbF1d7827AB1e9039",
  "abi": [
    {
      "inputs": [],
      "name": "InvalidInitialization",
      "type": "error"
    },
    {
      "inputs": [],
      "name": "InvalidProof",
      "type": "error"
    },
    {
      "inputs": [],
      "name": "NotInitializing",
      "type": "error"
    },
    {
      "inputs": [
        {
          "internalType": "address",
          "name": "owner",
          "type": "address"
        }
      ],
      "name": "OwnableInvalidOwner",
      "type": "error"
    },
    {
      "inputs": [
        {
          "internalType": "address",
          "name": "account",
          "type": "address"
        }
      ],
      "name": "OwnableUnauthorizedAccount",
      "type": "error"
    },
    {
      "inputs": [
        {
          "internalType": "address",
          "name": "token",
          "type": "address"
        }
      ],
      "name": "SafeERC20FailedOperation",
      "type": "error"
    },
    {
      "inputs": [],
      "name": "Unauthorized",
      "type": "error"
    },
    {
      "inputs": [],
      "name": "VaultGaugeArrayMismatch",
      "type": "error"
    },
    {
      "anonymous": false,
      "inputs": [
        {
          "indexed": false,
          "internalType": "uint64",
          "name": "version",
          "type": "uint64"
        }
      ],
      "name": "Initialized",
      "type": "event"
    },
    {
      "anonymous": false,
      "inputs": [
        {
          "indexed": true,
          "internalType": "address",
          "name": "_vault",
          "type": "address"
        },
        {
          "indexed": true,
          "internalType": "address",
          "name": "_token",
          "type": "address"
        },
        {
          "indexed": false,
          "internalType": "bytes32",
          "name": "_newMerkleRoot",
          "type": "bytes32"
        }
      ],
      "name": "MerkleRootUpdated",
      "type": "event"
    },
    {
      "anonymous": false,
      "inputs": [
        {
          "indexed": true,
          "internalType": "address",
          "name": "previousOwner",
          "type": "address"
        },
        {
          "indexed": true,
          "internalType": "address",
          "name": "newOwner",
          "type": "address"
        }
      ],
      "name": "OwnershipTransferred",
      "type": "event"
    },
    {
      "anonymous": false,
      "inputs": [
        {
          "indexed": true,
          "internalType": "address",
          "name": "_user",
          "type": "address"
        },
        {
          "indexed": true,
          "internalType": "address",
          "name": "_vault",
          "type": "address"
        },
        {
          "indexed": true,
          "internalType": "address",
          "name": "token",
          "type": "address"
        },
        {
          "indexed": false,
          "internalType": "uint256",
          "name": "_amount",
          "type": "uint256"
        }
      ],
      "name": "RewardClaimed",
      "type": "event"
    },
    {
      "anonymous": false,
      "inputs": [
        {
          "indexed": true,
          "internalType": "address",
          "name": "_vault",
          "type": "address"
        },
        {
          "indexed": false,
          "internalType": "uint256",
          "name": "_amount",
          "type": "uint256"
        }
      ],
      "name": "RewardPulled",
      "type": "event"
    },
    {
      "anonymous": false,
      "inputs": [
        {
          "indexed": true,
          "internalType": "address",
          "name": "_vault",
          "type": "address"
        },
        {
          "indexed": true,
          "internalType": "address",
          "name": "_gauge",
          "type": "address"
        }
      ],
      "name": "SetGauge",
      "type": "event"
    },
    {
      "anonymous": false,
      "inputs": [
        {
          "indexed": true,
          "internalType": "address",
          "name": "_keeper",
          "type": "address"
        }
      ],
      "name": "SetKeeper",
      "type": "event"
    },
    {
      "anonymous": false,
      "inputs": [
        {
          "indexed": true,
          "internalType": "address",
          "name": "_vault",
          "type": "address"
        },
        {
          "indexed": false,
          "internalType": "uint256",
          "name": "_nextEpochToPull",
          "type": "uint256"
        }
      ],
      "name": "SkipPulls",
      "type": "event"
    },
    {
      "inputs": [
        {
          "internalType": "address[]",
          "name": "_vaults",
          "type": "address[]"
        },
        {
          "internalType": "address[]",
          "name": "_tokens",
          "type": "address[]"
        },
        {
          "internalType": "uint256[]",
          "name": "_amounts",
          "type": "uint256[]"
        },
        {
          "internalType": "bytes32[][]",
          "name": "merkleProofs",
          "type": "bytes32[][]"
        }
      ],
      "name": "batchClaim",
      "outputs": [],
      "stateMutability": "nonpayable",
      "type": "function"
    },
    {
      "inputs": [
        {
          "internalType": "address",
          "name": "_vault",
          "type": "address"
        }
      ],
      "name": "canPullNext",
      "outputs": [
        {
          "internalType": "bool",
          "name": "",
          "type": "bool"
        }
      ],
      "stateMutability": "view",
      "type": "function"
    },
    {
      "inputs": [
        {
          "internalType": "address",
          "name": "_vault",
          "type": "address"
        },
        {
          "internalType": "address",
          "name": "_token",
          "type": "address"
        },
        {
          "internalType": "uint256",
          "name": "_amount",
          "type": "uint256"
        },
        {
          "internalType": "bytes32[]",
          "name": "merkleProof",
          "type": "bytes32[]"
        }
      ],
      "name": "claim",
      "outputs": [],
      "stateMutability": "nonpayable",
      "type": "function"
    },
    {
      "inputs": [
        {
          "internalType": "address",
          "name": "",
          "type": "address"
        },
        {
          "internalType": "address",
          "name": "",
          "type": "address"
        },
        {
          "internalType": "address",
          "name": "",
          "type": "address"
        }
      ],
      "name": "claimed",
      "outputs": [
        {
          "internalType": "uint256",
          "name": "",
          "type": "uint256"
        }
      ],
      "stateMutability": "view",
      "type": "function"
    },
    {
      "inputs": [],
      "name": "controller",
      "outputs": [
        {
          "internalType": "contract IGaugeController",
          "name": "",
          "type": "address"
        }
      ],
      "stateMutability": "view",
      "type": "function"
    },
    {
      "inputs": [
        {
          "internalType": "address",
          "name": "_token",
          "type": "address"
        },
        {
          "internalType": "uint256",
          "name": "_amount",
          "type": "uint256"
        }
      ],
      "name": "emergencyWithdrawal",
      "outputs": [],
      "stateMutability": "nonpayable",
      "type": "function"
    },
    {
      "inputs": [
        {
          "internalType": "address",
          "name": "",
          "type": "address"
        },
        {
          "internalType": "uint256",
          "name": "",
          "type": "uint256"
        }
      ],
      "name": "epochRewards",
      "outputs": [
        {
          "internalType": "uint256",
          "name": "",
          "type": "uint256"
        }
      ],
      "stateMutability": "view",
      "type": "function"
    },
    {
      "inputs": [
        {
          "internalType": "address",
          "name": "",
          "type": "address"
        }
      ],
      "name": "gauges",
      "outputs": [
        {
          "internalType": "address",
          "name": "",
          "type": "address"
        }
      ],
      "stateMutability": "view",
      "type": "function"
    },
    {
      "inputs": [
        {
          "internalType": "contract IGaugeController",
          "name": "_controller",
          "type": "address"
        },
        {
          "internalType": "address",
          "name": "_keeper",
          "type": "address"
        },
        {
          "internalType": "address[]",
          "name": "_vaults",
          "type": "address[]"
        },
        {
          "internalType": "address[]",
          "name": "_gauges",
          "type": "address[]"
        }
      ],
      "name": "initialize",
      "outputs": [],
      "stateMutability": "nonpayable",
      "type": "function"
    },
    {
      "inputs": [],
      "name": "keeper",
      "outputs": [
        {
          "internalType": "address",
          "name": "",
          "type": "address"
        }
      ],
      "stateMutability": "view",
      "type": "function"
    },
    {
      "inputs": [
        {
          "internalType": "address",
          "name": "",
          "type": "address"
        },
        {
          "internalType": "address",
          "name": "",
          "type": "address"
        }
      ],
      "name": "merkleRoot",
      "outputs": [
        {
          "internalType": "bytes32",
          "name": "",
          "type": "bytes32"
        }
      ],
      "stateMutability": "view",
      "type": "function"
    },
    {
      "inputs": [
        {
          "internalType": "address",
          "name": "",
          "type": "address"
        }
      ],
      "name": "nextStrykeEpochToPull",
      "outputs": [
        {
          "internalType": "uint256",
          "name": "",
          "type": "uint256"
        }
      ],
      "stateMutability": "view",
      "type": "function"
    },
    {
      "inputs": [],
      "name": "owner",
      "outputs": [
        {
          "internalType": "address",
          "name": "",
          "type": "address"
        }
      ],
      "stateMutability": "view",
      "type": "function"
    },
    {
      "inputs": [
        {
          "internalType": "address",
          "name": "_vault",
          "type": "address"
        }
      ],
      "name": "pullNext",
      "outputs": [],
      "stateMutability": "nonpayable",
      "type": "function"
    },
    {
      "inputs": [],
      "name": "renounceOwnership",
      "outputs": [],
      "stateMutability": "nonpayable",
      "type": "function"
    },
    {
      "inputs": [
        {
          "internalType": "address",
          "name": "_vault",
          "type": "address"
        },
        {
          "internalType": "address",
          "name": "_gauge",
          "type": "address"
        }
      ],
      "name": "setGauge",
      "outputs": [],
      "stateMutability": "nonpayable",
      "type": "function"
    },
    {
      "inputs": [
        {
          "internalType": "address",
          "name": "_keeper",
          "type": "address"
        }
      ],
      "name": "setKeeper",
      "outputs": [],
      "stateMutability": "nonpayable",
      "type": "function"
    },
    {
      "inputs": [
        {
          "internalType": "address",
          "name": "_vault",
          "type": "address"
        },
        {
          "internalType": "uint256",
          "name": "_nextEpochToPull",
          "type": "uint256"
        }
      ],
      "name": "skipPulls",
      "outputs": [],
      "stateMutability": "nonpayable",
      "type": "function"
    },
    {
      "inputs": [],
      "name": "syk",
      "outputs": [
        {
          "internalType": "address",
          "name": "",
          "type": "address"
        }
      ],
      "stateMutability": "view",
      "type": "function"
    },
    {
      "inputs": [
        {
          "internalType": "address",
          "name": "newOwner",
          "type": "address"
        }
      ],
      "name": "transferOwnership",
      "outputs": [],
      "stateMutability": "nonpayable",
      "type": "function"
    },
    {
      "inputs": [
        {
          "internalType": "address",
          "name": "_vault",
          "type": "address"
        },
        {
          "internalType": "address",
          "name": "_token",
          "type": "address"
        },
        {
          "internalType": "bytes32",
          "name": "_merkleRoot",
          "type": "bytes32"
        }
      ],
      "name": "updateMerkleRoot",
      "outputs": [],
      "stateMutability": "nonpayable",
      "type": "function"
    },
    {
      "inputs": [],
      "name": "xSyk",
      "outputs": [
        {
          "internalType": "address",
          "name": "",
          "type": "address"
        }
      ],
      "stateMutability": "view",
      "type": "function"
    }
  ],
  "transactionHash": "0xe03efbf00deaba8f394db350bf02a276b8950e64ba3f1903088089769a92ad1e",
  "args": [],
  "numDeployments": 1,
  "solcInputHash": "c4bc109cab98edd485b818fca1ce84fc",
  "bytecode": "0x6080604052348015600f57600080fd5b50612f868061001f6000396000f3fe608060405234801561001057600080fd5b50600436106101425760003560e01c80638da5cb5b116100b8578063cf24eb241161007c578063cf24eb241461034b578063cf3ef1d714610369578063f2fde38b14610399578063f5f49296146103b5578063f77c4791146103e5578063fabed4121461040357610142565b80638da5cb5b146102a75780639fbe6ac7146102c5578063a43ca371146102e1578063aced1661146102fd578063b9a09fd51461031b57610142565b8063383a0d531161010a578063383a0d531461020f5780634c55b7de1461022b57806357d9989c146102495780636d75261614610265578063715018a614610281578063748747e61461028b57610142565b806302800ebd1461014757806307995509146101775780631a5289a9146101935780631fa8d0ba146101c3578063237e6d64146101f3575b600080fd5b610161600480360381019061015c91906122fa565b61041f565b60405161016e9190612349565b60405180910390f35b610191600480360381019061018c9190612475565b610444565b005b6101ad60048036038101906101a8919061255e565b610501565b6040516101ba9190612349565b60405180910390f35b6101dd60048036038101906101d891906125b1565b610533565b6040516101ea91906125f9565b60405180910390f35b61020d60048036038101906102089190612614565b610616565b005b610229600480360381019061022491906125b1565b6106fa565b005b610233610add565b6040516102409190612663565b60405180910390f35b610263600480360381019061025e91906122fa565b610b03565b005b61027f600480360381019061027a919061280b565b610b41565b005b610289610cd6565b005b6102a560048036038101906102a091906125b1565b610cea565b005b6102af610d79565b6040516102bc9190612663565b60405180910390f35b6102df60048036038101906102da91906128e0565b610db1565b005b6102fb60048036038101906102f691906122fa565b610f60565b005b610305610ffd565b6040516103129190612663565b60405180910390f35b610335600480360381019061033091906125b1565b611023565b6040516103429190612663565b60405180910390f35b610353611056565b6040516103609190612663565b60405180910390f35b610383600480360381019061037e9190612614565b61107c565b6040516103909190612942565b60405180910390f35b6103b360048036038101906103ae91906125b1565b6110a1565b005b6103cf60048036038101906103ca91906125b1565b611127565b6040516103dc9190612349565b60405180910390f35b6103ed61113f565b6040516103fa91906129bc565b60405180910390f35b61041d60048036038101906104189190612a2d565b611165565b005b6001602052816000526040600020602052806000526040600020600091509150505481565b60005b888890508110156104f6576104e989898381811061046857610467612ab5565b5b905060200201602081019061047d91906125b1565b8888848181106104905761048f612ab5565b5b90506020020160208101906104a591906125b1565b8787858181106104b8576104b7612ab5565b5b905060200201358686868181106104d2576104d1612ab5565b5b90506020028101906104e49190612af3565b611165565b8080600101915050610447565b505050505050505050565b600860205282600052604060002060205281600052604060002060205280600052604060002060009250925050505481565b6000600360009054906101000a900473ffffffffffffffffffffffffffffffffffffffff1673ffffffffffffffffffffffffffffffffffffffff1663cafef3b56000808573ffffffffffffffffffffffffffffffffffffffff1673ffffffffffffffffffffffffffffffffffffffff168152602001908152602001600020546040518263ffffffff1660e01b81526004016105ce9190612349565b602060405180830381865afa1580156105eb573d6000803e3d6000fd5b505050506040513d601f19601f8201168201806040525081019061060f9190612b82565b9050919050565b61061e61163b565b80600260008473ffffffffffffffffffffffffffffffffffffffff1673ffffffffffffffffffffffffffffffffffffffff16815260200190815260200160002060006101000a81548173ffffffffffffffffffffffffffffffffffffffff021916908373ffffffffffffffffffffffffffffffffffffffff1602179055508073ffffffffffffffffffffffffffffffffffffffff168273ffffffffffffffffffffffffffffffffffffffff167fb980a40e5b6e992493967c8460db4d84575ad3246c3a17141fa7756ae4dd718060405160405180910390a35050565b600460009054906101000a900473ffffffffffffffffffffffffffffffffffffffff1673ffffffffffffffffffffffffffffffffffffffff163373ffffffffffffffffffffffffffffffffffffffff1614806107885750610759610d79565b73ffffffffffffffffffffffffffffffffffffffff163373ffffffffffffffffffffffffffffffffffffffff16145b6107be576040517f82b4290000000000000000000000000000000000000000000000000000000000815260040160405180910390fd5b60008060008373ffffffffffffffffffffffffffffffffffffffff1673ffffffffffffffffffffffffffffffffffffffff168152602001908152602001600020600081548092919061080f90612bde565b9190505590506000600560009054906101000a900473ffffffffffffffffffffffffffffffffffffffff1673ffffffffffffffffffffffffffffffffffffffff166370a08231306040518263ffffffff1660e01b81526004016108729190612663565b602060405180830381865afa15801561088f573d6000803e3d6000fd5b505050506040513d601f19601f820116820180604052508101906108b39190612c3b565b9050600260008473ffffffffffffffffffffffffffffffffffffffff1673ffffffffffffffffffffffffffffffffffffffff16815260200190815260200160002060009054906101000a900473ffffffffffffffffffffffffffffffffffffffff1673ffffffffffffffffffffffffffffffffffffffff16634d0392a8836040518263ffffffff1660e01b815260040161094d9190612349565b600060405180830381600087803b15801561096757600080fd5b505af115801561097b573d6000803e3d6000fd5b505050506000600560009054906101000a900473ffffffffffffffffffffffffffffffffffffffff1673ffffffffffffffffffffffffffffffffffffffff166370a08231306040518263ffffffff1660e01b81526004016109dc9190612663565b602060405180830381865afa1580156109f9573d6000803e3d6000fd5b505050506040513d601f19601f82011682018060405250810190610a1d9190612c3b565b90508181610a2b9190612c68565b600160008673ffffffffffffffffffffffffffffffffffffffff1673ffffffffffffffffffffffffffffffffffffffff1681526020019081526020016000206000858152602001908152602001600020819055508373ffffffffffffffffffffffffffffffffffffffff167e703dec1352f06629844a1575eb327cd01fd616d236d2394468fa6f410b33158383610ac29190612c68565b604051610acf9190612349565b60405180910390a250505050565b600560009054906101000a900473ffffffffffffffffffffffffffffffffffffffff1681565b610b0b61163b565b610b3d610b16610d79565b828473ffffffffffffffffffffffffffffffffffffffff166116c29092919063ffffffff16565b5050565b6000610b4b611741565b905060008160000160089054906101000a900460ff1615905060008260000160009054906101000a900467ffffffffffffffff1690506000808267ffffffffffffffff16148015610b995750825b9050600060018367ffffffffffffffff16148015610bce575060003073ffffffffffffffffffffffffffffffffffffffff163b145b905081158015610bdc575080155b15610c13576040517ff92ee8a900000000000000000000000000000000000000000000000000000000815260040160405180910390fd5b60018560000160006101000a81548167ffffffffffffffff021916908367ffffffffffffffff1602179055508315610c635760018560000160086101000a81548160ff0219169083151502179055505b610c6f89898989611769565b8315610ccb5760008560000160086101000a81548160ff0219169083151502179055507fc7f505b2f371ae2175ee4913f4499e1f2633a7b5936321eed1cdaeb6115181d26001604051610cc29190612ceb565b60405180910390a15b505050505050505050565b610cde61163b565b610ce86000611cf7565b565b610cf261163b565b80600460006101000a81548173ffffffffffffffffffffffffffffffffffffffff021916908373ffffffffffffffffffffffffffffffffffffffff1602179055508073ffffffffffffffffffffffffffffffffffffffff167fefb5cfa1a8690c124332ab93324539c5c9c4be03f28aeb8be86f2d8a0c9fb99b60405160405180910390a250565b600080610d84611dce565b90508060000160009054906101000a900473ffffffffffffffffffffffffffffffffffffffff1691505090565b600460009054906101000a900473ffffffffffffffffffffffffffffffffffffffff1673ffffffffffffffffffffffffffffffffffffffff163373ffffffffffffffffffffffffffffffffffffffff161480610e3f5750610e10610d79565b73ffffffffffffffffffffffffffffffffffffffff163373ffffffffffffffffffffffffffffffffffffffff16145b610e75576040517f82b4290000000000000000000000000000000000000000000000000000000000815260040160405180910390fd5b80600760008573ffffffffffffffffffffffffffffffffffffffff1673ffffffffffffffffffffffffffffffffffffffff16815260200190815260200160002060008473ffffffffffffffffffffffffffffffffffffffff1673ffffffffffffffffffffffffffffffffffffffff168152602001908152602001600020819055508173ffffffffffffffffffffffffffffffffffffffff168373ffffffffffffffffffffffffffffffffffffffff167f7856aa6c22215500fc74b4dcc7eee10e3d95a70e252521468d7218a0425f5dab83604051610f539190612942565b60405180910390a3505050565b610f6861163b565b806000808473ffffffffffffffffffffffffffffffffffffffff1673ffffffffffffffffffffffffffffffffffffffff168152602001908152602001600020819055508173ffffffffffffffffffffffffffffffffffffffff167fe86ed049b5d71416d6cb2ba84637b8c149c2c5c731523d36388511500c7152b182604051610ff19190612349565b60405180910390a25050565b600460009054906101000a900473ffffffffffffffffffffffffffffffffffffffff1681565b60026020528060005260406000206000915054906101000a900473ffffffffffffffffffffffffffffffffffffffff1681565b600660009054906101000a900473ffffffffffffffffffffffffffffffffffffffff1681565b6007602052816000526040600020602052806000526040600020600091509150505481565b6110a961163b565b600073ffffffffffffffffffffffffffffffffffffffff168173ffffffffffffffffffffffffffffffffffffffff160361111b5760006040517f1e4fbdf70000000000000000000000000000000000000000000000000000000081526004016111129190612663565b60405180910390fd5b61112481611cf7565b50565b60006020528060005260406000206000915090505481565b600360009054906101000a900473ffffffffffffffffffffffffffffffffffffffff1681565b82600860008773ffffffffffffffffffffffffffffffffffffffff1673ffffffffffffffffffffffffffffffffffffffff16815260200190815260200160002060008673ffffffffffffffffffffffffffffffffffffffff1673ffffffffffffffffffffffffffffffffffffffff16815260200190815260200160002060003373ffffffffffffffffffffffffffffffffffffffff1673ffffffffffffffffffffffffffffffffffffffff168152602001908152602001600020600082825461122e9190612d06565b92505081905550600033600860008873ffffffffffffffffffffffffffffffffffffffff1673ffffffffffffffffffffffffffffffffffffffff16815260200190815260200160002060008773ffffffffffffffffffffffffffffffffffffffff1673ffffffffffffffffffffffffffffffffffffffff16815260200190815260200160002060003373ffffffffffffffffffffffffffffffffffffffff1673ffffffffffffffffffffffffffffffffffffffff16815260200190815260200160002054604051602001611303929190612da3565b6040516020818303038152906040528051906020012090506113a38383600760008a73ffffffffffffffffffffffffffffffffffffffff1673ffffffffffffffffffffffffffffffffffffffff16815260200190815260200160002060008973ffffffffffffffffffffffffffffffffffffffff1673ffffffffffffffffffffffffffffffffffffffff1681526020019081526020016000205484611df6565b6113d9576040517f09bde33900000000000000000000000000000000000000000000000000000000815260040160405180910390fd5b600560009054906101000a900473ffffffffffffffffffffffffffffffffffffffff1673ffffffffffffffffffffffffffffffffffffffff168573ffffffffffffffffffffffffffffffffffffffff160361158b576114a9600660009054906101000a900473ffffffffffffffffffffffffffffffffffffffff166002866114619190612dfe565b600560009054906101000a900473ffffffffffffffffffffffffffffffffffffffff1673ffffffffffffffffffffffffffffffffffffffff16611e0f9092919063ffffffff16565b600660009054906101000a900473ffffffffffffffffffffffffffffffffffffffff1673ffffffffffffffffffffffffffffffffffffffff16633a2ee2526002866114f49190612dfe565b336040518363ffffffff1660e01b8152600401611512929190612e2f565b600060405180830381600087803b15801561152c57600080fd5b505af1158015611540573d6000803e3d6000fd5b50505050611586336002866115559190612dfe565b866115609190612c68565b8773ffffffffffffffffffffffffffffffffffffffff166116c29092919063ffffffff16565b6115b7565b6115b633858773ffffffffffffffffffffffffffffffffffffffff166116c29092919063ffffffff16565b5b8473ffffffffffffffffffffffffffffffffffffffff168673ffffffffffffffffffffffffffffffffffffffff163373ffffffffffffffffffffffffffffffffffffffff167f2422cac5e23c46c890fdcf42d0c64757409df6832174df639337558f09d99c688760405161162b9190612349565b60405180910390a4505050505050565b611643611eab565b73ffffffffffffffffffffffffffffffffffffffff16611661610d79565b73ffffffffffffffffffffffffffffffffffffffff16146116c057611684611eab565b6040517f118cdaa70000000000000000000000000000000000000000000000000000000081526004016116b79190612663565b60405180910390fd5b565b61173c838473ffffffffffffffffffffffffffffffffffffffff1663a9059cbb85856040516024016116f5929190612e58565b604051602081830303815290604052915060e01b6020820180517bffffffffffffffffffffffffffffffffffffffffffffffffffffffff8381831617835250505050611eb3565b505050565b60007ff0c57e16840df040f15088dc2f81fe391c3923bec73e23a9662efc9c229c6a00905090565b6000611773611741565b905060008160000160089054906101000a900460ff1615905060008260000160009054906101000a900467ffffffffffffffff1690506000808267ffffffffffffffff161480156117c15750825b9050600060018367ffffffffffffffff161480156117f6575060003073ffffffffffffffffffffffffffffffffffffffff163b145b905081158015611804575080155b1561183b576040517ff92ee8a900000000000000000000000000000000000000000000000000000000815260040160405180910390fd5b60018560000160006101000a81548167ffffffffffffffff021916908367ffffffffffffffff160217905550831561188b5760018560000160086101000a81548160ff0219169083151502179055505b61189433611f55565b88600360006101000a81548173ffffffffffffffffffffffffffffffffffffffff021916908373ffffffffffffffffffffffffffffffffffffffff160217905550600360009054906101000a900473ffffffffffffffffffffffffffffffffffffffff1673ffffffffffffffffffffffffffffffffffffffff16634c55b7de6040518163ffffffff1660e01b8152600401602060405180830381865afa158015611942573d6000803e3d6000fd5b505050506040513d601f19601f820116820180604052508101906119669190612e96565b600560006101000a81548173ffffffffffffffffffffffffffffffffffffffff021916908373ffffffffffffffffffffffffffffffffffffffff160217905550600360009054906101000a900473ffffffffffffffffffffffffffffffffffffffff1673ffffffffffffffffffffffffffffffffffffffff1663cf24eb246040518163ffffffff1660e01b8152600401602060405180830381865afa158015611a13573d6000803e3d6000fd5b505050506040513d601f19601f82011682018060405250810190611a379190612e96565b600660006101000a81548173ffffffffffffffffffffffffffffffffffffffff021916908373ffffffffffffffffffffffffffffffffffffffff16021790555087600460006101000a81548173ffffffffffffffffffffffffffffffffffffffff021916908373ffffffffffffffffffffffffffffffffffffffff1602179055508551875114611af3576040517f31f13c5f00000000000000000000000000000000000000000000000000000000815260040160405180910390fd5b60005b8751811015611c4c57868181518110611b1257611b11612ab5565b5b6020026020010151600260008a8481518110611b3157611b30612ab5565b5b602002602001015173ffffffffffffffffffffffffffffffffffffffff1673ffffffffffffffffffffffffffffffffffffffff16815260200190815260200160002060006101000a81548173ffffffffffffffffffffffffffffffffffffffff021916908373ffffffffffffffffffffffffffffffffffffffff160217905550868181518110611bc457611bc3612ab5565b5b602002602001015173ffffffffffffffffffffffffffffffffffffffff16888281518110611bf557611bf4612ab5565b5b602002602001015173ffffffffffffffffffffffffffffffffffffffff167fb980a40e5b6e992493967c8460db4d84575ad3246c3a17141fa7756ae4dd718060405160405180910390a38080600101915050611af6565b508773ffffffffffffffffffffffffffffffffffffffff167fefb5cfa1a8690c124332ab93324539c5c9c4be03f28aeb8be86f2d8a0c9fb99b60405160405180910390a28315611cec5760008560000160086101000a81548160ff0219169083151502179055507fc7f505b2f371ae2175ee4913f4499e1f2633a7b5936321eed1cdaeb6115181d26001604051611ce39190612ceb565b60405180910390a15b505050505050505050565b6000611d01611dce565b905060008160000160009054906101000a900473ffffffffffffffffffffffffffffffffffffffff169050828260000160006101000a81548173ffffffffffffffffffffffffffffffffffffffff021916908373ffffffffffffffffffffffffffffffffffffffff1602179055508273ffffffffffffffffffffffffffffffffffffffff168173ffffffffffffffffffffffffffffffffffffffff167f8be0079c531659141344cd1fd0a4f28419497f9722a3daafe3b4186f6b6457e060405160405180910390a3505050565b60007f9016d09d72d40fdae2fd8ceac6b6234c7706214fd39c1cd1e609a0528c199300905090565b600082611e04868685611f69565b149050949350505050565b60008373ffffffffffffffffffffffffffffffffffffffff1663dd62ed3e30856040518363ffffffff1660e01b8152600401611e4c929190612ec3565b602060405180830381865afa158015611e69573d6000803e3d6000fd5b505050506040513d601f19601f82011682018060405250810190611e8d9190612c3b565b9050611ea584848484611ea09190612d06565b611fbb565b50505050565b600033905090565b600080602060008451602086016000885af180611ed6576040513d6000823e3d81fd5b3d925060005191505060008214611ef1576001811415611f0d565b60008473ffffffffffffffffffffffffffffffffffffffff163b145b15611f4f57836040517f5274afe7000000000000000000000000000000000000000000000000000000008152600401611f469190612663565b60405180910390fd5b50505050565b611f5d6120ca565b611f668161210a565b50565b60008082905060005b85859050811015611faf57611fa082878784818110611f9457611f93612ab5565b5b90506020020135612190565b91508080600101915050611f72565b50809150509392505050565b60008373ffffffffffffffffffffffffffffffffffffffff1663095ea7b38484604051602401611fec929190612e58565b604051602081830303815290604052915060e01b6020820180517bffffffffffffffffffffffffffffffffffffffffffffffffffffffff8381831617835250505050905061203a84826121bb565b6120c4576120b9848573ffffffffffffffffffffffffffffffffffffffff1663095ea7b3866000604051602401612072929190612f27565b604051602081830303815290604052915060e01b6020820180517bffffffffffffffffffffffffffffffffffffffffffffffffffffffff8381831617835250505050611eb3565b6120c38482611eb3565b5b50505050565b6120d261221b565b612108576040517fd7e6bcf800000000000000000000000000000000000000000000000000000000815260040160405180910390fd5b565b6121126120ca565b600073ffffffffffffffffffffffffffffffffffffffff168173ffffffffffffffffffffffffffffffffffffffff16036121845760006040517f1e4fbdf700000000000000000000000000000000000000000000000000000000815260040161217b9190612663565b60405180910390fd5b61218d81611cf7565b50565b60008183106121a8576121a3828461223b565b6121b3565b6121b2838361223b565b5b905092915050565b6000806000806020600086516020880160008a5af192503d915060005190508280156122105750600082146121f3576001811461220f565b60008673ffffffffffffffffffffffffffffffffffffffff163b115b5b935050505092915050565b6000612225611741565b60000160089054906101000a900460ff16905090565b600082600052816020526040600020905092915050565b6000604051905090565b600080fd5b600080fd5b600073ffffffffffffffffffffffffffffffffffffffff82169050919050565b600061229182612266565b9050919050565b6122a181612286565b81146122ac57600080fd5b50565b6000813590506122be81612298565b92915050565b6000819050919050565b6122d7816122c4565b81146122e257600080fd5b50565b6000813590506122f4816122ce565b92915050565b600080604083850312156123115761231061225c565b5b600061231f858286016122af565b9250506020612330858286016122e5565b9150509250929050565b612343816122c4565b82525050565b600060208201905061235e600083018461233a565b92915050565b600080fd5b600080fd5b600080fd5b60008083601f84011261238957612388612364565b5b8235905067ffffffffffffffff8111156123a6576123a5612369565b5b6020830191508360208202830111156123c2576123c161236e565b5b9250929050565b60008083601f8401126123df576123de612364565b5b8235905067ffffffffffffffff8111156123fc576123fb612369565b5b6020830191508360208202830111156124185761241761236e565b5b9250929050565b60008083601f84011261243557612434612364565b5b8235905067ffffffffffffffff81111561245257612451612369565b5b60208301915083602082028301111561246e5761246d61236e565b5b9250929050565b6000806000806000806000806080898b0312156124955761249461225c565b5b600089013567ffffffffffffffff8111156124b3576124b2612261565b5b6124bf8b828c01612373565b9850985050602089013567ffffffffffffffff8111156124e2576124e1612261565b5b6124ee8b828c01612373565b9650965050604089013567ffffffffffffffff81111561251157612510612261565b5b61251d8b828c016123c9565b9450945050606089013567ffffffffffffffff8111156125405761253f612261565b5b61254c8b828c0161241f565b92509250509295985092959890939650565b6000806000606084860312156125775761257661225c565b5b6000612585868287016122af565b9350506020612596868287016122af565b92505060406125a7868287016122af565b9150509250925092565b6000602082840312156125c7576125c661225c565b5b60006125d5848285016122af565b91505092915050565b60008115159050919050565b6125f3816125de565b82525050565b600060208201905061260e60008301846125ea565b92915050565b6000806040838503121561262b5761262a61225c565b5b6000612639858286016122af565b925050602061264a858286016122af565b9150509250929050565b61265d81612286565b82525050565b60006020820190506126786000830184612654565b92915050565b600061268982612286565b9050919050565b6126998161267e565b81146126a457600080fd5b50565b6000813590506126b681612690565b92915050565b6000601f19601f8301169050919050565b7f4e487b7100000000000000000000000000000000000000000000000000000000600052604160045260246000fd5b612705826126bc565b810181811067ffffffffffffffff82111715612724576127236126cd565b5b80604052505050565b6000612737612252565b905061274382826126fc565b919050565b600067ffffffffffffffff821115612763576127626126cd565b5b602082029050602081019050919050565b600061278761278284612748565b61272d565b905080838252602082019050602084028301858111156127aa576127a961236e565b5b835b818110156127d357806127bf88826122af565b8452602084019350506020810190506127ac565b5050509392505050565b600082601f8301126127f2576127f1612364565b5b8135612802848260208601612774565b91505092915050565b600080600080608085870312156128255761282461225c565b5b6000612833878288016126a7565b9450506020612844878288016122af565b935050604085013567ffffffffffffffff81111561286557612864612261565b5b612871878288016127dd565b925050606085013567ffffffffffffffff81111561289257612891612261565b5b61289e878288016127dd565b91505092959194509250565b6000819050919050565b6128bd816128aa565b81146128c857600080fd5b50565b6000813590506128da816128b4565b92915050565b6000806000606084860312156128f9576128f861225c565b5b6000612907868287016122af565b9350506020612918868287016122af565b9250506040612929868287016128cb565b9150509250925092565b61293c816128aa565b82525050565b60006020820190506129576000830184612933565b92915050565b6000819050919050565b600061298261297d61297884612266565b61295d565b612266565b9050919050565b600061299482612967565b9050919050565b60006129a682612989565b9050919050565b6129b68161299b565b82525050565b60006020820190506129d160008301846129ad565b92915050565b60008083601f8401126129ed576129ec612364565b5b8235905067ffffffffffffffff811115612a0a57612a09612369565b5b602083019150836020820283011115612a2657612a2561236e565b5b9250929050565b600080600080600060808688031215612a4957612a4861225c565b5b6000612a57888289016122af565b9550506020612a68888289016122af565b9450506040612a79888289016122e5565b935050606086013567ffffffffffffffff811115612a9a57612a99612261565b5b612aa6888289016129d7565b92509250509295509295909350565b7f4e487b7100000000000000000000000000000000000000000000000000000000600052603260045260246000fd5b600080fd5b600080fd5b600080fd5b60008083356001602003843603038112612b1057612b0f612ae4565b5b80840192508235915067ffffffffffffffff821115612b3257612b31612ae9565b5b602083019250602082023603831315612b4e57612b4d612aee565b5b509250929050565b612b5f816125de565b8114612b6a57600080fd5b50565b600081519050612b7c81612b56565b92915050565b600060208284031215612b9857612b9761225c565b5b6000612ba684828501612b6d565b91505092915050565b7f4e487b7100000000000000000000000000000000000000000000000000000000600052601160045260246000fd5b6000612be9826122c4565b91507fffffffffffffffffffffffffffffffffffffffffffffffffffffffffffffffff8203612c1b57612c1a612baf565b5b600182019050919050565b600081519050612c35816122ce565b92915050565b600060208284031215612c5157612c5061225c565b5b6000612c5f84828501612c26565b91505092915050565b6000612c73826122c4565b9150612c7e836122c4565b9250828203905081811115612c9657612c95612baf565b5b92915050565b6000819050919050565b600067ffffffffffffffff82169050919050565b6000612cd5612cd0612ccb84612c9c565b61295d565b612ca6565b9050919050565b612ce581612cba565b82525050565b6000602082019050612d006000830184612cdc565b92915050565b6000612d11826122c4565b9150612d1c836122c4565b9250828201905080821115612d3457612d33612baf565b5b92915050565b60008160601b9050919050565b6000612d5282612d3a565b9050919050565b6000612d6482612d47565b9050919050565b612d7c612d7782612286565b612d59565b82525050565b6000819050919050565b612d9d612d98826122c4565b612d82565b82525050565b6000612daf8285612d6b565b601482019150612dbf8284612d8c565b6020820191508190509392505050565b7f4e487b7100000000000000000000000000000000000000000000000000000000600052601260045260246000fd5b6000612e09826122c4565b9150612e14836122c4565b925082612e2457612e23612dcf565b5b828204905092915050565b6000604082019050612e44600083018561233a565b612e516020830184612654565b9392505050565b6000604082019050612e6d6000830185612654565b612e7a602083018461233a565b9392505050565b600081519050612e9081612298565b92915050565b600060208284031215612eac57612eab61225c565b5b6000612eba84828501612e81565b91505092915050565b6000604082019050612ed86000830185612654565b612ee56020830184612654565b9392505050565b6000819050919050565b6000612f11612f0c612f0784612eec565b61295d565b6122c4565b9050919050565b612f2181612ef6565b82525050565b6000604082019050612f3c6000830185612654565b612f496020830184612f18565b939250505056fea2646970667358221220713e29a0a9f96915a08afe6aa003dec4f2ebe5ad82b9f3e6e772352689fb261264736f6c634300081b0033",
  "devdoc": {
    "details": "In order to distribute token rewards for an orange vault, the reward amounts need to be calculated for the vault depositors off- chain. The total reward amount should be sent to the distributor contract, either by calling pullNext for syk rewards or transferring the tokens directly to the distributor. A merkle root then needs to be  calculated based on the amount of tokens that are to be distributed to each vault depositor (this is performed off chain) and sent to the  distributor contract via updateMerkleRoot",
    "errors": {
      "InvalidInitialization()": [
        {
          "details": "The contract is already initialized."
        }
      ],
      "NotInitializing()": [
        {
          "details": "The contract is not initializing."
        }
      ],
      "OwnableInvalidOwner(address)": [
        {
          "details": "The owner is not a valid owner account. (eg. `address(0)`)"
        }
      ],
      "OwnableUnauthorizedAccount(address)": [
        {
          "details": "The caller account is not authorized to perform an operation."
        }
      ],
      "SafeERC20FailedOperation(address)": [
        {
          "details": "An operation with an ERC-20 token failed."
        }
      ]
    },
    "events": {
      "Initialized(uint64)": {
        "details": "Triggered when the contract has been initialized or reinitialized."
      }
    },
    "kind": "dev",
    "methods": {
      "claim(address,address,uint256,bytes32[])": {
        "params": {
          "_amount": "Amount of token to claim as reward",
          "_token": "The token to claim",
          "_vault": "The vault for which to claim rewards",
          "merkleProof": "Merkle proof"
        }
      },
      "owner()": {
        "details": "Returns the address of the current owner."
      },
      "renounceOwnership()": {
        "details": "Leaves the contract without owner. It will not be possible to call `onlyOwner` functions. Can only be called by the current owner. NOTE: Renouncing ownership will leave the contract without an owner, thereby disabling any functionality that is only available to the owner."
      },
      "setGauge(address,address)": {
        "details": "SYKPuller needs to be made the owner of the gauge, to allow pulling reward"
      },
      "transferOwnership(address)": {
        "details": "Transfers ownership of the contract to a new account (`newOwner`). Can only be called by the current owner."
      },
      "updateMerkleRoot(address,address,bytes32)": {
        "params": {
          "_merkleRoot": "New root for reward distribution",
          "_token": "The reward token for the vault",
          "_vault": "The vault whose token is to be distributed using the merkle root"
        }
      }
    },
    "version": 1
  },
  "userdoc": {
    "kind": "user",
    "methods": {
      "batchClaim(address[],address[],uint256[],bytes32[][])": {
        "notice": "Claim multiple token rewards in a single call"
      },
      "canPullNext(address)": {
        "notice": "Check if the rewards for the next epoch can be pulled"
      },
      "claim(address,address,uint256,bytes32[])": {
        "notice": "Claim all the token rewards for a vault"
      },
      "emergencyWithdrawal(address,uint256)": {
        "notice": "Withdraw funds in case of emergency"
      },
      "pullNext(address)": {
        "notice": "Pull the rewards for the next epoch from the gauge"
      },
      "setGauge(address,address)": {
        "notice": "Set the gauge for an orange vault"
      },
      "setKeeper(address)": {
        "notice": "Update keeper address"
      },
      "skipPulls(address,uint256)": {
        "notice": "Admin function to manually set the next epoch whose rewards will be pulled."
      },
      "updateMerkleRoot(address,address,bytes32)": {
        "notice": "Update the merkle root for the reward token distribution of a vault"
      }
    },
    "notice": "Contract for distributing token rewards to Orange vault depositors. The contract is able to distribute token rewards distributed by stryke via their gauges as well as any ERC20 token transferred to the OrangeDistributor contract",
    "version": 1
  },
  "storageLayout": {
    "storage": [
      {
        "astId": 4164,
        "contract": "contracts/OrangeDistributor.sol:OrangeDistributor",
        "label": "nextStrykeEpochToPull",
        "offset": 0,
        "slot": "0",
        "type": "t_mapping(t_address,t_uint256)"
      },
      {
        "astId": 4170,
        "contract": "contracts/OrangeDistributor.sol:OrangeDistributor",
        "label": "epochRewards",
        "offset": 0,
        "slot": "1",
        "type": "t_mapping(t_address,t_mapping(t_uint256,t_uint256))"
      },
      {
        "astId": 4174,
        "contract": "contracts/OrangeDistributor.sol:OrangeDistributor",
        "label": "gauges",
        "offset": 0,
        "slot": "2",
        "type": "t_mapping(t_address,t_address)"
      },
      {
        "astId": 4177,
        "contract": "contracts/OrangeDistributor.sol:OrangeDistributor",
        "label": "controller",
        "offset": 0,
        "slot": "3",
        "type": "t_contract(IGaugeController)4813"
      },
      {
        "astId": 4179,
        "contract": "contracts/OrangeDistributor.sol:OrangeDistributor",
        "label": "keeper",
        "offset": 0,
        "slot": "4",
        "type": "t_address"
      },
      {
        "astId": 4181,
        "contract": "contracts/OrangeDistributor.sol:OrangeDistributor",
        "label": "syk",
        "offset": 0,
        "slot": "5",
        "type": "t_address"
      },
      {
        "astId": 4183,
        "contract": "contracts/OrangeDistributor.sol:OrangeDistributor",
        "label": "xSyk",
        "offset": 0,
        "slot": "6",
        "type": "t_address"
      },
      {
        "astId": 3878,
        "contract": "contracts/OrangeDistributor.sol:OrangeDistributor",
        "label": "merkleRoot",
        "offset": 0,
        "slot": "7",
        "type": "t_mapping(t_address,t_mapping(t_address,t_bytes32))"
      },
      {
        "astId": 3886,
        "contract": "contracts/OrangeDistributor.sol:OrangeDistributor",
        "label": "claimed",
        "offset": 0,
        "slot": "8",
        "type": "t_mapping(t_address,t_mapping(t_address,t_mapping(t_address,t_uint256)))"
      }
    ],
    "types": {
      "t_address": {
        "encoding": "inplace",
        "label": "address",
        "numberOfBytes": "20"
      },
      "t_bytes32": {
        "encoding": "inplace",
        "label": "bytes32",
        "numberOfBytes": "32"
      },
      "t_contract(IGaugeController)4813": {
        "encoding": "inplace",
        "label": "contract IGaugeController",
        "numberOfBytes": "20"
      },
      "t_mapping(t_address,t_address)": {
        "encoding": "mapping",
        "key": "t_address",
        "label": "mapping(address => address)",
        "numberOfBytes": "32",
        "value": "t_address"
      },
      "t_mapping(t_address,t_bytes32)": {
        "encoding": "mapping",
        "key": "t_address",
        "label": "mapping(address => bytes32)",
        "numberOfBytes": "32",
        "value": "t_bytes32"
      },
      "t_mapping(t_address,t_mapping(t_address,t_bytes32))": {
        "encoding": "mapping",
        "key": "t_address",
        "label": "mapping(address => mapping(address => bytes32))",
        "numberOfBytes": "32",
        "value": "t_mapping(t_address,t_bytes32)"
      },
      "t_mapping(t_address,t_mapping(t_address,t_mapping(t_address,t_uint256)))": {
        "encoding": "mapping",
        "key": "t_address",
        "label": "mapping(address => mapping(address => mapping(address => uint256)))",
        "numberOfBytes": "32",
        "value": "t_mapping(t_address,t_mapping(t_address,t_uint256))"
      },
      "t_mapping(t_address,t_mapping(t_address,t_uint256))": {
        "encoding": "mapping",
        "key": "t_address",
        "label": "mapping(address => mapping(address => uint256))",
        "numberOfBytes": "32",
        "value": "t_mapping(t_address,t_uint256)"
      },
      "t_mapping(t_address,t_mapping(t_uint256,t_uint256))": {
        "encoding": "mapping",
        "key": "t_address",
        "label": "mapping(address => mapping(uint256 => uint256))",
        "numberOfBytes": "32",
        "value": "t_mapping(t_uint256,t_uint256)"
      },
      "t_mapping(t_address,t_uint256)": {
        "encoding": "mapping",
        "key": "t_address",
        "label": "mapping(address => uint256)",
        "numberOfBytes": "32",
        "value": "t_uint256"
      },
      "t_mapping(t_uint256,t_uint256)": {
        "encoding": "mapping",
        "key": "t_uint256",
        "label": "mapping(uint256 => uint256)",
        "numberOfBytes": "32",
        "value": "t_uint256"
      },
      "t_uint256": {
        "encoding": "inplace",
        "label": "uint256",
        "numberOfBytes": "32"
      }
    }
  }
}